:020000040800F2
:10000000101D0020B9010008D1080008710800087F
:10001000BD080008E1060008A50F00080000000068
:10002000000000000000000000000000110B0008AC
:100030004507000800000000E1010008190C000855
:10004000E5010008E5010008E5010008E5010008F8
:10005000E5010008E5010008E5010008E5010008E8
:10006000E5010008E5010008E5010008E5010008D8
:10007000E5010008E5010008E5010008E5010008C8
:10008000E5010008E5010008E5010008E5010008B8
:10009000E5010008E5010008E5010008E5010008A8
:1000A000E5010008E5010008E5010008E501000898
:1000B000E5010008E5010008E5010008E501000888
:1000C000E5010008E5010008E5010008E501000878
:1000D000E5010008E5010008E5010008E501000868
:1000E000E5010008E5010008E501000800F002F85C
:1000F00000F042F80AA090E8000C82448344AAF180
:100100000107DA4501D100F037F8AFF2090EBAE87D
:100110000F0013F0010F18BFFB1A43F0010318473B
:100120002052000040520000103A24BF78C878C125
:10013000FAD8520724BF30C830C144BF04680C60ED
:10014000704700000023002400250026103A28BF35
:1001500078C1FBD8520728BF30C148BF0B60704739
:10016000642900F0AF80752900F0AC800020704752
:100170001FB51FBD10B510BDDFF80CD0FFF7F8FF9D
:1001800003F014F900F09BFA1017002003B4FFF7F6
:10019000F1FF03BC00F09CFAEFF30980704780F395
:1001A00009887047EFF30880704780F3088870472C
:1001B00040BA7047C0BA704772B60E4880F30988DB
:1001C000022080F31488BFF36F8F0B4880470B48E1
:1001D0000047FEE7FEE7FEE7FEE7FEE7FEE7FEE795
:1001E000FEE7FEE7FEE7000005480649064A074B22
:1001F0007047000010170020F50C0008ED00000803
:1002000010170020101700201019002010130020D4
:100210002DE9F04FC1F80CD0C3689D46BDE8F08FC2
:10022000002383F311882846A047002002F03EF8FF
:10023000FEE701F067FE00DFFEE700000FB47CB5CB
:100240000C0009AA009001D02044401E084B7B44BA
:1002500069460190089800F012FA05461CB100208A
:10026000694600F01FFA28467CBC5DF814FB0000CC
:100270005D04000070B5044685690068C10601D5BB
:10028000302600E02026C00707D070BDD4E9012148
:1002900030469047206A401C20626D1EF6D570BD26
:1002A00070B5044685690078C00707D170BDD4E9F0
:1002B000012120209047206A401C20626D1EF6D547
:1002C00070BD00002DE9F041064600241068752934
:1002D000314616A510D0AFF30080002802DA404264
:1002E00013A507E031688A0701D512A502E0490786
:1002F00004D511A5012401E0AFF3008000210A22FA
:1003000006F1240709E0B0FBF2FCB0FBF2F302FBBC
:100310001C00303078541846491C0028F3D123467D
:100320002A463046BDE8F04100F04AB9000000001E
:100330002D0000002B000000200000002DE9F05FE0
:10034000894604464FF0000ADFF874B1FB44C0F858
:1003500020A02046E1688847002874D0252806D0D0
:10036000D4E901219047206A401C2062F1E7002671
:100370005F462046E16888472028054607DB312D87
:1003800005D2781910F8200C08B10643F1E7B00740
:1003900001D526F00406C4F81CA00027C4F818A054
:1003A0002A2D09D0284600F031FF38B304EB870826
:1003B000303DC8F8185019E059F8041B204604EBEA
:1003C00087029161E1688847012F054618D1E069ED
:1003D000002820DA26F020061DE0D8F8180000EBEF
:1003E000800005EB40003038C8F818002046E1686E
:1003F0008847054600F00AFF0028EED1012F0AD0F9
:100400002E2D08D12046E16888477F1C0546022F23
:1004100046F02006C4DBA069002803DA404246F01B
:100420000106A061F00701D026F010066C2D0BD05C
:10043000682D09D04C2D39D06A2D35D0742D35D08A
:100440007A2D33D016E038E0E1682F462046884701
:10045000B842054609D16C2F26D04FF48060E16880
:10046000064320468847054604E06C2F1AD04FF417
:10047000807006430DB3A5F14100192802D820353C
:1004800046F400664A462946204626604E46FFF757
:1004900067FE80B101280BD0F61D26F0070000F1A1
:1004A000080956E74020E4E78020D8E70020D6E797
:1004B00006F104094DE7284652E7206ABDE8F09F9F
:1004C000884E000010B5203AC0F00B80B1E81850FB
:1004D000203AA0E81850B1E81850A0E81850BFF42E
:1004E000F5AF5FEA027C24BFB1E81850A0E81850CD
:1004F00044BF18C918C0BDE810405FEA827C24BF21
:1005000051F8043B40F8043B08BF7047D20728BFAE
:1005100031F8023B48BF11F8012B28BF20F8023BFD
:1005200048BF00F8012B70474FF000020429C0F0CB
:10053000128010F0030C00F01B80CCF1040CBCF115
:10054000020F18BF00F8012BA8BF20F8022BA1EB67
:100550000C0100F00DB85FEAC17C24BF00F8012B4C
:1005600000F8012B48BF00F8012B70474FF0000244
:1005700000B5134694469646203922BFA0E80C5099
:10058000A0E80C50B1F12001BFF4F7AF090728BF74
:10059000A0E80C5048BF0CC05DF804EB890028BFF0
:1005A00040F8042B08BF704748BF20F8022B11F019
:1005B000804F18BF00F8012B704770477047704795
:1005C0002DE9F0470D4699469246044600F124086D
:1005D0000168880604D5E06921F01001216000E07F
:1005E0000120A84201DD471B00E00027A1697A191C
:1005F00002EB0900081AA0612078C00602D4204648
:10060000FFF738FE002608E0D4E901211AF80600B9
:100610009047206A401C761C20624E45F4DB20780F
:10062000C0060AD52046FFF725FE06E0D4E90121E1
:1006300030209047206A401C2062381EA7F1010735
:10064000F4DC07E0D4E9012118F805009047206A9E
:10065000401C2062281EA5F10105F3DC2046FFF7AF
:100660001FFE2078000602D50220BDE8F087012099
:10067000FBE7000001694A1C02610878704700B579
:100680008FB0CDE901310021059105497944CDE9CB
:10069000031011466846FFF751FE0FB000BD000081
:1006A000E5FFFFFF0A6802F8010B0A607047D1E915
:1006B00000239A4202D2531C0B601070704710B591
:1006C0000446AFF300802046BDE81040FFF75EBD52
:1006D00001491820ABBEFEE726000200704700006B
:1006E00001A002F009FB00004275734661756C744D
:1006F000000000001FB50AA00B49C968086200BFCE
:100700000AA002F085FD0AE0684600F07BFE68461C
:1007100000F0B7FE0A2001F035FE01F027FAF3E7FA
:100720006374726C00000000B00C00205B435452F4
:100730004C5D2074687265616420656E74657265D5
:10074000640D0A0070472DE9F0410246002500269D
:10075000002000230024002791F803C00CF00F05AF
:1007600091F803C00CF0100CBCF1000F03D091F80D
:1007700002C04CEA050591F800C0BCF1000F31D071
:10078000146800202BE04FF0010C0CFA00F3B1F8D4
:1007900000C00CEA03069E4220D183004FF00F0CEC
:1007A0000CFA03F7BC4305FA03FC4CEA040491F885
:1007B00003C0BCF1280F06D14FF0010C0CFA00FC6D
:1007C000C2F814C00AE091F803C0BCF1480F05D18B
:1007D0004FF0010C0CFA00FCC2F810C0401C0828B5
:1007E000D1D31460B1F800C0BCF1FF0F34DD546800
:1007F00000202EE000F1080C4FF0010808FA0CF37D
:10080000B1F800C00CEA03069E4221D183004FF0EC
:100810000F0C0CFA03F7BC4305FA03FC4CEA040482
:1008200091F803C0BCF1280F05D100F1080C08FABB
:100830000CF8C2F8148091F803C0BCF1480F07D13E
:1008400000F1080C4FF0010808FA0CF8C2F810800B
:10085000401C0828CED35460BDE8F0810246002039
:1008600093680B400BB1012000E0002070470000AE
:1008700001A002F041FA0000486172644661756CA3
:10088000740000000AA00C49C968086200BF0EE0AD
:1008900002F0F4FA044634B101F045FC204602F0BF
:1008A000BBFA01F064FC012001F06CFD00BFEFE732
:1008B0006B65797300000000B00C002001A002F00D
:1008C0001BFA00004D656D4D616E616765000000AB
:1008D0007047000010B5002807DA0A07140E054A11
:1008E00000F00F031B1FD45403E00A07130E024A43
:1008F000135410BD18ED00E000E400E029B1064AF1
:1009000012690243044B1A6104E0034A12698243EC
:10091000014B1A61704700000010024029B1064ADD
:1009200092690243044B9A6104E0034A926982434C
:10093000014B9A61704700000010024029B1064A3D
:10094000D2680243044BDA6004E0034AD26882436F
:10095000014BDA60704700000010024030B5002102
:100960000022002400232D4D6D6805F00C0121B1FB
:10097000042905D0082923D105E0294D056022E08E
:10098000274D05601FE0254D6D6805F47012234D5D
:100990006D6805F48034022505EB92421CB9214DA7
:1009A000554305600BE01D4D6D6805F400351DB124
:1009B0001C4D5543056002E0194D5543056002E0AA
:1009C000174D056000BF00BF144D6D6805F0F001C4
:1009D0000909154D6B5C0568DD4045600F4D6D687C
:1009E00005F4E061090A104D6B5C4568DD408560E7
:1009F0000A4D6D6805F46051C90A0B4D6B5C456882
:100A0000DD40C560054D6D6805F44041890B074D1B
:100A10006B5CC568B5FBF3F5056130BD00100240A5
:100A200000127A0000093D0014000020240000207C
:100A300021B1028842F04002028004E002884FF6B1
:100A4000BF731A400280704710B5044611488442B3
:100A500008D101218014FFF771FF0021A014FFF7D6
:100A60006DFF16E00C48844208D101210014FFF705
:100A700045FF00212014FFF741FF0AE007488442A8
:100A800007D10121C013FFF739FF0021E013FFF761
:100A900035FF10BD0030014000380040003C0040F0
:100AA0000246002013890B400BB1012000E000201A
:100AB00070470146888970478181704710B50022D0
:100AC000028802F441520B884C8823438C882343CC
:100AD000CC8823430C8923434C8923438C892343AB
:100AE000CC8923431A430280838B4FF2FF74234047
:100AF00083830B8A038210BD0021018041808180A5
:100B0000C180018141818181C181072101827047BA
:100B100010B5FFF741FB044620342046FFF73FFBAA
:100B200000BF00BF002000F059FB00BF00BF10BD98
:100B300010B500F001F810BD0CB500200190009038
:100B40003348006840F480303149086000BF3048C5
:100B5000006800F4003000900198401C019000985B
:100B600018B90198B0F5A06FF1D12948006800F4D8
:100B7000003010B10120009001E0002000900098AA
:100B8000012843D12348006840F010002149086043
:100B90000846006820F0030008600846006840F03E
:100BA000020008601A4840681949486008464068D1
:100BB00048600846406840F48060486008464068E5
:100BC00020F47C1048600846406840F4E810486013
:100BD0000846006840F08070086000BF0C4800685C
:100BE00000F000700028F9D00948406820F00300A8
:100BF000074948600846406840F00200486000BF6E
:100C00000348406800F00C000828F9D10CBD000032
:100C1000001002400020024010B500BF00BF00BF1E
:100C200000BF00BF302000F0CDFA00BF00BF00BF02
:100C300001F08EFA00BF00BF00BF002000F0C2FA32
:100C400000BF00BF00BF00BF00BF00F00BFA10BD27
:100C500010B5002100200022214B5B6803F00C013D
:100C600021B1042906D0082928D107E01D4B1E4CCC
:100C7000236027E01B4B1C4C236023E0184B5B6870
:100C800003F47010164B5B6803F48032022303EB0D
:100C9000904022B9154B4343134C23600DE0104B99
:100CA0005B6803F4003323B1104B43430E4C2360C5
:100CB00003E00C4B43430C4C236003E0094B0A4C0C
:100CC000236000BF00BF064B5B68C3F30313084CEF
:100CD000E15C054B1B68CB40034C236010BD00005A
:100CE0000010024000127A000000002000093D00C0
:100CF0000400002010B51348006840F001001149BD
:100D0000086008464068104908400E494860084697
:100D100000680E4908400B4908600846006820F446
:100D2000802008600846406820F4FE0048604FF4C8
:100D30001F008860FFF7FCFE4FF000600449086068
:100D400010BD0000001002400000FFF8FFFFF6FE9B
:100D500008ED00E021B1828942F40052828104E072
:100D600082894DF6FF731A40828170470246002047
:100D7000B1F5007F00D100BF13880B400BB10120FB
:100D800000E00020704700002DE9F04786B00546DE
:100D90000E460024A24600BFA1460027B08900B13C
:100DA00000BF2F462C8A4CF6FF700440F0880443A5
:100DB0002C82AC894EF6F3100440B0883189084388
:100DC000718908430443AC81AC8A4FF6FF4004406C
:100DD000B0890443AC8201A8FFF7C0FD1F488742D9
:100DE00002D1DDF810A001E0DDF80CA0A88900F424
:100DF000004040B10AEBCA0000EB0A10316849001C
:100E0000B0FBF1F807E00AEBCA0000EB0A1031680A
:100E10008900B0FBF1F86420B8FBF0F00401200970
:100E2000642101FB1089A88900F4004040B1322000
:100E300000EBC900B0FBF1F000F00700044308E04C
:100E4000322000EB09106421B0FBF1F000F00F003C
:100E500004432C8106B0BDE8F08700000038014053
:100E6000C1F30802828070474FF4165101600021DF
:100E70008180C18001810C214181002181817047E5
:100E8000A0B034A03449C968086200BF33A002F0A2
:100E9000BFF902F0E7F800F017FD36A002F0B8F94C
:100EA00000BF2D48C0690446012552E001F08EFFC5
:100EB000064610A800F0A6FA052E21D2DFE806F0BB
:100EC0002103070B1C0000F03BFD01251AE000F098
:100ED00011FD012516E001A910A800F017FC38B19A
:100EE00001A800F09FFA29A002F092F9012502E082
:100EF00000F0AEFC012505E000F026FC012501E034
:100F000000BF00BF00BF65B900F03EFD48B100BFA3
:100F100000BF1149C86900BF011B00BF212900D3D0
:100F2000012595B110A800F06DFA03A800F00CFEA1
:100F300014AA03A910A800F013FC14A802F0C0F82A
:100F400000BF0548C06904460025052001F01AFAD3
:100F500000BFABE775690000B00C00205B55495D30
:100F60002074687265616420656E74657265640DD5
:100F70000A0000005B55495D20646973706C6179FB
:100F80002072656164790D0A000000005B55495DBF
:100F900020636F6D6D616E64207375626D69740D91
:100FA0000A00000001A001F0A7FE00005573616770
:100FB000654661756C74000003480449086000F5DB
:100FC0008060486070470000A00E00207000002084
:100FD00010B5144800F078FF1248103001F08AFE76
:100FE000114A14210F48143000F077FF0D482430C7
:100FF00001F080FE0B48283001F07CFE0A4A1C21DB
:1010000008482C3000F069FF06483C3001F072FEC1
:101010000448403001F06EFE0248443001F06AFEA0
:1010200010BD0000C4120020591D000810B508486A
:1010300008490860081D00F0CBFE00200549C86083
:10104000002104480161143000F03EFF10BD000093
:101050006B1D0008A012002003E000BF00BF00BF0E
:1010600000BFFAE770B500BF00BF302000F0B6F84F
:1010700000BF00BF1048006800F4006098B1FFF79F
:101080008BF80446203C25464FF08070E8612046EE
:10109000FFF785F800F09AFF10B10848A86101E059
:1010A0000748A86170BD00BF00BF002000F096F89F
:1010B00000BF00BF00BFF5E704ED00E03302000809
:1010C000370200082DE9F041064600BF00BF0020AE
:1010D00030773446356900BF00BF2F68394603209A
:1010E00000F0B2FF00BF00BF3D46A868A16888427B
:1010F000F3D8256068686060606804606C602046B2
:10110000BDE8F0812DE9F041064600BF00BF002098
:1011100030773446356900BF00BF2F683946032059
:1011200000F092FF00BF00BF3D46A868A16888425A
:10113000F3D2256068686060606804606C60204677
:10114000BDE8F08170B506460D462C4600BF00BFD5
:1011500000BF302000F04EF800BF00BF00BF207F6E
:10116000052812D005DC48B103280AD004281DD177
:1011700011E0072811D00C2818D10DE001F01BF860
:1011800070BD0020616B086011E0606B8168491CD4
:10119000816000BF00BF00BF00BF00BFD4E90001F5
:1011A0000860D4E90010486000BF00E000BF00BF45
:1011B0004FF0FF3060632046FFF7A4FF00F0FBFF15
:1011C00000BFDDE7C1B281F311887047C1B281F37E
:1011D00011887047C1B281F311887047C1B281F3A1
:1011E00011887047C1B281F311887047C1B281F391
:1011F00011887047C1B281F311887047C1B281F381
:1012000011887047C1B281F31188704730380A28BD
:1012100001D20120704700207047000008B540F25D
:10122000B6300023012211460090064800F092F8E3
:10123000782350220021044800F0BFF8034800F052
:1012400069F808BD40090020540900203C00002036
:101250002DE9F05F07460E46144616B10CB1307802
:1012600080B91E4800F082F87823502200211C48E3
:1012700000F0A3F824B1002020806080A080A0713D
:10128000BDE8F09FB7F90810164800F049F883460A
:10129000B6F90210124800F097F88246B7F900003C
:1012A000AAEB000949460D4800F066F8804640F276
:1012B000B6320021404600F017F880461FFA88F049
:1012C00040F2B632002100F01AF80546258065800C
:1012D000A5800120A07100BFD2E7000040090020D6
:1012E000540900203C00002003468B4201DA0846E6
:1012F0007047934201DD1046FAE71846F8E70346C7
:101300008B4201DA08467047934201DD1046FAE746
:101310001846F8E700B970470021016000BFFAE7FE
:1013200002460AB908467047136803EB430358188E
:10133000C31700EB93739B1013601068F3E7034629
:101340008B4201DA08467047934201DD1046FAE706
:101350001846F8E730B5039C00B930BD0160426023
:1013600000258560C360046100BFF6E700B97047DF
:101370000021816000BFFAE770B504460D460CB944
:10138000002070BDD4E9011005FB0100A0602369B5
:101390001A01E3681901A068FFF7D1FFA060A068F7
:1013A000C11700EB11710911226805FB02163046C6
:1013B000D4E90312FFF7C3FFE3E700B97047016008
:1013C0004260836000BFF9E702460AB908467047E9
:1013D0001068884208DAD2E90003184410601068E7
:1013E00088420CDD11600AE01068884207DD9368CE
:1013F0001068C01A10601068884200DA1160106826
:10140000E5E7000010B5044604B910BD00F084FE05
:10141000034B0FCB84E80F0000F0A0FE00BFF4E701
:101420002800002010B504462146012000F002F8F3
:1014300010BD000070B505460C4604B970BD00F043
:101440006BFE0D4821680160A1888180057380686A
:10145000401C09498860608808494883A0888883BF
:1014600005488068C8620448007B81F8300000F0BD
:1014700075FE00BFE2E70000280000208000002089
:10148000704710B5A0B004460CB920B010BD684636
:1014900000F05AFB0FA801F085FE0FA800F060F8DD
:1014A00016901699019800F011FC8DF85C001698C2
:1014B00008B9012000E000208DF85D009DF85D0076
:1014C00001F067FC20788DF850006088ADF852007C
:1014D000A088ADF854000DAA14A90FA8FFF7B8FE14
:1014E0009DF83A0038B19DF85D0020B101F04DFC47
:1014F00008B1012000E000208DF83A000DA801F0AD
:10150000EFFCBDF84000ADF86000BDF83C00ADF860
:101510006200BDF83400ADF8640016981A909DF88A
:101520005C008DF86C006088ADF86E00A088ADF8A6
:101530007000BDF84600ADF87200BDF84C00ADF883
:10154000740012981E909DF84E0008B1012000E032
:1015500000208DF87C0018A800F024FB00BF94E761
:10156000014609B9012070470022888842F21073B1
:10157000984201D242F00102B1F9000040F2DC537E
:10158000984204DCB1F900005B42984201DA42F073
:1015900002021046E7E770471BA001F039FE00F099
:1015A0008FFB1FA001F034FEFFF7F5FF23A001F031
:1015B0002FFE01F0B9FB28A001F02AFEFFF72EFE56
:1015C0002BA001F025FEFFF75BFF2FA001F020FE0E
:1015D00000F062FD33A001F01BFE01F03FFC00F0C3
:1015E0000FFB00F099FB36A001F012FE00F0A4FB07
:1015F0003DA001F00DFE05E04FF47A7000F0C2FE50
:1016000000F0C2FAF8E700005B424F4F545D2061E2
:10161000707020696E697420626567696E0D0A00DA
:101620005B424F4F545D207374617465206D61633C
:1016300068696E65206F6B0D0A0000005B424F4FBA
:10164000545D206661756C74206D616E61676572B2
:10165000206F6B0D0A0000005B424F4F545D20620B
:101660006F61726420696E6974206F6B0D0A0000EF
:101670005B424F4F545D20616C676F20696E6974E7
:10168000206F6B0D0A0000005B424F4F545D2066D7
:101690006173746C6F6F7020696E6974206F6B0D6D
:1016A0000A0000005B424F4F545D20636869626925
:1016B0006F7320696E6974206F6B0D0A0000000063
:1016C0005B424F4F545D20636F6E74726F6C207479
:1016D00068726561642073746172742072657175DB
:1016E00065737465640D0A005B424F4F545D20754D
:1016F0006920746872656164207374617274207209
:1017000065717565737465640D0A000070B50446F3
:101710000D4600F0BFF806460EB104B10DB9002029
:1017200070BD20682860A088A880307B50B1012857
:1017300007D1207808B9012000E00020287001209E
:10174000EEE700BF0020EBE70448007C012804D945
:101750000248007C401E01490874704700090020BF
:101760002DE9F74F144614B13748007C08B9BDE89D
:10177000FE8F3548007C401EC7B2334850F82760C2
:10178000153010F80780001F10F807A0306820609F
:10179000AAEB080084F828002B48007C84F8290074
:1017A0002948007C012801D9012000E0002084F8AC
:1017B0002A0084F82B80307A84F82C0000253EE043
:1017C00008EB050000F0FF0B20A105EB4502201DF2
:1017D00040F822101DA105EB450200EB820041609C
:1017E000002105EB4502201D00EB82000172307ADA
:1017F000584522DD706800EB0B1905EB4502201DF2
:10180000D9F8001040F822102B464846DDE90012B6
:1018100000F0E8F805EB4502211D01EB820148606C
:10182000D9F8080008B1022100E0012105EB4502CA
:10183000201D00EB8200017200BF681CC5B2032DA1
:10184000BED300BF93E700000009002000000000A5
:1018500070B500F01FF805460DB1A86800B970BD5D
:101860000B48007C042800D3F9E70948047C0849A8
:10187000A86841F824000021054811300155001DD9
:1018800001551538007C401C0149087400BFE6E78B
:10189000000900200B48007C08B900207047094867
:1018A000007C401EC3B2074850F823101130C25CC0
:1018B000087A904201DC0020F0E7486800EB021053
:1018C000ECE70000000900200121084A11740849D2
:1018D0001160002007E00022044911310A54091D5B
:1018E0000A54411CC8B20428F5D3704700090020EF
:1018F000884A000870B51148007C00B970BD0F48D7
:10190000007C401EC4B20D4850F824501130005DD8
:10191000401C297A884208D208481130005D401CDA
:10192000C1B206481130015503E0002103481130CF
:10193000015500F0E3F800BFE0E7000000090020D7
:1019400070B51048007C00B970BD0E48007C401E88
:10195000C4B20C4850F824501130005D40B1094821
:101960001130005D401EC1B206481130015505E03E
:10197000287A401EC1B203481130015500F0BEF86C
:1019800000BFE1E70009002010B51548007C08B948
:10199000002010BD1248007C401EC3B2104850F811
:1019A000231009B90020F4E7002214E0486800EB96
:1019B0000210407B052808D2DFE800F00809030484
:1019C000050000BF00BF0120E3E700BF00BF00BF6C
:1019D00000BF501CC2B2087A9042E7DC0020D8E772
:1019E000000900202DE9F84306460F4614461D461F
:1019F00016B934A0BDE8F883032D01D331A0F9E76F
:101A0000707B052857D2DFE800F057030A2A400010
:101A10001FB1387808B12CA0ECE72CA0EAE7E4B1BC
:101A200094F82800C8B1E08B0A21B0FBF1F201FB69
:101A30001208B0FBF1F905EB4501254A02EB8100E4
:101A40004B4624A20C21CDF80080FEF7F7FB05EBF6
:101A500045001F4901EB8000CCE720A0CAE794B104
:101A600094F8280078B105EB4501194A02EB810092
:101A70001CA20C21636AFEF7E1FB05EB450014494B
:101A800001EB8000B6E718A0B4E794B194F8280001
:101A900078B1238C05EB45010D4A02EB810013A2BE
:101AA0000C21FEF7CBFB05EB4500094901EB80005B
:101AB000A0E710A09EE700BF706808B1706899E7C2
:101AC00000A097E7000000004F4E00004F46460080
:101AD0001C0900202533752E257500002D2D2E2D77
:101AE00000000000256C64002D2D000025303575A8
:101AF000000000002D2D2D2D2D00000010B5114CE3
:101B0000247C04B910BD0F4C247C641EE0B20D4C43
:101B100054F820301134215C241D225C914201DAFA
:101B20000A4605E0D41CE4B28C4201DC8C1EE2B211
:101B30001C7A032C00D80022024C1534225400BF1A
:101B4000E0E700000009002010B5044604B910BD0C
:101B500000F0E2FA342204492046FEF7B3FC00F01C
:101B6000FDFA00BFF3E700008000002010B500F090
:101B7000D3FA04484068401C0249486000F0EEFA7D
:101B800010BD00008000002010B500F0C5FA044828
:101B90000068401C0249086000F0E0FA10BD000037
:101BA0008000002010B5044604B910BD00F0B4FA5E
:101BB0002088114988816088C881A0880882A0682F
:101BC0004861207B0876E0894883208A8883608A80
:101BD000C883A08A0884A0694862207F81F8280011
:101BE00006488068C8620548007B81F8300000F034
:101BF000B5FA00BFD9E700008000002028000020CF
:101C000010B517A001F004FB00204FF0E02108619F
:101C10001A4800684FF47A71B0FBF1F0401E4FF0A3
:101C2000E021486100208861401E0821002807DA71
:101C30000A07140E124A00F00F031B1FD45403E0CE
:101C40000A07130E0F4A135400BF0FA001F0E0FA69
:101C500007204FF0E021086112A001F0D9FA10BD71
:101C60005B424F4F545D207379737469636B2063DB
:101C7000666720626567696E0D0A0000000000203B
:101C800018ED00E000E400E05B424F4F545D20732C
:101C900079737469636B2063666720646F6E650D8A
:101CA0000A0000005B424F4F545D207379737469E2
:101CB000636B20737461727465640D0A0000000028
:101CC000002001490870704738000020024629B101
:101CD0000320104B18701846007870470D480078A4
:101CE00030B1012808D002280CD003280BD10BE01A
:101CF0000120084B187008E0052A02D30220054B8A
:101D0000187002E001E000BF00BF00BF014800788A
:101D1000E3E700003800002008B50020044B8122D2
:101D20004FF448710090034800F074FA08BD0000B9
:101D3000F5060008C000002008B50020044B8022F2
:101D40004FF4A4610090034800F064FA08BD00005D
:101D5000810E0008E003002070B504460D46002205
:101D60002946204600F014F870BD2DE9F0410446E4
:101D70000D46164600F0E5F932462946204600F0A9
:101D800007F8074600F00EFA3846BDE8F08100007B
:101D9000F0B503460E46174600BF00BF0B48046867
:101DA0004168081B984201D20020F0BDC81AA6F174
:101DB000010C20EA0C05EA1BA24201D38A4201D998
:101DC0000020F2E7014842602846EEE7700000205C
:101DD00004490968016003494968024A1268891A7E
:101DE000416070477000002070B588B004460D4611
:101DF000002600BF00BF314840F826402663A56397
:101E0000204601F0FFFA00BF246064600020A0605B
:101E100000BF04F1280000BF0060406000BF00BFA9
:101E200000BF0020606300BF04F1100000BF00602D
:101E30004060711E816000BF0021C16000BF204969
:101E4000C96900220161426100BF00BF0020C4F8DF
:101E5000E40000BF1C221B4901A8FEF733FB6868A1
:101E60000290A8680390079401A904F1900000F083
:101E700057FAE06004F12801E26802F124000160F1
:101E80004A68426042681060486000BF0120E16813
:101E9000087700BF00BF1C220A491C3101A8FEF7C9
:101EA00011FBE868029028690390079401A904F1E6
:101EB0003C0000F07AFA08B070BD0000A40C0020CD
:101EC000B00C0020444C000800BF00BF00BF006001
:101ED000406000BF00218160704770B505460E4626
:101EE0001446234604223146284600F001F870BD0E
:101EF00010B500BF00BF0024046041608260C36071
:101F000010BD000070B50C4CE568204600F012FBD7
:101F1000064601203077E660A868012801D100BF9D
:101F200000BF2846FFF7CEF8054600BF00BF294690
:101F30003046FEF76DF970BDB00C00202DE9F04180
:101F400006460D4DEF6800BF00BF00BF00BF3E77E3
:101F5000284600F0EFFA044601202077EC60A068E4
:101F6000012801D100BF00BF00BF00BF3946204695
:101F7000FEF74EF9BDE8F081B00C002070B586B0D8
:101F800006460C460F48C568B4F1FF3F13D02B46F8
:101F90000D4A2146684600F053FA3046FFF7CEFF5F
:101FA00000BF009808B1012000E0002010B1684691
:101FB00000F02EFA02E03046FFF7C0FF686B06B073
:101FC00070BD0000B00C00204511000810B5054997
:101FD000CA68086883689468A34201D9012010BDCB
:101FE0000020FCE7B00C002010B5044600BF00BF85
:101FF0002046FFF787F810BD2DE9F04104460F4653
:10200000104EF56800BF00BF6763A068A9688842EA
:1020100003D82046FFF776F811E02846FFF752F87C
:102020000546A868012801D100BF00BF0120207724
:10203000F46000BF00BF29462046FEF7E9F8BDE87E
:10204000F0810000B00C002070B505460C4600BFC2
:10205000002D02DD022D09DC08E014B104F00300BC
:1020600020B100BF024800F005F800BF00BF70BDFE
:10207000944B000800BF72B600BF0549C1F8E400E8
:1020800000BF00BF0321034A117000BFFEE700003C
:10209000B00C0020A00C002070B586B001201B49B8
:1020A0000870002405E000211848001D40F82410A5
:1020B000641C002CF7D0154D0835002028606846B8
:1020C00000F082F8042600BF00BF684600F088F8E0
:1020D000684600F08DF8761E002EF6D10098286034
:1020E00000BF00BF00BF00BFFEF766FFFEF79EFF08
:1020F000FEF76EFF00BF06490648FFF775FE022097
:102100000249087000F03CF806B070BDA00C002039
:10211000604B0008B00C002010B500BF3020FFF766
:1021200055F800BF10BD10B500BF3020FFF752F8C2
:1021300000BF10BD10B500BF3020FFF75FF800BF33
:1021400010BD10B500BF3020FFF75CF800BF10BD18
:1021500010B500F08DF900BF00BF10BD10B500BF75
:1021600000BF00BF0020FFF731F800BF10BD10B561
:1021700000BF00BF00BF0020FFF72CF800BF10BD5C
:1021800010B500BF00BF00BF0020FFF72BF800BF55
:1021900010BD10B500BF00BF00BF0020FFF72EF834
:1021A00000BF10BD10B500BF00BF00BF0020FFF78B
:1021B00029F800BF10BD10B500BF00BF0020FFF719
:1021C00019F800BF00BF10BD4FF0FF3101600021C2
:1021D00041608160C160002202614261704700007D
:1021E00000BF02494968816070470000001000E0AC
:1021F00070B5044600BF05484068054604482946B6
:102200008268204601F032F970BD0000001000E045
:10221000A00C00202DE9F04F89B005468846914674
:102220001E46DDF848A000BF00BF00BF00BF00BFD2
:1022300000BF05EB0807AB46A7F16000089000BFA0
:1022400000BF1C22174901A8FEF73CF9029503972D
:10225000CDF810900596CDF818A001A9089800F0C7
:102260005FF8044600BFA4F12400E060E068066067
:10227000E068C0F804A00C48E168086200BFFFF7FE
:1022800059FF216901F1280004F1240100F063F9EC
:1022900000212046FFF7B0FEFFF77BFF204609B084
:1022A000BDE8F08F744D00082102000810B5044607
:1022B000FFF740FF204600F001F810BD70B506465C
:1022C00000F028F80446666300BF00BF09E000BFC5
:1022D00000BF00BF00BFA06B0168A1630546FFF708
:1022E00083FE04F138000168814201D0012100E041
:1022F00000210029EBD1A07F28B9E06A18B904F1C8
:10230000240000F01EF90F20FFF718FE00BF00BFE9
:1023100070BD00000148C06870470000B00C00208C
:1023200070B504460D4600BF00BF00BF00BF68681F
:102330006061A868A061E868A060022020770020A2
:102340006077A86910B1A869206101E00C4820619C
:102350000020E062206304F13800006000BFE868FC
:1023600020650020E064A0640120A0772868206236
:1023700004F13C0000F0ECF800BF00BF204670BD47
:10238000B00C002010B50446FFF7D4FE204600F044
:1023900003F8FFF7FEFE10BD10B5044600BF00BFF6
:1023A00021460820FFF7EAFD10BD70B504460D4632
:1023B0002946204600F004F80646FFF715FE70BDDA
:1023C00070B504460D4600BF00BF00BF00BF00BF90
:1023D00000BF29462046FFF7A3FF044600BFA069BF
:1023E0002438E0602869E16808606869E16848604D
:1023F0000648E168086200BF216901F1280004F184
:10240000240100F0A8F8204670BD00002102000859
:1024100070B50446094D00BF00BF00BF00BF206873
:102420008068A168084421688860204600F05EF852
:1024300000202060401EA86070BD0000C00C00207D
:102440002DE9F04104460D4616461F46DFF81C8074
:1024500000BF00BF2761E660002060612A46214678
:10246000404602F02BFABDE8F0810000C00C0020CD
:1024700070B51D4CE068401CE06020460168814258
:1024800001D0012100E0002161B320688068401E76
:102490002168886022E02568284600F027F800209F
:1024A000286000BF00BF00BFFEF7A0FE00BF00BF56
:1024B00000BF2846D5E90321904700BF00BF00BFF9
:1024C0003020FEF793FE00BF00BF00BF686920B157
:1024D000294620466A6900F010F800BF206880682D
:1024E0000028D8D070BD0000C00C0020D0E9001238
:1024F0001160D0E900215160704710B5034618689B
:1025000004E000BF00BF8468121B00688468944226
:10251000F7D300BF8A6008600C6864684C604C6840
:102520002160416000BF8468A41A84604FF0FF34CA
:102530009C6010BD0146086802680A600A68516024
:102540007047D0E900121160D0E900215160704756
:10255000006040607047086042684A604A681160E5
:102560004160704700B9704726490988264A128899
:10257000114409B2234A118011464988234A12881E
:10258000114409B21F4A51801146C988891D09B2F8
:10259000D1801146B1F90610B1F5B47F05DB1146C3
:1025A000C988A1F5B47109B2D1801649B1F90010FA
:1025B000B1F5487F05DC1349B1F9001011F5487FEA
:1025C00005DA11490988494209B20F4A11800D49BB
:1025D000B1F90210B1F52F7F05DC0A49B1F90210FB
:1025E00011F52F7F05DA09490988494209B2074ADE
:1025F000118004490A6802604A68426009890181C1
:1026000000BFB0E7200C00204E000020500000204A
:10261000C8200A4908806FF09500488045F6C050F0
:1026200088800020C8804FF49670088119200449E2
:1026300008806FF01300034908807047200C0020C9
:102640004E00002050000020002001490870704713
:102650005A00002001480078704700005A0000200E
:1026600001490870704700005A000020002001490D
:10267000087070475A0000207047000008B50146F6
:1026800001EB8100034A02EB4000D0F80500009006
:1026900008BD00002A0C002008B501210C20FEF71F
:1026A0003DF902208DF8020048208DF80300032038
:1026B000ADF8000069460548FEF745F80220ADF880
:1026C000000069460248FEF73EF808BD000C0140D4
:1026D0000008014010B50446064A02EBC402918886
:1026E000044A52F83400FEF7B9F808B9012010BDC9
:1026F0000020FCE7E84A000870B500253DE005EB46
:1027000085001F4901EB40042846FFF7E3FF06461A
:102710000021A171E17121722078B04202D1002024
:10272000607014E06078401C6070607805280ED3FB
:10273000002060702670667126B1608020710121D2
:10274000A17104E00121E1710020608020712078F6
:1027500088B160884FF6FF71884202D26088401CC1
:102760006080207938B96088B0F5167F03D30120E6
:10277000207101212172681CC5B2032DBFDB70BD21
:102780002A0C002010200149086070471008014001
:102790001020014908607047140801402DE9F041FC
:1027A00004460CB9BDE8F081032000F0A7F8074605
:1027B000042000F0A3F840EA07218D10154909789C
:1027C000A1B1154909886E1AB6F5005F05DD1349F8
:1027D0000968491E114A11600BE016F5005F08DA1E
:1027E0000E490968491C0D4A116002E00121094A9D
:1027F000117009490D8025804FF461616943C1F36F
:102800008F3161800549096861600121217200BF33
:10281000C8E700006C000020640000206800002071
:1028200000B587B0012141F20400FEF777F80320DC
:102830008DF81A0010208DF81B00ADF8180006A9BD
:102840002948FDF780FF18208DF81B002020ADF8E7
:10285000180006A92448FDF776FF8020ADF818007F
:1028600006A92148FDF76FFF04208DF81B004020CA
:10287000ADF8180006A91C48FDF765FFFFF782FFB9
:102880001A48FEF7E1F801A8FEF736F90020ADF886
:1028900004004FF48270ADF806000020ADF8080087
:1028A0000220ADF80A000120ADF80C004002ADF89E
:1028B0000E001820ADF810000020ADF8120007201F
:1028C000ADF8140001A90948FEF7F8F801210748FE
:1028D000FEF7AEF800200649088006490860064960
:1028E000087007B000BD0000000801400030014042
:1028F00064000020680000206C00002070B50446D1
:10290000FFF746FF44F0800000F012F8002000F0CE
:102910000FF8054600BF80210448FEF7C1F80028E3
:10292000F9D1FFF72FFF284670BD000000300140AD
:1029300010B5044600BF02210A48FEF7B1F800288E
:10294000F9D021460748FEF7B7F800BF0121054836
:10295000FEF7A6F80028F9D00248FEF7AAF8C0B2A0
:1029600010BD0000003001402DE9F04707460E463B
:102970001446384601F0CCFE6579E806050E97F856
:1029800022002844C5B2102040EA2511384601F043
:102990006AFE05F00F01384601F065FEA07940F0AF
:1029A000B001384601F05FFE00BF94F80480D4F80F
:1029B00000904FEAC860010E4A46384601F05DFEBD
:1029C000701EC6B2002EF0D1384601F039FE01204B
:1029D000BDE8F08701B500E000BF0098411E0091FE
:1029E0000028F9D108BD000070B50446074800680A
:1029F0000749B0FBF1F0451C02E02846FFF7EAFF6B
:102A0000201EA4F10104F8D170BD000000000020D8
:102A1000C0C62D002DE9F04104460E4615461F465E
:102A2000A6F10900072849D2DFE800F0040B14489A
:102A30001E3242002249204601F00EFF0120BDE86F
:102A4000F081204601F0D8FE1E49204601F022FE0A
:102A50000120F4E70DB91C4800E01C48014620465F
:102A600001F018FE0120EAE745B91949204601F0B6
:102A700011FE2068807C84F8220007E0154920467A
:102A800001F008FE2068C07C84F822000120D6E70F
:102A9000204601F03DFE8121204601F0E4FD29465B
:102AA000204601F0D6FD204601F0CAFD0120C6E710
:102AB0003A4629462046FFF757FFC0E70020BEE709
:102AC000184B0008304B0008004B0008054B00086D
:102AD0000A4B0008114B00082DE9F04106460D464F
:102AE00014461F462C2D29D008DC282D0DD0292D69
:102AF0000ED02A2D17D02B2D32D11EE02D2D21D016
:102B00004C2D23D04D2D2BD125E000F02FF828E0BF
:102B100003E04FF47A70FFF767FF201EA4F1010174
:102B2000CCB2F6D11DE002E00A20FFF75DFF201EC7
:102B3000A4F10101CCB2F7D113E000BF0220FFF7EE
:102B400049FF0EE00520FFF74FFF0AE02146402035
:102B500000F02AF805E02146802000F025F800E08A
:102B600000BF00BF0120BDE8F081000008B50121D1
:102B70000820FDF7D3FEC020ADF8000003208DF83B
:102B8000020014208DF8030069460648FDF7DBFDBE
:102B90000121402000F008F80121802000F004F815
:102BA00008BD0000000C014011B1034A106002E0B2
:102BB000014A121D10607047100C014000B97047A7
:102BC000034902680A6042684A6000BFF7E70000F4
:102BD00052000020002003490880488088808871C6
:102BE000704700005200002000B585B0012144F27A
:102BF0000400FDF793FE4FF40070ADF810000320C1
:102C00008DF8120018208DF8130004A91748FDF75D
:102C10009AFD4FF48060ADF8100004208DF8130089
:102C200004A91248FDF78FFD6846FEF71DF94FF421
:102C3000E13000900020ADF80400ADF80600ADF8DA
:102C40000800ADF80C000C20ADF80A0069460848F1
:102C5000FEF79AF801210648FEF77CF800200549A6
:102C6000086001200449087005B000BD000801405B
:102C7000003801405C00002060000020014800781E
:102C8000704700006000002010B5044604B910BD74
:102C900003E0207800F016F8641C20780028F8D1B2
:102CA00000BF40210548FEF761F80028F9D004482C
:102CB0000068401C0249086000BFE8E70038014096
:102CC0005C00002010B504460848007800B910BD2B
:102CD00000BF80210648FEF749F80028F9D02146B8
:102CE0000348FEF7BDF800BFF1E7000060000020D8
:102CF00000380140006070470446FFF7BFFF40B155
:102D000005A0FFF7C1FF2046FFF7BEFF05A0FFF7B4
:102D1000BBFF00BFFEE700000D0A5B4641554C5467
:102D20005D2000000D0A000010B5FFF79FFCFFF7C3
:102D3000A3FC00F063FA00F0E8F800F01FF800F0E0
:102D400063FA00F02DF810BD3EB5044604B93EBD4F
:102D50006846FFF723FDBDF800002080BDF80200A3
:102D6000608001986060002020819DF80800A072BA
:102D700000BFECE710B5FFF753FD10BD10B5FFF72E
:102D800063FC0020FFF76CFC10BD10B5FFF762FC80
:102D900010BD10B504462046FFF762FC10BD0000D0
:102DA00010B5FFF779FC0020044908700449087049
:102DB000044908700449087010BD0000410000205B
:102DC0004A0000204B0000204C00002010B5FFF707
:102DD000AAF90E48007808B9002413E00C480D4900
:102DE0000978445C0B480078401C0A490870084682
:102DF0000078082801D30020087004480078401E9D
:102E000002490870FFF7B3F9204610BD4C000020BE
:102E1000420000204A00002018B10D490978082915
:102E200000D370470B490C4A127888540A49097834
:102E3000491C094A117011460978082901D300215B
:102E4000117003490978491C014A117000BFE8E775
:102E50004C000020420000204B00002008B500205C
:102E6000044B82224FF4087100900348FFF7D2F917
:102E700008BD000085080008000A00200EB5FFF715
:102E80003BFC0020FFF7FAFB02900120FFF7F6FB66
:102E900001900220FFF7F2FB00909DF8030020B1A3
:102EA00001200E49087004200EBD9DF8090008B1EC
:102EB0000120F9E79DF8050008B10220F4E79DF82C
:102EC000020040B10548007818B10020034908709D
:102ED000EAE70320E8E70020E6E7000041000020E1
:102EE0001CB5044604B91CBD2088ADF800006088FC
:102EF000ADF80200A088ADF80400A0798DF80600B6
:102F00006846FFF75BFE00BFEDE710B5FFF762FE16
:102F100010BD000070B505460C46224629460C48F7
:102F200000F0E7FB621C691C094800F0E2FBA21CF0
:102F3000A91C074800F0DDFBE21C691C044800F0F6
:102F4000D8FB221D2946024800F0D3FB70BD0000CB
:102F500060090020F8B505462E46032E00D9032649
:102F600000240CE00220009004EB440000F1360144
:102F700002231A46034800F0B3FA601CC4B2B442FC
:102F8000F0DBF8BD600900202DE9F84F07468846C0
:102F900014461D46DDF82890082000EBC700C6B295
:102FA0004FF0020AB9F1000F0CD008203C23324642
:102FB00000210090154800F093FA0021134800F01A
:102FC00025FC03E00121114800F020FC2DB143460F
:102FD000F21D02210D4800F0AFFB012D09D144B1D3
:102FE000207830B12346F21D2221084800F0A4FBCE
:102FF00006E0022D04D1701CC1B23720FFF78AFF12
:103000000121024800F002FCBDE8F88F60090020B1
:10301000F8B506460C46032C00D8F8BD172003234C
:1030200009223D2100900E4800F07FFA1720B0FBE6
:10303000F4F5062D00D20625C5F1150080B27043C7
:10304000E11E89B290FBF1F00A30C7B201233A4683
:103050003E210348009500F043FA00BFDDE7000081
:103060006009002010B5104B104A1149114800F0BA
:103070002DFC78200F4981F82400084601F029FA38
:1030800000210C4801F037FA0B490A4800F0C6FB52
:103090000121084800F0D2FB064800F011FA012097
:1030A0000649087010BD0000D92A0008D345000861
:1030B000444E0008600900208C4E000840000020AB
:1030C000F8B504463448007810B10CB1206800B956
:1030D000F8BD324800F042FB00BF08204023002228
:1030E000114600902D4800F0FBF900212B4800F01C
:1030F0008DFB94F82A0060B129A3072201212748FB
:1031000000F01AFB072211462448236800F014FB44
:1031100005E0072201212148236800F00DFB94F807
:103120002900FFF717FF01211C4800F06FFB002565
:1031300022E005EB4501201D50F8216005EB45011B
:1031400000EB8100476806B107B913E094F8280046
:10315000A84201D1012000E0002005EB45010090CC
:10316000201D00EB8100037A3A4631462846FFF7DE
:103170000BFF00BF681CC5B2032DDAD394F82C10E6
:1031800094F82B00FFF744FF044800F011FB0028DF
:10319000A3D100BF9CE70000400000206009002090
:1031A0003C00000010B586B004460CB906B010BD56
:1031B00003A8FFF7D7F96846FFF7C6FDBDF80C0076
:1031C0002080BDF80E006080BDF81000A080BDF822
:1031D00002000A21B0FBF1F000B2E080BDF8080067
:1031E0002081BDF8020060810198E060BDF8000018
:1031F00020829DF80A00A07400BFD7E710B5FFF742
:1032000007FAFFF7B7FD10BD10B5FFF7EDFC10BDD5
:1032100010B504462046FFF737FD10BD10B5044633
:1032200000224C21204601F021FB10BD10B50446C0
:1032300000224D21204601F019FB10BD10B50446B7
:103240002068427B2D21204601F010FB10BD10B5F7
:10325000044601224C21204601F008FB01224D21A9
:10326000204601F003FB2046FFF7E8FF10BD10B534
:103270000446204600F01BF82046FFF7DFFF2046FB
:1032800000F00AF8204600F012F82046FFF7D6FFBB
:103290002046FFF7C3FF10BD10B5044601224C21A4
:1032A000204601F0E3FA2046FFF7C8FF10BD10B535
:1032B000044601224D21204601F0D8FA10BD10B578
:1032C000044694F8250040B12046FFF7F0FF204661
:1032D000FFF7B4FF2046FFF7DFFF2046FFF7E7FFC9
:1032E0002046FFF7A3FF2046FFF7A8FF2046FFF781
:1032F00095FF012084F8250010BD10B50446204636
:10330000FFF794FF2046FFF799FF2046FFF7C4FF21
:103310002046FFF7CCFF2046FFF790FF002084F8FF
:10332000250010BD70B505460C461CB12846FFF7B8
:10333000BEFF02E02846FFF779FF2846FFF77EFF31
:103340002846FFF7A9FF2846FFF768FF70BD70B554
:1033500005460C4604F080012846FFF7E3FF04F021
:1033600040012846FFF7DEFF04F020012846FFF762
:10337000D9FF04F010012846FFF7D4FF04F008013C
:103380002846FFF7CFFF04F004012846FFF7CAFFE5
:1033900004F002012846FFF7C5FF04F001012846AA
:1033A000FFF7C0FF2846FFF762FF70BD10B5FDF7BD
:1033B0004FFCFFF729FF05A0FFF72AFF09A0FFF741
:1033C00027FFFEF7E9F8002010BD00000D0A5B4260
:1033D0004F4F545D206D61696E20656E7465726536
:1033E000640D0A005B424F4F545D2073797374651E
:1033F0006D20636C6F636B20757064617465640D20
:103400000A00000010B5044600BF3020FDF7E6FEBC
:1034100062B600BF03200246114B19684FF6FF0346
:103420001940104B0B4343EA02210D4B196000BFBA
:103430000B48F030006840F080700949F0310860B6
:103440000948006840F00100074908600221C81FD0
:10345000FDF740FA0321481FFDF73CFA10BD0000BC
:103460000CED00E00000FA05001000E070B5C36844
:103470005B1CC3608368CB1A9B1A8360D0E904632A
:103480008468341943F10003C0E90443D0E90143DF
:10349000A34201D98368436004688368A34201D2D0
:1034A0008368036070BD70B504462068057C94F89D
:1034B00038004543ED002946606BFDF735F870BDD7
:1034C00010B50446204600F049F900BF204600F040
:1034D0006FF90028FAD10021204600F089F910BDCB
:1034E0002DE9F84380460E4614461F46089D601994
:1034F00080B20090F01983B222463146404600F077
:103500003AF908B9BDE8F8830BE000203B462246B3
:1035100031460090404600F07EF8601C84B2681E80
:1035200085B2002DF1D100BFECE72DE9F8438146CB
:103530000D4616461F46089CA846301980B20090DA
:10354000E81983B232462946484600F014F908B912
:10355000BDE8F88300203B463246294600904846A5
:1035600000F059F8022C23DBA01E84B2701C86B236
:10357000002C15DD0120234632462946009048469E
:1035800000F049F8E81985B2681E85B2012023468B
:10359000324629460090484600F03DF8301986B280
:1035A00000203B46324641460090484600F033F842
:1035B00000BFCDE72DE9F04104460D4616461F46F3
:1035C0007020005D30B101280AD002280ED00328F7
:1035D00018D111E02046E16D8847304486B211E0F1
:1035E0002046E16D8847281A85B20BE02046E16D40
:1035F0008847301A86B205E02046E16D88472844A6
:1036000085B200BF00BF3B4632462946204600F047
:10361000C0FCBDE8F0817FB582B004460A9D94F8F5
:103620008C00002863D0BDF8140000285FD0BDF8DE
:10363000140001281CDD022D0CD1BDF80C00BDF8D2
:103640001410401A80B20390BDF80C00401C80B2E8
:1036500003900DE0032D0BD1BDF81000BDF8141040
:10366000401A80B20490BDF81000401C80B2049053
:1036700005F00105C5B9B4F84C00BDF8101088423A
:1036800001DD06B070BDB4F84E00BDF810108842E0
:1036900000DCF6E7B4F84A30B4F8482005A903A8DE
:1036A00000F0E1F9C0B9ECE7B4F84800BDF80C103F
:1036B000884200DDE5E7B4F84A00BDF80C10884206
:1036C00000DCDEE7B4F84E30B4F84C2005A904A8BD
:1036D00000F0C9F900B9D4E70095206BBDF81430AB
:1036E000BDF81020BDF80C1086682046B04700BF1A
:1036F000C7E7F8B504460D461646B4F84C00B0428C
:1037000000DDF8BDB4F84E00B04200DCF9E7B4F8D3
:103710004800A84200DDF4E7B4F84A00A84200DC03
:10372000EFE7002001233246294600902046FFF7AC
:1037300072FF00BFE5E700002DE9F04104460D46A9
:1037400016461F46044860603B46324629462046DE
:1037500000F088FABDE8F0817345000810B5044612
:1037600094F8930010B12046FFF79DFE00212046FB
:1037700000F03EF810BD2DE9F04104460D46164616
:103780001F46DDF81880B4F84E10B4F84C004346DC
:10379000324600F094FC10B90020BDE8F081B4F886
:1037A0004A10B4F848003B462A4600F088FCF4E78B
:1037B00070B50446204600F089FD94F8395094F81D
:1037C00038002844C5B22068407CA84204DC20466A
:1037D00000F088FE002070BD94F8930010B12046E0
:1037E000FFF761FE2946204600F002F80120F2E7CB
:1037F00070B504460D4684F83950206B01682046A8
:103800008847206B41682046884770BD80F8921039
:10381000032902DB012280F89220704770B504462C
:103820000D46A06DA84208D0A565294604F1740094
:1038300000F0DCFC204600F06BF870BD6D221154E6
:10384000704700000149C16570470000F53C000861
:1038500010B50446002030342084A0844FF6FF7059
:103860006084E08454F8300941682046884710BDE0
:103870002DE9F04104460D4616461F46DDF8188036
:103880000020A065E762656384F8386084F8390039
:1038900000216D200155002074346077607601208E
:1038A000A077E07744F8448C54F8440C743C0168E9
:1038B000204688472046FFF7CBFF2046FFF7C2FF90
:1038C000002170200155BDE8F08100002DE9FC4188
:1038D00007460C4615461E462B460A4A0A493846F4
:1038E000009600F012FE01A800F078FC8046074B1D
:1038F00000949DF8042041463846FFF7B9FFBDE823
:10390000FC81000025470008152A0008EF40000848
:10391000816D01B970478121095C80F88E10822188
:10392000095C80F88F1090F88D1099B390F88D1085
:10393000012914D190F98E2090F983108A4203DA7C
:103940008321095C80F88E1090F98F2090F9841003
:103950008A421FDD8421095C80F88F101AE090F9FB
:103960007E2090F98010114490F98E20914207DD5D
:103970007E210A5C8021095C114449B280F88E10D6
:1039800090F98F2090F980108A4203DD8021095C34
:1039900080F88F1000BFBDE710B523B1012B05D013
:1039A000022B09D105E04418A0B208E0841AA0B2A5
:1039B00005E0441AA0B202E08418A0B200BF00BF24
:1039C00010BD10B523B1012B05D0022B09D105E0A4
:1039D0008418A0B208E04418A0B205E0841AA0B28E
:1039E00002E0441AA0B200BF00BF10BD38B50446C3
:1039F0005034E08800906388A28834F8501920463B
:103A0000FFF7B9FE18B9002084F88C002AE00120E5
:103A100084F88C00B4F84800B4F85010884203DAF7
:103A2000B4F85000A4F84800B4F84A00B4F85210B2
:103A3000884203DDB4F85200A4F84A00B4F84C0000
:103A4000B4F85410884203DAB4F85400A4F84C00D7
:103A5000B4F84E00B4F85610884203DDB4F85600AE
:103A6000A4F84E0038BD70B505460E4614462988A8
:103A70000A463088104482B2914206DD994203DA48
:103A80001A46501E82B200E02146994201DB002016
:103A900070BDA24201DC0020FAE7A14200DA214613
:103AA0009A4200DD1A462980501A82B232800120E3
:103AB000EEE72DE9F84304460E4615461F46DDF8AD
:103AC0002080E08F281A85B2CDF800803B462A4638
:103AD00031462046D4F82CC0E047BDE8F8832DE9F4
:103AE000F84305460E4691461F46DDF82080B5F89E
:103AF0004440A01B84B208F0010010B9E01B84B25E
:103B000001E0601E84B23B464A4621462846CDF875
:103B10000080FFF7CEFFBDE8F8832DE9F8430446A7
:103B20000D4616461F46DDF820803B4632462946A4
:103B30002046CDF80080FFF7BCFFBDE8F8832DE9F3
:103B4000F84F06460F46904699460A9DBA46B6F883
:103B50004640A4EB080084B2601E84B2681CC5B263
:103B6000022D05D1A4EB090084B2601C84B20025AB
:103B70004B465246214630460095FFF79AFFBDE876
:103B8000F88F2DE9F84F0646894692461F46DDF824
:103B90002880B6F84650A5EB0A0085B2B6F8444036
:103BA000A4EB090084B2B8F1000F04D1681E85B2FD
:103BB000E01B84B206E0B8F1010F03D1601E84B2AD
:103BC000E81B85B23B462A4621463046CDF80080A8
:103BD000FFF76FFFBDE8F88F2DE9F84F05460E4659
:103BE00017469846DDF82890BA46B5F84440A01B21
:103BF00084B2B9F1000F09D1601E84B2A4EB0800B1
:103C000084B2601C84B24FF0010903E0601E84B2EC
:103C10004FF000094346224651462846CDF8009011
:103C2000FFF747FFBDE8F88F2DE9F84305468946C1
:103C300016461F46DDF82080B5F84640A01B84B22A
:103C400008F0010010B1E01B84B201E0601E84B2F4
:103C50003B46224649462846CDF80080FFF729FF1B
:103C6000BDE8F8832DE9F04706460F469046994691
:103C7000304600F01FFE4FF0000A00BF99F8001018
:103C800030467268904705464FF6FF718D4200D16D
:103C90002CE009F101094FF6FE708542EED02B466B
:103CA000424639463046FFF785FC04467020805D69
:103CB00030B1012807D002280AD0032810D10AE029
:103CC000381987B20CE008EB04001FFA80F807E00F
:103CD000381B87B204E0A8EB04001FFA80F800BF8D
:103CE00000BF0AEB04001FFA80FAC7E700BF504686
:103CF000BDE8F087014600207047F0B507460C4646
:103D00002146384600F00BF845B20126601EC4B2C9
:103D100006FA04F046B2A81B45B22846F0BD70B5BD
:103D200002460C46117B1568287808410B461D1980
:103D3000EBB2082B0EDB08256E1AF5B21668761C5E
:103D4000166016683678AE400643F0B2A3F1080656
:103D5000F3B200BF0125A5406D1E2840137370BD4E
:103D60002DE9F34F85B0054605F160042846069914
:103D700000F085F995F96B607A20415D2046FFF7E8
:103D8000BCFF02907B20415D2046FFF7B6FF8346D3
:103D90007C20415D2046FFF7B0FF019094F90A00B6
:103DA000002871DD237C06EB0B0149424AB2A08852
:103DB0000299FFF7F1FDA080237C06EB0B0149423D
:103DC0004AB2E0880299FFF7FCFDE080A788B4F8CA
:103DD0000680B946C246207C30B101280ED00228A8
:103DE0001AD0032842D12EE094F90A0048441FFA61
:103DF00080F90AEB06001FFA80FA37E0B81B87B299
:103E0000781C87B209F101001FFA80F994F90A00C1
:103E100050441FFA80FA29E094F90A00381A87B250
:103E2000781C87B209F101001FFA80F9A8EB06009F
:103E30001FFA80F808F101001FFA80F80AF101006A
:103E40001FFA80FA12E009EB06001FFA80F994F9D4
:103E50000A00A8EB00001FFA80F808F101001FFA21
:103E600080F80AF101001FFA80FA00BF00BF4B463C
:103E7000424639462846CDF800A0FFF77CFC20B921
:103E8000019807B0BDE8F08F29E000202072607231
:103E900000BF7620415D2046FFF741FF0490772068
:103EA000415D2046FFF73BFF039000BF00222846FC
:103EB000049900F016F801222846039900F011F841
:103EC00001212046FFF72BFF0028EFD194F90900CC
:103ED000B042DEDB00BF00BFA07B85F892000198F6
:103EE000CFE72DE9FF5F80468A46934608F16004DC
:103EF0005546277A94F8099000BFA67AF01BC6B2FF
:103F00000396B54200DA0395A0880290E0880190FC
:103F1000237C4FFA89F279B20298FFF73DFD0290B7
:103F2000237C4FFA89F279B20198FFF74AFD01909C
:103F3000BBF1000F0BD0A07B88F89200207C009092
:103F40004046DDE90213019AFFF765FB0CE0607B58
:103F500050B9E07B88F89200207C00904046DDE973
:103F60000213019AFFF757FBB54200DA07E0A81BDE
:103F7000C5B2002709F1010000F0FF09BDE700BF4D
:103F80007819C7B278B220724FFA89F06072BDE832
:103F9000FF9F2DE9F04704460D4616461F464FF099
:103FA000000964200553662006533946204600F078
:103FB00011F88046B8F1000F05D041462046FFF7C2
:103FC000CFFE1FFA80F94846BDE8F08702460A4452
:103FD000107870472DE9F04107460D46BC6D173447
:103FE000FF2D18DC612D03DB8820C05B044404E056
:103FF000412D02DB8620C05B044400BF607800B91D
:1040000008E02078A84202D1A01CBDE8F0816078C9
:104010000444F3E725E08A20C05B0444A04600BFC7
:104020000021404600F01FF804440221404600F001
:104030001AF8064608F10408AE42F1DB00BF267804
:104040004FF6FF7000EA06266078064306B906E0E0
:10405000AE4201D1E01CD8E7A0780444EFE700BFEE
:1040600000BF0020D1E702460A441078521C4FF6E8
:10407000FF7303EA00201378034498B2704770B5C9
:1040800005460E4605F16004266000202073782066
:10409000415D2046FFF743FE40B2A0727920415DAA
:1040A0002046FFF73CFE40B2E07295F89200A07304
:1040B000A07B08B9012000E00020E07370BD10B5BE
:1040C00004468A4209DAA34201DD012010BD9A426A
:1040D00001DD0120FAE70020F8E7A34205DD9A425E
:1040E00001DD0120F2E70020F0E70020EEE72DE9F6
:1040F000F04704468946DDF82080D1B201F007017F
:10410000012606FA01FA0AF0FF060027BC4694F8D9
:1041100092A0BAF1010F00DC374694F892A0BAF1F0
:10412000010F00D0B446154625F00705D4F800A0CD
:104130009AF810A00AFB05FA1FFA8AF5606B28446A
:104140004844B8F1000F14D100BF90F800A04AEA2B
:10415000070A80F800A090F800A08AEA0C0A80F80C
:1041600000A0401CA3F1010A1FFA8AF3002BECD136
:1041700032E000BF90F800A04AEA070A80F800A0E9
:1041800090F800A08AEA0C0A80F800A001F1010A68
:104190000AF0FF0101F00701A3F1010A1FFA8AF3F7
:1041A00081B9B4F83AA0504494F892A0BAF1010F42
:1041B00000DC012794F892A0BAF1010F0AD04FF069
:1041C000010C07E04FEA476A4FEA1A674FEA4C6A68
:1041D0004FEA1A6C002BCDD1BDE8F08701460120D3
:1041E0000870014870470000480C002070B5044674
:1041F0000D4600212846FFF7E9FE207001212846E0
:10420000FFF7E4FE607002212846FFF7DFFEA07092
:1042100003212846FFF7DAFEE07004212846FFF765
:10422000D5FE207105212846FFF7D0FE60710621DA
:104230002846FFF7CBFEA07107212846FFF7C6FEF0
:10424000E07108212846FFF7C1FE207209212846A7
:10425000FFF7BCFE40B260720A212846FFF7B6FEA7
:1042600040B2A0720B212846FFF7B0FE40B2E072C8
:104270000C212846FFF7AAFE40B220730D212846E4
:10428000FFF7A4FE40B260730E212846FFF79EFEA2
:1042900040B2A0730F212846FFF798FE40B2E073AA
:1042A00010212846FFF792FE40B2207411212846C3
:1042B000FFF7D9FE608213212846FFF7D4FEA082C3
:1042C00015212846FFF7CFFEE08270BD2DE9F041B1
:1042D0000446002594F8387094F83960206890F806
:1042E000118000BF32462946204600F00AF8681CBB
:1042F000C5B2701CC6B2BD4201DA4645F2DBBDE86C
:10430000F0812DE9F84305460E469146286890F85D
:10431000108034466F6B04FB08F084B24FF6FF70D8
:1043200000EAC404274443464A4600212846009731
:1043300000F0B6F8BDE8F88310B51A3050F81A2C22
:10434000817F4FF6FF7303EAC1014184117C03EAC8
:10435000C1010184C17F03EAC1018184817FC37FE0
:104360001A380B44547CA34204DD537C90F8394046
:104370001B1B99B24FF6FF7303EAC10130F83E3FB1
:1043800043804388838083880B448380938AC380DF
:10439000D38A03813E3810BD10B504462046FFF78E
:1043A000CBFF10BD10B504462046FFF7C5FF2068BF
:1043B000808AA4F846002068C08AA4F8440010BD92
:1043C00010B504462046FFF7B7FF10BD10B50446F0
:1043D0002046FFF7B1FF2068808AA4F846002068D5
:1043E000C08AA4F8440010BD10B504460020403433
:1043F0002081A08860812088A0816088E081403C85
:104400002046FFF7F3FA10BD10B5044634F8400F0C
:104410002081608860810020A081E088E081403CAC
:104420002046FFF7E3FA10BD10B5044600204234E1
:10443000E0806088208100206081A08834F84219E3
:10444000884205DB4234A0882188401A6081423CC2
:104450004034E0882188401AE081403C2046FFF744
:10446000C5FA10BD10B5044600204234E0806088D3
:1044700034F84219884205DB423460882188401AAA
:10448000E080423C4034A0882188401A60810020AE
:10449000A081E088E081403C2046FFF7A7FA10BDEC
:1044A0002DE9FC4104460D4616461F46DDF82080E6
:1044B0008DF805508DF806608DF80470CDF80080F9
:1044C0006B4601220F212046D4F808C0E047BDE822
:1044D000FC8170B5044600231A460A212046A568CF
:1044E000A84770BD70B5044600231A461021204627
:1044F000A568A84770BD70B504460D4600232A463E
:104500000B212046A668B04770BD2DE9F041044656
:104510000D4617461E46DDF81880204600F00AF8C2
:10452000A560E7602661C4F81480204600F018F802
:10453000BDE8F0810021016008498160C16001612E
:104540004161002180F8231080F826108161FF214D
:1045500080F8241080F82810704700006548000893
:1045600070B5044600231A4609212046A568A847CD
:1045700070BD024609B10A2902D14FF6FF7070479B
:104580000846FCE770B5044600231A461921204668
:104590002569A84770BD13B5044601AA012120462C
:1045A00000F001F81CBD2DE9F04104460D46164609
:1045B00033462A46172120462769B847BDE8F081CF
:1045C00070B5044600231A46182120462569A847DD
:1045D00070BD2DE9F04106460F4614469846182F47
:1045E0001BD004DC142F13D0172F23D104E0192F74
:1045F0001CD0202F1ED10FE0454606E0297830461A
:10460000FEF7A5FE6D1C601EC4B2002CF6DC14E0A3
:104610003046FEF71CFE10E00FE03046FEF74FFE7E
:1046200096F824103046FEF792FE06E03046FEF77C
:1046300064FE02E00020BDE8F08100BF0120FAE73F
:1046400070B5044600231A4619212046E568A8479C
:1046500070BD70B504460D4600232A46162120463B
:10466000E668B04770BD70B504460D4600232A4683
:1046700015212046E668B04770BD2DE9F04104469B
:104680000D46164633462A4617212046E768B847A6
:10469000BDE8F081F8B505460C4600BF2678641CDD
:1046A000182E21D006DC152E09D0162E08D0172E74
:1046B0002CD110E0192E18D0FE2E27D11CE000BFFF
:1046C0002078009000239DF8002031462846EF68AE
:1046D000B847641C1BE0207800906A4601212846F8
:1046E000FFF7CBFF641C12E000BF00231A463146DF
:1046F0002846EF68B8470AE0207800909DF800202F
:104700002921284600F0B2F8641C00E0F8BDC5E796
:1047100070B5044600231A4618212046E568A847CC
:1047200070BD00002DE9F04104460F46154698463D
:10473000A7F11400062858D2DFE800F03903181D4D
:10474000494D2C48007810B12046FFF71BFF20464A
:10475000FFF736FF00212046FFF71DFF29462046C0
:10476000FFF719FF01202349087040E02946204641
:10477000FFF711FF3BE01F48007810B12046FFF71C
:1047800001FF464608E032461821204600F07BF83B
:10479000A5F11800C5B21836182DF4DC32462946AA
:1047A000204600F070F80020124908701FE094F8CD
:1047B0002400FF2802D1782084F8240043462A46AA
:1047C00039462046D4F810C0E047BDE8F08100200B
:1047D000084908700BE00748007810B12046FFF741
:1047E000D1FE00200349087001E00020EDE700BF82
:1047F0000120EAE77800002070B5044600231A463D
:10480000282120466569A84700231A46142120461E
:10481000E568A84701224B21204600F027F82068D0
:1048200002792921204600F021F800224B21204660
:1048300000F01CF8206802792921204600F016F8C3
:1048400001224B21204600F011F8206842792921ED
:10485000204600F00BF870BD01600268927C80F881
:104860002220704710B50446002010BD2DE9F0410C
:1048700004460D46164600233246294620466769FF
:10488000B847BDE8F0812DE9F04104460D461646D3
:104890002046FFF795FE40212046FFF77CFE334679
:1048A0002A46172120462769B8472046FFF76AFEA7
:1048B000BDE8F081002180F8261070472DE9F04115
:1048C00005460E46144627463A4631462846FDF729
:1048D00014FEBDE8F0810000885200082053000853
:1048E000944A000800000000D45200082053000839
:1048F000A04A000800000000905200082053000861
:10490000AC4A000800000000805200082053000854
:10491000000000000000000064520008205300085E
:1049200000000000010100004C5200082053000864
:10493000B84A000800000000DC52000820530008BC
:10494000C44A000800000000F4520008BC520008ED
:1049500000000000000000007C5200082053000806
:104960000000000000020000AC52000820530008C4
:10497000000000000003000004530008205300085A
:10498000000000000004000044520008205300080A
:104990000000000000000000185300082053000829
:1049A000D04A000800000000985200082053000878
:1049B000DC4A000800000000B45200082053000840
:1049C0000000000000000000EC5200082053000826
:1049D00000000000000000003852000820530008CA
:1049E0000000000000000000A05200082053000852
:1049F000000000000000000008530008EC5100080F
:104A0000000000000000000010530008EC510008F6
:104A10000000000000000000CC520008EC5100082B
:104A200000000000000000006C520008C4520008A2
:104A30000000000000000000E4520008405200089E
:104A40000000000000000000FC5200085C5200085A
:104A5000000000000000000030520008245200084E
:104A6000000000000000000074520008045200081A
:104A7000000000000000000054520008F05100083F
:104A80000000000000000000FC510008D8480008A9
:104A9000040000000C52000818490008040000003F
:104AA0002052000858490008040000002C52000859
:104AB0009849000803000000F4510008C8490008A4
:104AC0000300000014520008F84900080300000029
:104AD00028520008284A0008030000001852000865
:104AE000584A000803000000000C014001000000CB
:104AF000000C01400200000000080140020000001C
:104B00001815AF19FF1815AE19FF1815A115C819FA
:104B1000FF1815A015C019FF0001140A6464323291
:104B200000127A000004289608042020400020008B
:104B30001815AE15D5168015A8161F15D316001515
:104B40004015A115C815DA1612158116CF15D916FC
:104B5000F115DB163015A415A6158D161419FF00D6
:104B6000245300081013002010130020A00D002073
:104B7000A00E00206368537973556E6C6F636B00F1
:104B8000636853797347657449646C6554687265EA
:104B900061645800636853667456616C696461743B
:104BA0006544617461506F696E7465725800636822
:104BB0005F7071756575655F696E736572745F624C
:104BC0006568696E640063685F7071756575655FBF
:104BD000696E736572745F6168656164005F5F73BD
:104BE00063685F72656164795F626568696E6400BD
:104BF0005F5F7363685F72656164795F6168656157
:104C0000640063685363685265616479490063684E
:104C1000536368476F536C656570530063685363F3
:104C20006857616B65757053000000006368496EDA
:104C30007374616E63654F626A656374496E69740B
:104C400000000000305300080000000000000000D9
:104C500080000000000000000000000000000000D4
:104C600028530008000000000000000001000000C0
:104C700059100008000000000000000063685F6C2D
:104C80006973745F756E6C696E6B0063685F7175D4
:104C90006575655F6669666F5F72656D6F766500E5
:104CA0006368537973556E6C6F636B006368546807
:104CB00064536C65657053006368546864446F4462
:104CC0006571756575654E657874490063685468EB
:104CD000644F626A656374496E69740063685468FE
:104CE000644F626A656374446973706F73650063CF
:104CF00068546864537061776E53757370656E6441
:104D0000656449006368546864537061776E5375D5
:104D10007370656E646564006368546864537061A1
:104D2000776E52756E6E696E67006368546864438F
:104D3000726561746553757370656E64656449006E
:104D40006368546864437265617465537573706514
:104D50006E64656400636854686443726561746579
:104D60000063685468644372656174655374617468
:104D700069630000385300080000000000000000D4
:104D8000000000000000000000000000B00C002047
:104D9000636854686453746172740063685468642F
:104DA00041646452656600636854686452656C656A
:104DB000617365006368546864457869745300637F
:104DC0006854686457616974006368546864536523
:104DD000745072696F7269747900636854686453BF
:104DE000757370656E6453006368546864537573BB
:104DF00070656E6454696D656F75745300636854B3
:104E00006864526573756D654900636854686452DF
:104E10006573756D65530063685468645175657595
:104E2000654F626A656374496E69740063685468AB
:104E30006451756575654F626A6563744469737022
:104E40006F73650099430008E94300081B3B0008A5
:104E5000A5430008094400083F3B0008C14300087F
:104E600029440008833B0008CD430008654400083E
:104E7000D93B000899430008E9430008DF3A0008DD
:104E800099430008E9430008293C00085F0002023A
:104E90000304030404050800FF06FF0600011A02CC
:104EA00031032F2005007E03210731633352002296
:104EB000079B6E93AC00230D3D6257A634543554C6
:104EC000991200240A3D629B57BD53DA112508ABA5
:104ED0006613536700260A3C621753B36AA600277D
:104EE00005196F332807B262A79A012908B2621325
:104EF00053A5002A0A2C6213931A49C5002B0A2DC8
:104F0000629B511C32A3082C079B5EA74A002D060A
:104F10000C6A33022E079B5E9756022F0834625F9D
:104F2000B633003008B36257B92A003107B362972D
:104F3000646B320A3462A7624E2A8F00330A3462ED
:104F40003362D4482605340A34621B5535624E005C
:104F5000350A346233F446322900360A3462A7F245
:104F60008A322900370A34623372CC314700380A5A
:104F70003462A76252512605390A3462A7A24C3B1B
:104F800029003A07AA6233E2083B08B35E6723555B
:104F9000023C07B3629BCA5C3D081C6633321A01AF
:104FA0003E08B36293CB54023F09B362D74C192633
:104FB00000400C455E2BA35C49255943054109344B
:104FC00062A7A21C5306420A3462B3E248518E041F
:104FD00043093462A7A22E930244093462B3A27338
:104FE00024004509346233F4CA7904460934623333
:104FF000F4CA3500470A3462A7A24E332900480993
:10500000346213E59866004907B362B3626B4A09DC
:10501000346237735546004B093462135592A933F5
:105020004C08346293BB47004D09346213C711CD5D
:10503000004E09346213D75867004F093462A7A2A3
:10504000332900500A3462B3A21C29670051093C7D
:105050005EA7A25C6E14520A3462B3A21C29CA0075
:10506000530A3462A762CAA84C0A5408B362B362F6
:10507000170055083462133D930256093462139D9C
:10508000492A005709346213CD71C400580A3462AA
:105090001365922ACA00590B35629375AA33CA2840
:1050A000025A09346233726C8F005B07B362336259
:1050B000735C0A34629333CA28A31C5D07B362335E
:1050C0009B235E069372D7005F060C5E3302600678
:1050D000927213036108246237A24C03620A34629D
:1050E00093F38A7224006307A36237B30064093420
:1050F000625F8D28D30065082462A7D2C80A6609BA
:1051000034625B9533470067092C5EA762DA490178
:105110006809346293F38A66006908B3629791ACB8
:10512000066A09BB5E9B61A92A006B09346293CBB6
:1051300091A20C6C07B36223BB066D092562A35ACA
:105140002AA9026E072462B3A2196F082462A7A2DB
:105150004C0A70092C5EB3E248390371082C5E37A3
:1051600062DA057208246293929D017307A3623785
:10517000F202740A346297E3CC2926007507246290
:1051800013CD347607A36293AC0A77092562935551
:10519000525D007808246213935431790A2C5E130F
:1051A000651A3129007A082462336239027B0B3C8C
:1051B00062AB324A1AC58C047C053163737D0C3CAA
:1051C00062A351CC48659424007E07147297540260
:1051D00000000004FFFF00000400000800000000C1
:1051E0000000000200010000100000002D2D000052
:1051F000303100004D4F444500000000484F4D4500
:10520000000000003131354B000000004354524C87
:10521000000000004C494D00434F4D4D0000000080
:105220004D4F4E004F4E0000445350005359530011
:105230005541525400000000537065656400000041
:105240004D69640054726163650000004D6F6465D0
:10525000000000004E6F6465000000005472656538
:1052600000000000456E61626C6500005468656D69
:10527000650000005261746500000000446567002D
:105280004465627567000000436F6E74726F6C0056
:1052900053797374656D0000436F6D6D00000000FD
:1052A000506F736974696F6E000000005475726E00
:1052B00000000000496E666F0000000044656D6FDD
:1052C000000000004D6F6E6F0000000054656D70AF
:1052D000000000004D6F6E69746F72004C696D695B
:1052E00074730000427269676874000043757272DB
:1052F000656E740041737369737400004C61796F5B
:10530000757400005261770049204D6178000000FB
:1053100052504D204D617800446973706C61790082
:10532000000000006330000069646C65000000004C
:105330006D61696E000000006E6F6E616D6500004A
:1053400060530008000000208000000028010008D1
:10535000E053000880000020901C00004401000879
:1053600000A24A0400000000000000000102030443
:1053700006070809000000000102030401020304FB
:1053800006070809020406080100B00458020000DC
:10539000010000000000000000000000000000000C
:1053A00000000000000000000000000000000000FD
:1053B00000000000000000000000000000000000ED
:1053C00000000000000000000000000000000000DD
:1053D00000000000000000000000000000000000CD
:04000005080000ED02
:00000001FF
