:020000040800F2
:10000000701A0020A901000809050008E104000891
:10001000F504000849030008490A00080000000030
:100020000000000000000000000000002906000899
:10003000B503000800000000D101000831070008E6
:10004000D5010008D5010008D5010008D501000838
:10005000D5010008D5010008D5010008D501000828
:10006000D5010008D5010008D5010008D501000818
:10007000D5010008D5010008D5010008D501000808
:10008000D5010008D5010008D5010008D5010008F8
:10009000D5010008D5010008D5010008D5010008E8
:1000A000D5010008D5010008D5010008D5010008D8
:1000B000D5010008D5010008D5010008D5010008C8
:1000C000D5010008D5010008D5010008D5010008B8
:1000D000D5010008D5010008D5010008D5010008A8
:1000E000D5010008D5010008D501000800F002F88C
:1000F00000F03AF80AA090E8000C82448344AAF188
:100100000107DA4501D100F02FF8AFF2090EBAE885
:100110000F0013F0010F18BFFB1A43F0010318473B
:10012000C8450000E8450000103A24BF78C878C1EF
:10013000FAD8520724BF30C830C144BF04680C60ED
:10014000704700000023002400250026103A28BF35
:1001500078C1FBD8520728BF30C148BF0B60704739
:100160001FB51FBD10B510BDDFF80CD0FFF7F8FFAD
:1001700002F02EFB00F0D7F87014002003B4FFF754
:10018000F1FF03BC00F0D8F8EFF30980704780F36B
:1001900009887047EFF30880704780F3088870473C
:1001A00040BA7047C0BA704772B60E4880F30988EB
:1001B000022080F31488BFF36F8F0B4880470B48F1
:1001C0000047FEE7FEE7FEE7FEE7FEE7FEE7FEE7A5
:1001D000FEE7FEE7FEE7000005480649064A074B32
:1001E00070470000701400200D080008ED000008A2
:1001F0007014002070140020701600207010002071
:100200002DE9F04FC1F80CD0C3689D46BDE8F08FD2
:10021000002383F311882846A047002001F0E6FB65
:10022000FEE701F02FFA00DFFEE710B5203AC0F03C
:100230000B80B1E81850203AA0E81850B1E81850E7
:10024000A0E81850BFF4F5AF5FEA027C24BFB1E824
:100250001850A0E8185044BF18C918C0BDE8104095
:100260005FEA827C24BF51F8043B40F8043B08BF9E
:100270007047D20728BF31F8023B48BF11F8012B65
:1002800028BF20F8023B48BF00F8012B70474FF011
:1002900000020429C0F0128010F0030C00F01B8053
:1002A000CCF1040CBCF1020F18BF00F8012BA8BF61
:1002B00020F8022BA1EB0C0100F00DB85FEAC17C25
:1002C00024BF00F8012B00F8012B48BF00F8012BD8
:1002D00070474FF0000200B5134694469646203909
:1002E00022BFA0E80C50A0E80C50B1F12001BFF4EF
:1002F000F7AF090728BFA0E80C5048BF0CC05DF855
:1003000004EB890028BF40F8042B08BF704748BFA2
:1003100020F8022B11F0804F18BF00F8012B704716
:1003200070477047704710B50446AFF30080204611
:10033000BDE81040FFF722BF01491820ABBEFEE721
:10034000260002007047000001A001F07BFF0000C2
:100350004275734661756C740000000000F004FE85
:1003600004460AA00B49C968086200BF0AA002F04F
:1003700061F909E021460E4800F086FD642001F095
:10038000A1FB6068401C6060F4E700006374726C5D
:1003900000000000100A00205B4354524C5D2074A2
:1003A000687265616420656E74657265640D0A002B
:1003B000FA3C000870472DE9F0410246002500266E
:1003C000002000230024002791F803C00CF00F0543
:1003D00091F803C00CF0100CBCF1000F03D091F8A1
:1003E00002C04CEA050591F800C0BCF1000F31D005
:1003F000146800202BE04FF0010C0CFA00F3B1F868
:1004000000C00CEA03069E4220D183004FF00F0C7F
:100410000CFA03F7BC4305FA03FC4CEA040491F818
:1004200003C0BCF1280F06D14FF0010C0CFA00FC00
:10043000C2F814C00AE091F803C0BCF1480F05D11E
:100440004FF0010C0CFA00FCC2F810C0401C082848
:10045000D1D31460B1F800C0BCF1FF0F34DD546893
:1004600000202EE000F1080C4FF0010808FA0CF310
:10047000B1F800C00CEA03069E4221D183004FF080
:100480000F0C0CFA03F7BC4305FA03FC4CEA040416
:1004900091F803C0BCF1280F05D100F1080C08FA4F
:1004A0000CF8C2F8148091F803C0BCF1480F07D1D2
:1004B00000F1080C4FF0010808FA0CF8C2F810809F
:1004C000401C0828CED35460BDE8F08102460020CD
:1004D00093680B400BB1012000E000207047000042
:1004E00001A001F0AFFE0000486172644661756CC6
:1004F0007400000001A001F0A5FE00004D656D4DE7
:10050000616E6167650000007047000010B500284B
:1005100007DA0A07140E054A00F00F031B1FD45414
:1005200003E00A07130E024A135410BD18ED00E051
:1005300000E400E029B1064A92690243044B9A6143
:1005400004E0034A92698243014B9A6170470000BC
:100550000010024030B500210022002400232D4D60
:100560006D6805F00C0121B1042905D0082923D1BB
:1005700005E0294D056022E0274D05601FE0254D6F
:100580006D6805F47012234D6D6805F48034022502
:1005900005EB92421CB9214D554305600BE01D4D02
:1005A0006D6805F400351DB11C4D5543056002E032
:1005B000194D5543056002E0174D056000BF00BFAF
:1005C000144D6D6805F0F0010909154D6B5C056867
:1005D000DD4045600F4D6D6805F4E061090A104D7E
:1005E0006B5C4568DD4085600A4D6D6805F46051BF
:1005F000C90A0B4D6B5C4568DD40C560054D6D68F3
:1006000005F44041890B074D6B5CC568B5FBF3F5FC
:10061000056130BD0010024000127A0000093D0063
:10062000140000202400002010B5FFF7ADFD0446A3
:1006300020342046FFF7ABFD00BF00BF002000F0D4
:1006400017FB00BF00BF10BD10B500F001F810BDD2
:100650000CB50020019000903348006840F48030D1
:100660003149086000BF3048006800F40030009055
:100670000198401C0190009818B90198B0F5A06F3E
:10068000F1D12948006800F4003010B10120009039
:1006900001E0002000900098012843D12348006821
:1006A00040F01000214908600846006820F003006F
:1006B00008600846006840F0020008601A48406878
:1006C000194948600846406848600846406840F458
:1006D000806048600846406820F47C104860084606
:1006E000406840F4E81048600846006840F08070B8
:1006F000086000BF0C48006800F000700028F9D0C6
:100700000948406820F003000749486008464068EF
:1007100040F00200486000BF0348406800F00C0051
:100720000828F9D10CBD0000001002400020024052
:1007300010B500BF00BF00BF00BF00BF302000F0F9
:1007400093FA00BF00BF00BF01F0B4F800BF00BFC4
:1007500000BF002000F088FA00BF00BF00BF00BF4C
:1007600000BF00F0D1F910BD10B50021002000221B
:10077000214B5B6803F00C0121B1042906D0082944
:1007800028D107E01D4B1E4C236027E01B4B1C4C5F
:10079000236023E0184B5B6803F47010164B5B6812
:1007A00003F48032022303EB904022B9154B4343FC
:1007B000134C23600DE0104B5B6803F4003323B14E
:1007C000104B43430E4C236003E00C4B43430C4C53
:1007D000236003E0094B0A4C236000BF00BF064BB7
:1007E0005B68C3F30313084CE15C054B1B68CB400B
:1007F000034C236010BD00000010024000127A007C
:100800000000002000093D000400002010B513483E
:10081000006840F00100114908600846406810492E
:1008200008400E494860084600680E4908400B49D8
:1008300008600846006820F4802008600846406888
:1008400020F4FE0048604FF41F008860FFF7FCFEB4
:100850004FF000600449086010BD00000010024025
:100860000000FFF8FFFFF6FE08ED00E021B18289ED
:1008700042F40052828104E082894DF6FF731A40EF
:100880008281704702460020B1F5007F00D100BF91
:1008900013880B400BB1012000E0002070470000DE
:1008A0002DE9F04786B005460E460024A24600BF5B
:1008B000A1460027B08900B100BF2F462C8A4CF614
:1008C000FF700440F08804432C82AC894EF6F3108C
:1008D0000440B08831890843718908430443AC81DE
:1008E000AC8A4FF6FF400440B0890443AC8201A8B3
:1008F000FFF730FE1F48874202D1DDF810A001E06B
:10090000DDF80CA0A88900F4004040B10AEBCA0051
:1009100000EB0A1031684900B0FBF1F807E00AEB80
:10092000CA0000EB0A1031688900B0FBF1F86420BE
:10093000B8FBF0F004012009642101FB1089A889AB
:1009400000F4004040B1322000EBC900B0FBF1F0F0
:1009500000F00700044308E0322000EB0910642196
:10096000B0FBF1F000F00F0004432C8106B0BDE8AD
:10097000F087000000380140C1F308028280704710
:100980004FF41651016000218180C18001810C214A
:1009900041810021818170478CB01DA01D49C9682B
:1009A000086200BF1CA001F045FE01F083FD00F0CD
:1009B00061FC1FA001F03EFE012528E001F086FC4D
:1009C0000446052C14D2DFE804F01403070B0F00D3
:1009D00000F08CFC01250DE000F062FC012509E02F
:1009E00000F00AFC012505E000F07EFB012501E096
:1009F00000BF00BF00BF35B1684600F081FB68460C
:100A000001F086FD0025142001F05CF800BFD5E759
:100A100075690000100A00205B55495D20746872FA
:100A200065616420656E74657265640D0A0000007E
:100A30005B55495D20646973706C617920726561F2
:100A400064790D0A0000000001A001F0FBFB00002A
:100A500055736167654661756C740000034804490D
:100A6000086000F58060486070470000000C0020BE
:100A70004800002010B5144800F0E6FD1248103080
:100A800001F0DEFB114A14210F48143000F0E5FD9F
:100A90000D48243001F0D4FB0B48283001F0D0FB86
:100AA0000A4A1C2108482C3000F0D7FD06483C308B
:100AB00001F0C6FB0448403001F0C2FB024844305C
:100AC00001F0BEFB10BD000024100020D914000866
:100AD00010B5084808490860081D00F039FD0020DD
:100AE0000549C860002104480161143000F0ACFDE4
:100AF00010BD0000EB1400080010002003E000BF50
:100B000000BF00BF00BFFAE770B500BF00BF3020D4
:100B100000F0AEF800BF00BF1048006800F40060AD
:100B200098B1FFF731FB0446203C25464FF080701A
:100B3000E8612046FFF72BFB00F008FE10B10848E3
:100B4000A86101E00748A86170BD00BF00BF002098
:100B500000F08EF800BF00BF00BFF5E704ED00E035
:100B600023020008270200082DE9F041064600BFD5
:100B700000BF002030773446356900BF00BF2F68C2
:100B80003946032000F020FE00BF00BF3D46A868A4
:100B9000A1688842F3D82560686860606068046076
:100BA0006C602046BDE8F0812DE9F041064600BFAB
:100BB00000BF002030773446356900BF00BF2F6882
:100BC0003946032000F000FE00BF00BF3D46A86884
:100BD000A1688842F3D2256068686060606804603C
:100BE0006C602046BDE8F08170B506460D462C4687
:100BF00000BF00BF00BF302000F046F800BF00BFBC
:100C000000BF207F052812D005DC48B103280AD098
:100C100004281DD111E0072811D00C2818D10DE0AF
:100C200000F069FE70BD0020616B086011E0606B30
:100C30008168491C816000BF00BF00BF00BF00BFCA
:100C4000D4E900010860D4E90010486000BF00E06A
:100C500000BF00BF4FF0FF3060632046FFF7A4FFE6
:100C600000F049FE00BFDDE7C1B281F31188704793
:100C7000C1B281F311887047C1B281F31188704706
:100C8000C1B281F311887047C1B281F311887047F6
:100C9000C1B281F311887047C1B281F311887047E6
:100CA00008B540F2B63000230122114600900648F4
:100CB00000F092F8782350220021044800F0BFF899
:100CC000034800F069F808BDDC080020F0080020A7
:100CD0002C0000202DE9F05F07460E46144616B1A1
:100CE0000CB1307880B91E4800F082F87823502289
:100CF00000211C4800F0A3F824B10020208060806F
:100D0000A080A071BDE8F09FB7F90810164800F068
:100D100049F88346B6F90210124800F097F8824667
:100D2000B7F90000AAEB000949460D4800F066F843
:100D3000804640F2B6320021404600F017F8804667
:100D40001FFA88F040F2B632002100F01AF805468A
:100D500025806580A5800120A07100BFD2E700003A
:100D6000DC080020F00800202C00002003468B4205
:100D700001DA08467047934201DD1046FAE718464B
:100D8000F8E703468B4201DA08467047934201DDDB
:100D90001046FAE71846F8E700B9704700210160ED
:100DA00000BFFAE702460AB908467047136803EB2A
:100DB00043035818C31700EB93739B10136010681C
:100DC000F3E703468B4201DA08467047934201DDA0
:100DD0001046FAE71846F8E730B5039C00B930BD75
:100DE0000160426000258560C360046100BFF6E7D2
:100DF00000B970470021816000BFFAE770B5044672
:100E00000D460CB9002070BDD4E9011005FB0100AE
:100E1000A06023691A01E3681901A068FFF7D1FFF8
:100E2000A060A068C11700EB11710911226805FBD1
:100E300002163046D4E90312FFF7C3FFE3E700B917
:100E4000704701604260836000BFF9E702460AB95B
:100E5000084670471068884208DAD2E9000318444F
:100E60001060106888420CDD11600AE0106888424A
:100E700007DD93681068C01A10601068884200DAB5
:100E800011601068E5E7704730B589B005460C463B
:100E900005B10CB909B030BD02A801F0ABFB02A846
:100EA00000F045F807900799606800F0CFFA8DF8D8
:100EB0002000079808B9012000E000208DF82100EB
:100EC0009DF8210001F0F1F928788DF81400688868
:100ED000ADF81600A888ADF818006A4605A902A862
:100EE000FFF7F8FE9DF8060038B19DF8210020B10B
:100EF00001F0D7F908B1012000E000208DF80600CC
:100F0000684601F015FABDF80C00A081BDF8080094
:100F1000E081BDF800002082079860619DF8200004
:100F2000207668886083A888A08300BFB2E7014666
:100F300009B9012070470022888842F21073984254
:100F400001D242F00102B1F9000040F2DC539842B4
:100F500004DCB1F900005B42984201DA42F002027F
:100F60001046E7E77047000000487047580000202F
:100F70001BA001F05FFB00F063FA1FA001F05AFB19
:100F8000FFF7F0FF23A001F055FB01F073F928A053
:100F900001F050FBFFF784FE2BA001F04BFBFFF7A5
:100FA00072FF2FA001F046FB00F036FC33A001F0E9
:100FB00041FB00F0E5F900F06FFA37A001F03AFBD1
:100FC00000F07AFA3EA001F035FB08E04FF47A70A9
:100FD00000F078FD43480068401C42490860F5E78E
:100FE0005B424F4F545D2061707020696E697420C0
:100FF000626567696E0D0A005B424F4F545D207356
:1010000074617465206D616368696E65206F6B0D36
:101010000A0000005B424F4F545D206661756C749E
:10102000206D616E61676572206F6B0D0A000000B4
:101030005B424F4F545D20626F61726420696E693C
:1010400074206F6B0D0A00005B424F4F545D2061AE
:101050006C676F20696E6974206F6B0D0A00000069
:101060005B424F4F545D20666173746C6F6F7020EC
:10107000696E6974206F6B0D0A0000005B424F4F70
:10108000545D2063686962696F7320696E697420BA
:101090006F6B0D0A000000005B424F4F545D2063F0
:1010A0006F6E74726F6C2074687265616420737403
:1010B000617274207265717565737465640D0A00E0
:1010C0005B424F4F545D207569207468726561649E
:1010D00020737461727420726571756573746564D0
:1010E0000D0A0000580000200448007C012804D9A3
:1010F0000248007C401E014908747047C008002067
:101100002DE9F04310B13A4D2D7C0DB9BDE8F083C7
:10111000374D2D7C6D1EEBB2354D55F8232015351E
:10112000EC5C2D1FEE5C15680560351B80F82850BF
:101130002F4D2D7C80F829502D4D2D7C012D01D96E
:10114000012500E0002500F82A5F4470157A8570BB
:101150002A38002147E06518EFB20FF2980C01EB36
:101160004108051D45F828C00FF2880C01EB410825
:1011700005EB8805C5F804C04FF0000C01EB4108F1
:10118000051D05EB880585F808C0157ABD4228DDE8
:1011900007EB4708D2F804C00CEB880501EB4109C6
:1011A00000F1040CD5F800804CF8298001EB4109CE
:1011B0000CEB890CD5F80480CCF80480D5F808C075
:1011C000BCF1000F02D04FF0020801E04FF001081F
:1011D00001EB410900F1040C0CEB890C8CF8088040
:1011E00000BF4D1CE9B20329B5D300BF8EE7000054
:1011F000C00800200000000070B500F01FF8054690
:101200000DB1A86800B970BD0B48007C042800D35C
:10121000F9E70948047C0849A86841F8240000213E
:10122000054811300155001D01551538007C401C42
:101230000149087400BFE6E7C008002010B50C485B
:10124000007C08B9002010BD0948007C401EC3B2D4
:10125000074850F823101130C25C087A904201DC34
:101260000020F0E702EB4204486800EB8400EAE764
:10127000C00800200121084A1174084911600020AB
:1012800007E00022044911310A54091D0A54411C87
:10129000C8B20428F5D37047C0080020443E0008B7
:1012A00070B51148007C00B970BD0F48007C401E2D
:1012B000C4B20D4850F824501130005D401C297A0A
:1012C000884208D208481130005D401CC1B206486F
:1012D0001130015503E0002103481130015500F0A1
:1012E00029F800BFE0E70000C008002070B51048F2
:1012F000007C00B970BD0E48007C401EC4B20C4892
:1013000050F824501130005D40B109481130005DA3
:10131000401EC1B206481130015505E0287A401E32
:10132000C1B203481130015500F004F800BFE1E7F5
:10133000C008002010B5114C247C04B910BD0F4C1E
:10134000247C641EE0B20D4C54F820301134215C32
:10135000241D225C914201DA0A4605E0D41CE4B265
:101360008C4201DC8C1EE2B21C7A032C00D80022D5
:10137000024C1534225400BFE0E70000C0080020F2
:1013800010B517A001F056F900204FF0E0210861D8
:101390001A4800684FF47A71B0FBF1F0401E4FF02C
:1013A000E021486100208861401E0821002807DAFA
:1013B0000A07140E124A00F00F031B1FD45403E057
:1013C0000A07130E0F4A135400BF0FA001F032F9A1
:1013D00007204FF0E021086112A001F02BF910BDA9
:1013E0005B424F4F545D207379737469636B206364
:1013F000666720626567696E0D0A000000000020C4
:1014000018ED00E000E400E05B424F4F545D2073B4
:1014100079737469636B2063666720646F6E650D12
:101420000A0000005B424F4F545D2073797374696A
:10143000636B20737461727465640D0A00000000B0
:10144000002001490870704728000020024629B199
:101450000320104B18701846007870470D4800782C
:1014600030B1012808D002280CD003280BD10BE0A2
:101470000120084B187008E0052A02D30220054B12
:10148000187002E001E000BF00BF00BF0148007813
:10149000E3E700002800002008B50020044B81226B
:1014A0004FF448710090034800F054FA08BD000062
:1014B0005D0300088000002008B50020044B802256
:1014C0004FF4A4610090034800F044FA08BD000006
:1014D00099090008A003002070B504460D460022BB
:1014E0002946204600F014F870BD2DE9F04104466D
:1014F0000D46164600F0D7F932462946204600F040
:1015000007F8074600F0EEF93846BDE8F081000024
:10151000F0B503460E46174600BF00BF0B480468EF
:101520004168081B984201D20020F0BDC81AA6F1FC
:10153000010C20EA0C05EA1BA24201D38A4201D920
:101540000020F2E7014842602846EEE7480000200C
:1015500004490968016003494968024A1268891A06
:10156000416070474800002070B588B004460D46C1
:10157000002600BF00BF314840F826402663A5631F
:10158000204601F051F900BF246064600020A06093
:1015900000BF04F1280000BF0060406000BF00BF32
:1015A00000BF0020606300BF04F1100000BF0060B6
:1015B0004060711E816000BF0021C16000BF2049F2
:1015C000C96900220161426100BF00BF0020C4F868
:1015D000E40000BF1C221B4901A8FEF726FE686834
:1015E0000290A8680390079401A904F1900000F00C
:1015F00037FAE06004F12801E26802F1240001609A
:101600004A68426042681060486000BF0120E1689B
:10161000087700BF00BF1C220A491C3101A8FEF751
:1016200004FEE868029028690390079401A904F178
:101630003C0000F05AFA08B070BD0000040A002017
:10164000100A00200040000800BF00BF00BF00607B
:10165000406000BF00218160704770B505460E46AE
:101660001446234604223146284600F001F870BD96
:1016700010B500BF00BF0024046041608260C360F9
:1016800010BD000070B50C4CE568204600F0F2FA81
:10169000064601203077E660A868012801D100BF26
:1016A00000BF2846FFF760FA054600BF00BF294685
:1016B0003046FEF7A5FD70BD100A00202DE9F0416F
:1016C00006460D4DEF6800BF00BF00BF00BF3E776C
:1016D000284600F0CFFA044601202077EC60A0688D
:1016E000012801D100BF00BF00BF00BF394620461E
:1016F000FEF786FDBDE8F081100A002070B586B0C7
:1017000006460C460F48C568B4F1FF3F13D02B4680
:101710000D4A2146684600F033FA3046FFF7CEFF07
:1017200000BF009808B1012000E0002010B1684619
:1017300000F00EFA02E03046FFF7C0FF686B06B01B
:1017400070BD0000100A0020E90B000810B5054923
:10175000CA68086883689468A34201D9012010BD53
:101760000020FCE7100A002010B5044600BF00BFAF
:101770002046FFF719FA10BD2DE9F04104460F4647
:10178000104EF56800BF00BF6763A068A968884273
:1017900003D82046FFF708FA11E02846FFF7E4F9DE
:1017A0000546A868012801D100BF00BF01202077AD
:1017B000F46000BF00BF29462046FEF721FDBDE8CA
:1017C000F0810000100A002070B505460C4600BFED
:1017D000002D02DD022D09DC08E014B104F0030045
:1017E00020B100BF024800F005F800BF00BF70BD87
:1017F000503F000800BF72B600BF0549C1F8E400C1
:1018000000BF00BF0321034A117000BFFEE70000C4
:10181000100A0020000A002070B586B001201B4984
:101820000870002405E000211848001D40F824102D
:10183000641C002CF7D0154D083500202860684640
:1018400000F062F8042600BF00BF684600F068F8A8
:10185000684600F06DF8761E002EF6D100982860DC
:1018600000BF00BF00BF00BFFFF7F8F8FFF730F977
:10187000FFF700F900BF06490648FFF775FE022092
:101880000249087000F01CF806B070BD000A002084
:101890001C3F0008100A002010B500BF3020FFF7E1
:1018A000F7F900BF10BD10B500BF3020FFF7F4F905
:1018B00000BF10BD10B500F07BF900BF00BF10BD28
:1018C00010B500BF00BF00BF0020FFF7D5F900BF73
:1018D00010BD10B500BF00BF00BF0020FFF7D8F952
:1018E00000BF10BD10B500BF00BF00BF0020FFF754
:1018F000D3F900BF10BD10B500BF00BF0020FFF737
:10190000C3F900BF00BF10BD4FF0FF3101600021DF
:1019100041608160C1600022026142617047000045
:1019200000BF02494968816070470000001000E074
:1019300070B5044600BF054840680546044829467E
:101940008268204600F0A4FF70BD0000001000E097
:10195000000A00202DE9F04F89B0054688469146DF
:101960001E46DDF848A000BF00BF00BF00BF00BF9B
:1019700000BF05EB0807AB46A7F16000089000BF69
:1019800000BF1C22174901A8FEF74FFC02950397E0
:10199000CDF810900596CDF818A001A9089800F090
:1019A0005FF8044600BFA4F12400E060E068066030
:1019B000E068C0F804A00C48E168086200BFFFF7C7
:1019C0006BFF216901F1280004F1240100F063F9A3
:1019D00000212046FFF7D0FEFFF77BFF204609B02D
:1019E000BDE8F08F304100081102000810B5044630
:1019F000FFF752FF204600F001F810BD70B5064613
:101A000000F028F80446666300BF00BF09E000BF8D
:101A100000BF00BF00BFA06B0168A1630546FFF7D0
:101A2000A3FE04F138000168814201D0012100E0E9
:101A300000210029EBD1A07F28B9E06A18B904F190
:101A4000240000F01EF90F20FFF738FE00BF00BF92
:101A500070BD00000148C06870470000100A0020F7
:101A600070B504460D4600BF00BF00BF00BF6868E8
:101A70006061A868A061E868A0600220207700206B
:101A80006077A86910B1A869206101E00C48206165
:101A90000020E062206304F13800006000BFE868C5
:101AA00020650020E064A0640120A07728682062FF
:101AB00004F13C0000F0ECF800BF00BF204670BD10
:101AC000100A002010B50446FFF7E6FE204600F09D
:101AD00003F8FFF7FEFE10BD10B5044600BF00BFBF
:101AE00021460820FFF70AFE10BD70B504460D46DA
:101AF0002946204600F004F80646FFF735FE70BD83
:101B000070B504460D4600BF00BF00BF00BF00BF58
:101B100000BF29462046FFF7A3FF044600BFA06987
:101B20002438E0602869E16808606869E168486015
:101B30000648E168086200BF216901F1280004F14C
:101B4000240100F0A8F8204670BD00001102000832
:101B500070B50446094D00BF00BF00BF00BF20683C
:101B60008068A168084421688860204600F05EF81B
:101B700000202060401EA86070BD0000200A0020E8
:101B80002DE9F04104460D4616461F46DFF81C803D
:101B900000BF00BF2761E660002060612A46214641
:101BA000404602F09DF8BDE8F0810000200A0020C8
:101BB00070B51D4CE068401CE06020460168814221
:101BC00001D0012100E0002161B320688068401E3F
:101BD0002168886022E02568284600F027F8002068
:101BE000286000BF00BF00BFFFF74AF800BF00BF7A
:101BF00000BF2846D5E90321904700BF00BF00BFC2
:101C00003020FFF73DF800BF00BF00BF686920B17A
:101C1000294620466A6900F010F800BF20688068F5
:101C20000028D8D070BD0000200A0020D0E90012A2
:101C30001160D0E900215160704710B50346186863
:101C400004E000BF00BF8468121B006884689442EF
:101C5000F7D300BF8A6008600C6864684C604C6809
:101C60002160416000BF8468A41A84604FF0FF3493
:101C70009C6010BD0146086802680A600A685160ED
:101C80007047D0E900121160D0E90021516070471F
:101C9000006040607047086042684A604A681160AE
:101CA0004160704700B9704726490988264A128862
:101CB000114409B2234A118011464988234A1288E7
:101CC000114409B21F4A51801146C988891D09B2C1
:101CD000D1801146B1F90610B1F5B47F05DB11468C
:101CE000C988A1F5B47109B2D1801649B1F90010C3
:101CF000B1F5487F05DC1349B1F9001011F5487FB3
:101D000005DA11490988494209B20F4A11800D4983
:101D1000B1F90210B1F52F7F05DC0A49B1F90210C3
:101D200011F52F7F05DA09490988494209B2074AA6
:101D3000118004490A6802604A6842600989018189
:101D400000BFB0E7900900203200002034000020DE
:101D5000C8200A4908806FF09500488045F6C050B9
:101D600088800020C8804FF49670088119200449AB
:101D700008806FF013000349088070479009002025
:101D80003200002034000020002001490870704714
:101D90003E00002001480078704700003E0000200F
:101DA00001490870704700003E00002000200149F2
:101DB000087070473E0000207047000008B50146DB
:101DC000024800EBC1004068009008BD9A0900205D
:101DD00008B501210C20FEF7ADFB02208DF80200B2
:101DE00048208DF803000320ADF80000694605483F
:101DF000FEF7E1FA0220ADF8000069460248FEF75E
:101E0000DAFA08BD000C01400008014010B5044694
:101E1000064A02EBC4029188044A52F83400FEF7E5
:101E200055FB08B9012010BD0020FCE7A43E0008C6
:101E300070B5002538E01E4800EBC5042846FFF7C2
:101E4000E5FF064600216171A171E1712078B04281
:101E500002D10020607014E06078401C60706078EF
:101E600002280ED3002060702670267126B1A07063
:101E7000E0700121617104E00121A1710020A070D6
:101E8000E070207870B1A078FF2802D2A078401CC2
:101E9000A070E07830B9A0781E2803D30120E0704C
:101EA0000121E171681CC5B2032DC4DB70BD0000C7
:101EB0009A0900202DE9F04707460E461446384699
:101EC00001F038FE6579E806050E97F822002844EF
:101ED000C5B2102040EA2511384601F0D6FD05F0C4
:101EE0000F01384601F0D1FDA07940F0B00138462D
:101EF00001F0CBFD00BF94F80480D4F800904FEAC5
:101F0000C860010E4A46384601F0C9FD701EC6B2CF
:101F1000002EF0D1384601F0A5FD0120BDE8F08784
:101F200001B500E000BF0098411E00910028F9D1E2
:101F300008BD000070B50446074800680749B0FBBB
:101F4000F1F0451C02E02846FFF7EAFF201EA4F14D
:101F50000104F8D170BD000000000020C0C62D00B3
:101F60002DE9F04104460E4615461F46A6F109002C
:101F7000072849D2DFE800F0040B14481E32420063
:101F80002249204601F07AFE0120BDE8F08120467A
:101F900001F044FE1E49204601F08EFD0120F4E7C9
:101FA0000DB91C4800E01C480146204601F084FDA4
:101FB0000120EAE745B91949204601F07DFD206876
:101FC000807C84F8220007E01549204601F074FD6A
:101FD0002068C07C84F822000120D6E7204601F06A
:101FE000A9FD8121204601F050FD2946204601F03F
:101FF00042FD204601F036FD0120C6E73A4629465B
:102000002046FFF757FFC0E70020BEE7D43E000898
:10201000EC3E0008BC3E0008C13E0008C63E000879
:10202000CD3E00082DE9F04106460D4614461F46F8
:102030002C2D29D008DC282D0DD0292D0ED02A2DAD
:1020400017D02B2D32D11EE02D2D21D04C2D23D099
:102050004D2D2BD125E000F02FF828E003E04FF4C0
:102060007A70FFF767FF201EA4F10101CCB2F6D110
:102070001DE002E00A20FFF75DFF201EA4F1010130
:10208000CCB2F7D113E000BF0220FFF749FF0EE00A
:102090000520FFF74FFF0AE02146402000F02AF814
:1020A00005E02146802000F025F800E000BF00BFD9
:1020B0000120BDE8F081000008B501210820FEF7ED
:1020C00039FAC020ADF8000003208DF8020014207A
:1020D0008DF8030069460648FEF76DF9012140209E
:1020E00000F008F80121802000F004F808BD00008D
:1020F000000C014011B1034A106002E0014A121DB8
:1021000010607047100C014000B970470349026825
:102110000A6042684A6000BFF7E70000360000200E
:10212000002003490880488088808871704700003B
:102130003600002000B585B0012144F20400FEF70E
:10214000F9F94FF40070ADF8100003208DF812007B
:1021500018208DF8130004A91748FEF72CF94FF446
:102160008060ADF8100004208DF8130004A9124817
:10217000FEF721F96846FEF703FC4FF4E1300090CA
:102180000020ADF80400ADF80600ADF80800ADF889
:102190000C000C20ADF80A0069460848FEF780FBE9
:1021A00001210648FEF762FB002005490860012076
:1021B0000449087005B000BD000801400038014026
:1021C00040000020440000200148007870470000D3
:1021D0004400002010B5044604B910BD03E0207887
:1021E00000F016F8641C20780028F8D100BF4021C8
:1021F0000548FEF747FB0028F9D004480068401C5A
:102200000249086000BFE8E70038014040000020B4
:1022100010B504460848007800B910BD00BF802101
:102220000648FEF72FFB0028F9D021460348FEF7A9
:10223000A3FB00BFF1E7000044000020003801408C
:10224000006070470446FFF7BFFF40B105A0FFF7ED
:10225000C1FF2046FFF7BEFF05A0FFF7BBFF00BF91
:10226000FEE700000D0A5B4641554C545D2000001E
:102270000D0A000010B5FFF799FDFFF79DFD00F076
:10228000D1F900F06AF800F005F800F0CFF900F09D
:1022900013F810BD10B5FFF777FD0020FFF780FDA4
:1022A00010BD10B5FFF776FD10BD10B504462046F1
:1022B000FFF776FD10BD000010B5FFF789FD002087
:1022C0000149087010BD0000310000200EB5FFF775
:1022D000AFFD0020FFF772FD02900120FFF76EFDB9
:1022E00001900220FFF76AFD00909DF8030020B1E5
:1022F00001200E49087004200EBD9DF8090008B1A8
:102300000120F9E79DF8050008B10220F4E79DF8E7
:10231000020040B10548007818B100200349087058
:10232000EAE70320E8E70020E6E7000031000020AC
:102330001CB5044604B91CBD2088ADF800006088B7
:10234000ADF80200A088ADF80400A0798DF8060071
:102350006846FFF7D9FE00BFEDE710B5FFF7E0FED6
:1023600010BD000070B505460C46224629460C48B3
:1023700000F0D1FB621C691C094800F0CCFBA21CD8
:10238000A91C074800F0C7FBE21C691C044800F0C8
:10239000C2FB221D2946024800F0BDFB70BD0000B3
:1023A000FC080020F8B505462E46032E00D903266A
:1023B00000240CE00220009004EB440000F1360100
:1023C00002231A46034800F09DFA601CC4B2B442CE
:1023D000F0DBF8BDFC0800202DE9F84F07468846E1
:1023E00014461D46DDF82890082000EBC700C6B251
:1023F0004FF0020AB9F1000F0CD008203C233246FE
:1024000000210090154800F07DFA0021134800F0EB
:102410000FFC03E00121114800F00AFC2DB14346F6
:10242000F21D02210D4800F099FB012D09D144B1A4
:10243000207830B12346F21D2221084800F08EFB9F
:1024400006E0022D04D1701CC1B23720FFF78AFFCD
:102450000121024800F0ECFBBDE8F88FFC080020E9
:10246000F8B506460C46032C00D8F8BD1720032308
:1024700009223D2100900E4800F069FA1720B0FBB8
:10248000F4F5062D00D20625C5F1150080B2704383
:10249000E11E89B290FBF1F00A30C7B201233A463F
:1024A0003E210348009500F02DFA00BFDDE7000053
:1024B000FC08002010B5104B104A1149114800F0DB
:1024C00017FC78200F4981F82400084601F013FA20
:1024D00000210C4801F021FA0B490A4800F0B0FB3A
:1024E0000121084800F0BCFB064800F0FBF9012080
:1024F0000649087010BD000025200008F7390008C3
:1025000000420008FC08002048420008300000207B
:10251000F8B504463448007810B10CB1206800B911
:10252000F8BD324800F02CFB00BF082040230022F9
:10253000114600902D4800F0E5F900212B4800F0ED
:1025400077FB94F82A0060B129A3072201212748CC
:1025500000F004FB072211462448236800F0FEFA2D
:1025600005E0072201212148236800F0F7FA94F8DA
:102570002900FFF717FF01211C4800F059FB002537
:1025800022E005EB4501201D50F8216005EB4501D7
:1025900000EB8100476806B107B913E094F8280002
:1025A000A84201D1012000E0002005EB4501009088
:1025B000201D00EB8100037A3A4631462846FFF79A
:1025C0000BFF00BF681CC5B2032DDAD394F82C10A2
:1025D00094F82B00FFF744FF044800F0FBFA0028B2
:1025E000A3D100BF9CE7000030000020FC080020C1
:1025F0003C0000003EB5044604B93EBD6846FFF706
:1026000051FBBDF800002080BDF802006080BDF8DD
:102610000400A080BDF80600E080BDF8080020811D
:1026200000BFEAE710B5FFF793FB10BD10B5FFF749
:1026300081FD10BD10B504462046FFF7CBFD10BD4F
:1026400010B5044600224C21204601F021FB10BDAC
:1026500010B5044600224D21204601F019FB10BDA3
:1026600010B504462068427B2D21204601F010FB66
:1026700010BD10B5044601224C21204601F008FB94
:1026800001224D21204601F003FB2046FFF7E8FF21
:1026900010BD10B50446204600F01BF82046FFF799
:1026A000DFFF204600F00AF8204600F012F820462E
:1026B000FFF7D6FF2046FFF7C3FF10BD10B5044655
:1026C00001224C21204601F0E3FA2046FFF7C8FF23
:1026D00010BD10B5044601224D21204601F0D8FA64
:1026E00010BD10B5044694F8250040B12046FFF710
:1026F000F0FF2046FFF7B4FF2046FFF7DFFF20463C
:10270000FFF7E7FF2046FFF7A3FF2046FFF7A8FFEC
:102710002046FFF795FF012084F8250010BD10B575
:1027200004462046FFF794FF2046FFF799FF204616
:10273000FFF7C4FF2046FFF7CCFF2046FFF790FFCE
:10274000002084F8250010BD70B505460C461CB16C
:102750002846FFF7BEFF02E02846FFF779FF28462C
:10276000FFF77EFF2846FFF7A9FF2846FFF768FF1F
:1027700070BD70B505460C4604F080012846FFF791
:10278000E3FF04F040012846FFF7DEFF04F02001DC
:102790002846FFF7D9FF04F010012846FFF7D4FFC1
:1027A00004F008012846FFF7CFFF04F00401284693
:1027B000FFF7CAFF04F002012846FFF7C5FF04F047
:1027C00001012846FFF7C0FF2846FFF762FF70BDF2
:1027D00010B5FDF7C9FFFFF729FF05A0FFF72AFF96
:1027E00009A0FFF727FFFEF7C3FB002010BD000084
:1027F0000D0A5B424F4F545D206D61696E20656E1E
:1028000074657265640D0A005B424F4F545D20731E
:10281000797374656D20636C6F636B207570646190
:102820007465640D0A00000010B5044600BF302036
:10283000FEF71EFA62B600BF03200246114B19686C
:102840004FF6FF031940104B0B4343EA02210D4B97
:10285000196000BF0B48F030006840F080700949F3
:10286000F03108600948006840F00100074908603D
:102870000221C81FFDF74AFE0321481FFDF746FE4F
:1028800010BD00000CED00E00000FA05001000E0B3
:1028900070B5C3685B1CC3608368CB1A9B1A8360E6
:1028A000D0E904638468341943F10003C0E90443A8
:1028B000D0E90143A34201D9836843600468836877
:1028C000A34201D28368036070BD70B504462068DE
:1028D000057C94F838004543ED002946606BFDF710
:1028E000D6FC70BD10B50446204600F049F900BF83
:1028F000204600F06FF90028FAD10021204600F0B0
:1029000089F910BD2DE9F84380460E4614461F464E
:10291000089D601980B20090F01983B222463146BA
:10292000404600F03AF908B9BDE8F8830BE0002012
:102930003B46224631460090404600F07EF8601C3F
:1029400084B2681E85B2002DF1D100BFECE72DE9FD
:10295000F84381460D4616461F46089CA846301986
:1029600080B20090E81983B232462946484600F00A
:1029700014F908B9BDE8F88300203B4632462946E1
:102980000090484600F059F8022C23DBA01E84B2C8
:10299000701C86B2002C15DD0120234632462946E4
:1029A0000090484600F049F8E81985B2681E85B2E3
:1029B00001202346324629460090484600F03DF863
:1029C000301986B200203B463246414600904846C8
:1029D00000F033F800BFCDE72DE9F04104460D4685
:1029E00016461F467020005D30B101280AD002282B
:1029F0000ED0032818D111E02046E16D88473044FD
:102A000086B211E02046E16D8847281A85B20BE0B6
:102A10002046E16D8847301A86B205E02046E16D18
:102A20008847284485B200BF00BF3B46324629464E
:102A3000204600F0C0FCBDE8F0817FB582B00446BE
:102A40000A9D94F88C00002863D0BDF8140000287B
:102A50005FD0BDF8140001281CDD022D0CD1BDF89B
:102A60000C00BDF81410401A80B20390BDF80C00A1
:102A7000401C80B203900DE0032D0BD1BDF8100077
:102A8000BDF81410401A80B20490BDF81000401C2C
:102A900080B2049005F00105C5B9B4F84C00BDF84A
:102AA0001010884201DD06B070BDB4F84E00BDF8CC
:102AB0001010884200DCF6E7B4F84A30B4F8482039
:102AC00005A903A800F0E1F9C0B9ECE7B4F84800A3
:102AD000BDF80C10884200DDE5E7B4F84A00BDF807
:102AE0000C10884200DCDEE7B4F84E30B4F84C201D
:102AF00005A904A800F0C9F900B9D4E70095206B36
:102B0000BDF81430BDF81020BDF80C1086682046C2
:102B1000B04700BFC7E7F8B504460D461646B4F8FF
:102B20004C00B04200DDF8BDB4F84E00B04200DC0D
:102B3000F9E7B4F84800A84200DDF4E7B4F84A0029
:102B4000A84200DCEFE7002001233246294600902E
:102B50002046FFF772FF00BFE5E700002DE9F041D6
:102B600004460D4616461F46044860603B46324602
:102B70002946204600F088FABDE8F0819739000820
:102B800010B5044694F8930010B12046FFF79DFE5F
:102B90000021204600F03EF810BD2DE9F04104462A
:102BA0000D4616461F46DDF81880B4F84E10B4F8EE
:102BB0004C004346324600F094FC10B90020BDE8BA
:102BC000F081B4F84A10B4F848003B462A4600F0B9
:102BD00088FCF4E770B50446204600F089FD94F8BF
:102BE000395094F838002844C5B22068407CA84287
:102BF00004DC204600F088FE002070BD94F89300AD
:102C000010B12046FFF761FE2946204600F002F889
:102C10000120F2E770B504460D4684F83950206B68
:102C2000016820468847206B41682046884770BD70
:102C300080F89210032902DB012280F8922070476D
:102C400070B504460D46A06DA84208D0A56529467A
:102C500004F1740000F0DCFC204600F06BF870BD5D
:102C60006D221154704700000149C1657047000092
:102C70001931000810B50446002030342084A084A7
:102C80004FF6FF706084E08454F8300941682046B4
:102C9000884710BD2DE9F04104460D4616461F46F3
:102CA000DDF818800020A065E762656384F838606D
:102CB00084F8390000216D200155002074346077BC
:102CC00060760120A077E07744F8448C54F8440CF7
:102CD000743C0168204688472046FFF7CBFF20461A
:102CE000FFF7C2FF002170200155BDE8F081000010
:102CF0002DE9FC4107460C4615461E462B460A4A5E
:102D00000A493846009600F012FE01A800F078FC4F
:102D10008046074B00949DF8042041463846FFF753
:102D2000B9FFBDE8FC810000493B0008611F0008B5
:102D300013350008816D01B970478121095C80F865
:102D40008E108221095C80F88F1090F88D1099B355
:102D500090F88D10012914D190F98E2090F98310EC
:102D60008A4203DA8321095C80F88E1090F98F2063
:102D700090F984108A421FDD8421095C80F88F104D
:102D80001AE090F97E2090F98010114490F98E207D
:102D9000914207DD7E210A5C8021095C114449B221
:102DA00080F88E1090F98F2090F980108A4203DD10
:102DB0008021095C80F88F1000BFBDE710B523B1FA
:102DC000012B05D0022B09D105E04418A0B208E080
:102DD000841AA0B205E0441AA0B202E08418A0B29E
:102DE00000BF00BF10BD10B523B1012B05D0022BD1
:102DF00009D105E08418A0B208E04418A0B205E0AB
:102E0000841AA0B202E0441AA0B200BF00BF10BDF5
:102E100038B504465034E08800906388A28834F8BE
:102E200050192046FFF7B9FE18B9002084F88C002D
:102E30002AE0012084F88C00B4F84800B4F850105F
:102E4000884203DAB4F85000A4F84800B4F84A0005
:102E5000B4F85210884203DDB4F85200A4F84A00D6
:102E6000B4F84C00B4F85410884203DAB4F85400B3
:102E7000A4F84C00B4F84E00B4F85610884203DDB4
:102E8000B4F85600A4F84E0038BD70B505460E469D
:102E9000144629880A463088104482B2914206DDE1
:102EA000994203DA1A46501E82B200E02146994246
:102EB00001DB002070BDA24201DC0020FAE7A14244
:102EC00000DA21469A4200DD1A462980501A82B261
:102ED00032800120EEE72DE9F84304460E46154600
:102EE0001F46DDF82080E08F281A85B2CDF80080DB
:102EF0003B462A4631462046D4F82CC0E047BDE880
:102F0000F8832DE9F84305460E4691461F46DDF845
:102F10002080B5F84440A01B84B208F0010010B92D
:102F2000E01B84B201E0601E84B23B464A46214663
:102F30002846CDF80080FFF7CEFFBDE8F8832DE9E5
:102F4000F84304460D4616461F46DDF820803B46F2
:102F5000324629462046CDF80080FFF7BCFFBDE889
:102F6000F8832DE9F84F06460F46904699460A9D8C
:102F7000BA46B6F84640A4EB080084B2601E84B29C
:102F8000681CC5B2022D05D1A4EB090084B2601CF7
:102F900084B200254B465246214630460095FFF745
:102FA0009AFFBDE8F88F2DE9F84F0646894692460C
:102FB0001F46DDF82880B6F84650A5EB0A0085B21A
:102FC000B6F84440A4EB090084B2B8F1000F04D174
:102FD000681E85B2E01B84B206E0B8F1010F03D190
:102FE000601E84B2E81B85B23B462A462146304625
:102FF000CDF80080FFF76FFFBDE8F88F2DE9F84F9F
:1030000005460E4617469846DDF82890BA46B5F8AC
:103010004440A01B84B2B9F1000F09D1601E84B2F4
:10302000A4EB080084B2601C84B24FF0010903E0F5
:10303000601E84B24FF0000943462246514628469E
:10304000CDF80090FFF747FFBDE8F88F2DE9F84372
:103050000546894616461F46DDF82080B5F84640ED
:10306000A01B84B208F0010010B1E01B84B201E0A3
:10307000601E84B23B46224649462846CDF8008071
:10308000FFF729FFBDE8F8832DE9F04706460F4614
:1030900090469946304600F01FFE4FF0000A00BFF0
:1030A00099F8001030467268904705464FF6FF7158
:1030B0008D4200D12CE009F101094FF6FE708542E6
:1030C000EED02B46424639463046FFF785FC044693
:1030D0007020805D30B1012807D002280AD0032873
:1030E00010D10AE0381987B20CE008EB04001FFA8F
:1030F00080F807E0381B87B204E0A8EB04001FFA51
:1031000080F800BF00BF0AEB04001FFA80FAC7E78F
:1031100000BF5046BDE8F087014600207047F0B57B
:1031200007460C462146384600F00BF845B201260A
:10313000601EC4B206FA04F046B2A81B45B2284687
:10314000F0BD70B502460C46117B15682878084121
:103150000B461D19EBB2082B0EDB08256E1AF5B2D3
:103160001668761C166016683678AE400643F0B2D4
:10317000A3F10806F3B200BF0125A5406D1E28404B
:10318000137370BD2DE9F34F85B0054605F160045A
:103190002846069900F085F995F96B607A20415D23
:1031A0002046FFF7BCFF02907B20415D2046FFF7E1
:1031B000B6FF83467C20415D2046FFF7B0FF0190BB
:1031C00094F90A00002871DD237C06EB0B014942CB
:1031D0004AB2A0880299FFF7F1FDA080237C06EB9C
:1031E0000B0149424AB2E0880299FFF7FCFDE080FA
:1031F000A788B4F80680B946C246207C30B10128C1
:103200000ED002281AD0032842D12EE094F90A00E9
:1032100048441FFA80F90AEB06001FFA80FA37E0EB
:10322000B81B87B2781C87B209F101001FFA80F938
:1032300094F90A0050441FFA80FA29E094F90A0030
:10324000381A87B2781C87B209F101001FFA80F999
:10325000A8EB06001FFA80F808F101001FFA80F8B9
:103260000AF101001FFA80FA12E009EB06001FFACA
:1032700080F994F90A00A8EB00001FFA80F808F121
:1032800001001FFA80F80AF101001FFA80FA00BF5E
:1032900000BF4B46424639462846CDF800A0FFF70E
:1032A0007CFC20B9019807B0BDE8F08F29E0002030
:1032B0002072607200BF7620415D2046FFF741FF1B
:1032C00004907720415D2046FFF73BFF039000BF4D
:1032D00000222846049900F016F801222846039996
:1032E00000F011F801212046FFF72BFF0028EFD155
:1032F00094F90900B042DEDB00BF00BFA07B85F877
:1033000092000198CFE72DE9FF5F80468A469346F9
:1033100008F160045546277A94F8099000BFA67A10
:10332000F01BC6B20396B54200DA0395A08802905E
:10333000E0880190237C4FFA89F279B20298FFF776
:103340003DFD0290237C4FFA89F279B20198FFF794
:103350004AFD0190BBF1000F0BD0A07B88F89200D2
:10336000207C00904046DDE90213019AFFF765FBDF
:103370000CE0607B50B9E07B88F89200207C0090E4
:103380004046DDE90213019AFFF757FBB54200DA28
:1033900007E0A81BC5B2002709F1010000F0FF09F2
:1033A000BDE700BF7819C7B278B220724FFA89F032
:1033B0006072BDE8FF9F2DE9F04704460D461646B2
:1033C0001F464FF000096420055366200653394616
:1033D000204600F011F88046B8F1000F05D04146B4
:1033E0002046FFF7CFFE1FFA80F94846BDE8F08778
:1033F00002460A44107870472DE9F04107460D4611
:10340000BC6D1734FF2D18DC612D03DB8820C05BF9
:10341000044404E0412D02DB8620C05B044400BF6D
:10342000607800B908E02078A84202D1A01CBDE86D
:10343000F08160780444F3E725E08A20C05B04440F
:10344000A04600BF0021404600F01FF804440221BE
:10345000404600F01AF8064608F10408AE42F1DBD7
:1034600000BF26784FF6FF7000EA06266078064314
:1034700006B906E0AE4201D1E01CD8E7A0780444CA
:10348000EFE700BF00BF0020D1E702460A441078F2
:10349000521C4FF6FF7303EA00201378034498B2DE
:1034A000704770B505460E4605F1600426600020A1
:1034B00020737820415D2046FFF743FE40B2A072A2
:1034C0007920415D2046FFF73CFE40B2E07295F85E
:1034D0009200A073A07B08B9012000E00020E073F7
:1034E00070BD10B504468A4209DAA34201DD01200D
:1034F00010BD9A4201DD0120FAE70020F8E7A3425F
:1035000005DD9A4201DD0120F2E70020F0E700200E
:10351000EEE72DE9F04704468946DDF82080D1B278
:1035200001F00701012606FA01FA0AF0FF0600275A
:10353000BC4694F892A0BAF1010F00DC374694F82B
:1035400092A0BAF1010F00D0B446154625F0070548
:10355000D4F800A09AF810A00AFB05FA1FFA8AF521
:10356000606B28444844B8F1000F14D100BF90F8B4
:1035700000A04AEA070A80F800A090F800A08AEAB2
:103580000C0A80F800A0401CA3F1010A1FFA8AF37C
:10359000002BECD132E000BF90F800A04AEA070A05
:1035A00080F800A090F800A08AEA0C0A80F800A039
:1035B00001F1010A0AF0FF0101F00701A3F1010A7C
:1035C0001FFA8AF381B9B4F83AA0504494F892A053
:1035D000BAF1010F00DC012794F892A0BAF1010FB3
:1035E0000AD04FF0010C07E04FEA476A4FEA1A672A
:1035F0004FEA4C6A4FEA1A6C002BCDD1BDE8F08738
:10360000014601200870014870470000B2090020FF
:1036100070B504460D4600212846FFF7E9FE2070EC
:1036200001212846FFF7E4FE607002212846FFF7DB
:10363000DFFEA07003212846FFF7DAFEE0700421C8
:103640002846FFF7D5FE207105212846FFF7D0FE5A
:10365000607106212846FFF7CBFEA071072128469E
:10366000FFF7C6FEE07108212846FFF7C1FE207271
:1036700009212846FFF7BCFE40B260720A212846A5
:10368000FFF7B6FE40B2A0720B212846FFF7B0FE4E
:1036900040B2E0720C212846FFF7AAFE40B2207328
:1036A0000D212846FFF7A4FE40B260730E21284684
:1036B000FFF79EFE40B2A0730F212846FFF798FE49
:1036C00040B2E07310212846FFF792FE40B220740A
:1036D00011212846FFF7D9FE608213212846FFF703
:1036E000D4FEA08215212846FFF7CFFEE08270BDF0
:1036F0002DE9F0410446002594F8387094F83960BB
:10370000206890F8118000BF32462946204600F01C
:103710000AF8681CC5B2701CC6B2BD4201DA464543
:10372000F2DBBDE8F0812DE9F84305460E469146EF
:10373000286890F8108034466F6B04FB08F084B260
:103740004FF6FF7000EAC404274443464A4600216E
:103750002846009700F0B6F8BDE8F88310B51A3097
:1037600050F81A2C817F4FF6FF7303EAC1014184A0
:10377000117C03EAC1010184C17F03EAC101818494
:10378000817FC37F1A380B44547CA34204DD537CF1
:1037900090F839401B1B99B24FF6FF7303EAC10141
:1037A00030F83E3F43804388838083880B44838086
:1037B000938AC380D38A03813E3810BD10B5044676
:1037C0002046FFF7CBFF10BD10B504462046FFF79B
:1037D000C5FF2068808AA4F846002068C08AA4F843
:1037E000440010BD10B504462046FFF7B7FF10BDDA
:1037F00010B504462046FFF7B1FF2068808AA4F880
:1038000046002068C08AA4F8440010BD10B50446E4
:10381000002040342081A08860812088A0816088B9
:10382000E081403C2046FFF7F3FA10BD10B5044696
:1038300034F8400F2081608860810020A081E088FA
:10384000E081403C2046FFF7E3FA10BD10B5044686
:1038500000204234E0806088208100206081A088C0
:1038600034F84219884205DB4234A0882188401A86
:103870006081423C4034E0882188401AE081403C2D
:103880002046FFF7C5FA10BD10B5044600204234AB
:10389000E080608834F84219884205DB4234608851
:1038A0002188401AE080423C4034A0882188401A98
:1038B00060810020A081E088E081403C2046FFF745
:1038C000A7FA10BD2DE9FC4104460D4616461F46D9
:1038D000DDF820808DF805508DF806608DF80470B5
:1038E000CDF800806B4601220F212046D4F808C095
:1038F000E047BDE8FC8170B5044600231A460A2162
:103900002046A568A84770BD70B5044600231A4636
:1039100010212046A568A84770BD70B504460D4625
:1039200000232A460B212046A668B04770BD2DE92A
:10393000F04104460D4617461E46DDF81880204625
:1039400000F00AF8A560E7602661C4F814802046FC
:1039500000F018F8BDE8F08100210160084981609D
:10396000C16001614161002180F8231080F82610B8
:103970008161FF2180F8241080F828107047000032
:10398000893C000870B5044600231A4609212046E8
:10399000A568A84770BD024609B10A2902D14FF6B1
:1039A000FF7070470846FCE770B5044600231A46CE
:1039B000192120462569A84770BD13B5044601AA00
:1039C0000121204600F001F81CBD2DE9F04104461C
:1039D0000D46164633462A46172120462769B84722
:1039E000BDE8F08170B5044600231A461821204630
:1039F0002569A84770BD2DE9F04106460F461446DB
:103A00009846182F1BD004DC142F13D0172F23D166
:103A100004E0192F1CD0202F1ED10FE0454606E0F0
:103A200029783046FEF7A5FE6D1C601EC4B2002C3E
:103A3000F6DC14E03046FEF71CFE10E00FE03046E6
:103A4000FEF74FFE96F824103046FEF792FE06E091
:103A50003046FEF764FE02E00020BDE8F08100BFC2
:103A60000120FAE770B5044600231A4619212046C2
:103A7000E568A84770BD70B504460D4600232A4688
:103A800016212046E668B04770BD70B504460D4665
:103A900000232A4615212046E668B04770BD2DE96F
:103AA000F04104460D46164633462A461721204665
:103AB000E768B847BDE8F081F8B505460C4600BF99
:103AC0002678641C182E21D006DC152E09D0162E5F
:103AD00008D0172E2CD110E0192E18D0FE2E27D189
:103AE0001CE000BF2078009000239DF800203146A4
:103AF0002846EF68B847641C1BE0207800906A46AF
:103B000001212846FFF7CBFF641C12E000BF002311
:103B10001A4631462846EF68B8470AE020780090F8
:103B20009DF800202921284600F0B2F8641C00E02E
:103B3000F8BDC5E770B5044600231A461821204693
:103B4000E568A84770BD00002DE9F04104460F4626
:103B500015469846A7F11400062858D2DFE800F071
:103B60003903181D494D2C48007810B12046FFF745
:103B70001BFF2046FFF736FF00212046FFF71DFF01
:103B800029462046FFF719FF01202349087040E02D
:103B900029462046FFF711FF3BE01F48007810B18F
:103BA0002046FFF701FF464608E03246182120462E
:103BB00000F07BF8A5F11800C5B21836182DF4DC1A
:103BC00032462946204600F070F80020124908705D
:103BD0001FE094F82400FF2802D1782084F8240004
:103BE00043462A4639462046D4F810C0E047BDE88F
:103BF000F0810020084908700BE00748007810B1F8
:103C00002046FFF7D1FE00200349087001E00020A4
:103C1000EDE700BF0120EAE75000002070B5044640
:103C200000231A46282120466569A84700231A4622
:103C300014212046E568A84701224B21204600F0C8
:103C400027F8206802792921204600F021F8002277
:103C50004B21204600F01CF82068027929212046DB
:103C600000F016F801224B21204600F011F82068E0
:103C700042792921204600F00BF870BD01600268EE
:103C8000927C80F82220704710B50446002010BDB9
:103C90002DE9F04104460D461646002332462946DA
:103CA00020466769B847BDE8F0812DE9F041044638
:103CB0000D4616462046FFF795FE40212046FFF7A9
:103CC0007CFE33462A46172120462769B8472046FE
:103CD000FFF76AFEBDE8F081002180F826107047EA
:103CE0002DE9F04105460E46144627463A46314630
:103CF0002846FDF7A2FFBDE8F0810100B00458029C
:103D000038460008C8460008503E00087C460008B7
:103D1000C84600085C3E000840460008C846000847
:103D2000683E000830460008C84600080000000051
:103D300010460008AC45000800000000F8450008E7
:103D4000C8460008743E000884460008C8460008BB
:103D5000803E0008A04600086446000800000000FD
:103D60002046000894450008000000008C4600082A
:103D70009445000800000000E44500089445000850
:103D800000000000F0450008C846000800000000E0
:103D9000C0460008C84600088C3E00084846000897
:103DA000C8460008983E00085C460008C84600085F
:103DB0000000000098460008C84600080000000007
:103DC000E4450008C846000800000000504600080E
:103DD000C846000800000000B046000894450008EE
:103DE00000000000B84600089445000800000000EC
:103DF00074460008944500080000000018460008BA
:103E00006C4600080000000090460008EC450008E1
:103E100000000000A8460008084600080000000056
:103E2000DC450008D04500080000000028460008D6
:103E3000B045000800000000004600089845000852
:103E400000000000A4450008003D00080400000038
:103E5000B8450008303D000804000000CC450008CB
:103E6000603D000804000000D8450008903D0008AF
:103E7000030000009C450008B43D0008030000005A
:103E8000C0450008D83D000803000000D4450008E4
:103E9000FC3D000803000000C4450008203E000867
:103EA00003000000000C014001000000000C014074
:103EB0000200000000080140020000001815AF19C0
:103EC000FF1815AE19FF1815A115C819FF1815A070
:103ED00015C019FF0001140A6464323200127A001E
:103EE0000004289608042020400020001815AE1574
:103EF000D5168015A8161F15D31600154015A11547
:103F0000C815DA1612158116CF15D916F115DB165C
:103F10003015A415A6158D161419FF00CC460008FF
:103F20007010002070100020000B0020000C0020FA
:103F30006368537973556E6C6F636B006368537974
:103F40007347657449646C655468726561645800B0
:103F5000636853667456616C696461746544617426
:103F600061506F696E746572580063685F70717537
:103F70006575655F696E736572745F626568696EA9
:103F8000640063685F7071756575655F696E736500
:103F900072745F6168656164005F5F7363685F721C
:103FA000656164795F626568696E64005F5F736311
:103FB000685F72656164795F616865616400636808
:103FC0005363685265616479490063685363684765
:103FD0006F536C6565705300636853636857616B1A
:103FE00065757053000000006368496E7374616EFC
:103FF00063654F626A656374496E6974000000000E
:10400000D84600080000000000000000800000000A
:10401000000000000000000000000000D046000882
:10402000000000000000000001000000FD0A000880
:10403000000000000000000063685F6C6973745F3B
:10404000756E6C696E6B0063685F71756575655F31
:104050006669666F5F72656D6F7665006368537938
:1040600073556E6C6F636B006368546864536C6562
:10407000657053006368546864446F446571756586
:1040800075654E657874490063685468644F626A68
:10409000656374496E69740063685468644F626A4A
:1040A000656374446973706F736500636854686412
:1040B000537061776E53757370656E646564490003
:1040C0006368546864537061776E53757370656E7E
:1040D000646564006368546864537061776E5275F8
:1040E0006E6E696E670063685468644372656174DC
:1040F0006553757370656E646564490063685468E0
:104100006443726561746553757370656E6465644C
:104110000063685468644372656174650063685441
:104120006864437265617465537461746963000007
:10413000E046000800000000000000000000000051
:104140000000000000000000100A002063685468AE
:1041500064537461727400636854686441646452A7
:10416000656600636854686452656C6561736500D8
:10417000636854686445786974530063685468647C
:104180005761697400636854686453657450726958
:104190006F726974790063685468645375737065ED
:1041A0006E645300636854686453757370656E641D
:1041B00054696D656F757453006368546864526523
:1041C00073756D6549006368546864526573756DF5
:1041D000655300636854686451756575654F626A1C
:1041E000656374496E6974006368546864517565E9
:1041F00075654F626A656374446973706F736500B7
:10420000BD3700080D3800083F2F0008C9370008E7
:104210002D380008632F0008E53700084D380008E6
:10422000A72F0008F137000889380008FD2F000883
:10423000BD3700080D380008032F0008BD370008FF
:104240000D3800084D3000085F000202030403042B
:1042500004050800FF06FF0600011A0231032F20A3
:1042600005007E032107316333520022079B6E93C2
:10427000AC00230D3D6257A63454355499120024E6
:104280000A3D629B57BD53DA112508AB661353678D
:1042900000260A3C621753B36AA6002705196F333C
:1042A0002807B262A79A012908B2621353A5002A0F
:1042B0000A2C6213931A49C5002B0A2D629B511CCC
:1042C00032A3082C079B5EA74A002D060C6A330216
:1042D0002E079B5E9756022F0834625FB63300307C
:1042E00008B36257B92A003107B36297646B320A88
:1042F0003462A7624E2A8F00330A34623362D44894
:104300002605340A34621B5535624E00350A346284
:1043100033F446322900360A3462A7F28A32290081
:10432000370A34623372CC314700380A3462A762EC
:1043300052512605390A3462A7A24C3B29003A079C
:10434000AA6233E2083B08B35E672355023C07B319
:10435000629BCA5C3D081C6633321A013E08B36298
:1043600093CB54023F09B362D74C192600400C4549
:104370005E2BA35C492559430541093462A7A21C61
:104380005306420A3462B3E248518E044309346250
:10439000A7A22E930244093462B3A27324004509F4
:1043A000346233F4CA79044609346233F4CA3500FE
:1043B000470A3462A7A24E3329004809346213E544
:1043C0009866004907B362B3626B4A093462377377
:1043D0005546004B093462135592A9334C08346298
:1043E00093BB47004D09346213C711CD004E093409
:1043F0006213D75867004F093462A7A233290050CF
:104400000A3462B3A21C29670051093C5EA7A25C72
:104410006E14520A3462B3A21C29CA00530A3462D1
:10442000A762CAA84C0A5408B362B36217005508C1
:104430003462133D930256093462139D492A005792
:1044400009346213CD71C400580A34621365922A8C
:10445000CA00590B35629375AA33CA28025A093427
:104460006233726C8F005B07B3623362735C0A3431
:10447000629333CA28A31C5D07B362339B235E0695
:104480009372D7005F060C5E3302600692721303CC
:104490006108246237A24C03620A346293F38A7281
:1044A00024006307A36237B300640934625F8D2878
:1044B000D30065082462A7D2C80A660934625B95F6
:1044C00033470067092C5EA762DA49016809346244
:1044D00093F38A66006908B3629791AC066A09BBD8
:1044E0005E9B61A92A006B09346293CB91A20C6C8C
:1044F00007B36223BB066D092562A35A2AA9026E7F
:10450000072462B3A2196F082462A7A24C0A70099B
:104510002C5EB3E248390371082C5E3762DA05720B
:1045200008246293929D017307A36237F202740A12
:10453000346297E3CC2926007507246213CD3476C4
:1045400007A36293AC0A770925629355525D007800
:1045500008246213935431790A2C5E13651A3129A9
:10456000007A082462336239027B0B3C62AB324A28
:104570001AC58C047C053163737D0C3C62A351CC5D
:1045800048659424007E07147297540200000004CA
:10459000FFFF00002D2D0000303100004D4F44453D
:1045A00000000000484F4D45000000004F46460007
:1045B0003131354B000000004354524C00000000E4
:1045C0004C494D00434F4D4D000000004D4F4E00F3
:1045D0004F4E00004453500053595300554152541C
:1045E0000000000053706565640000004D696400C0
:1045F00054726163650000004D6F64650000000047
:104600004E6F646500000000547265650000000094
:10461000456E61626C6500005468656D6500000060
:10462000506861736500000052617465000000000D
:104630004465627567000000436F6E74726F6C00B2
:1046400053797374656D0000436F6D6D0000000059
:10465000506F736974696F6E00000000496E666F79
:104660000000000044656D6F000000004D6F6E6F2C
:104670000000000054656D70000000004D6F6E6911
:10468000746F72004C696D69747300004275730039
:10469000427269676874000043757272656E7400D7
:1046A00041737369737400004C61796F7574000015
:1046B00049204D617800000052504D204D61780036
:1046C000446973706C617900000000006330000081
:1046D00069646C65000000006D61696E0000000097
:1046E0006E6F6E616D6500000847000800000020D5
:1046F000580000002801000860470008580000200A
:10470000181A00004401000800A24A04000000003A
:104710000000000001020304060708090000000071
:104720000102030401020304060708090204060843
:104730000000000000000000000000000000000079
:104740000000000000000000000000000000000069
:104750000000000000000000000000000000000059
:04000005080000ED02
:00000001FF
