:020000040800F2
:10000000701D0020B9010008210C0008C10B000878
:100010000D0C0008290A0008B115000800000000B6
:10002000000000000000000000000000790E000841
:100030008D0A000800000000E1010008810F00089F
:10004000E5010008E5010008E5010008E5010008F8
:10005000E5010008E5010008E5010008E5010008E8
:10006000E5010008E5010008E5010008E5010008D8
:10007000E5010008E5010008E5010008E5010008C8
:10008000E5010008E5010008E5010008E5010008B8
:10009000E5010008E5010008E5010008E5010008A8
:1000A000E5010008E5010008E5010008E501000898
:1000B000E5010008E5010008E5010008E501000888
:1000C000E5010008E5010008E5010008E501000878
:1000D000E5010008E5010008E5010008E501000868
:1000E000E5010008E5010008E501000800F002F85C
:1000F00000F042F80AA090E8000C82448344AAF180
:100100000107DA4501D100F037F8AFF2090EBAE87D
:100110000F0013F0010F18BFFB1A43F0010318473B
:10012000446A0000646A0000103A24BF78C878C1AD
:10013000FAD8520724BF30C830C144BF04680C60ED
:10014000704700000023002400250026103A28BF35
:1001500078C1FBD8520728BF30C148BF0B60704739
:10016000642900F0D380752900F0D080002070470A
:100170001FB51FBD10B510BDDFF80CD0FFF7F8FF9D
:1001800004F0E2F800F046FB7017002003B4FFF71C
:10019000F1FF03BC00F048FBEFF30980704780F3E8
:1001A00009887047EFF30880704780F3088870472C
:1001B00040BA7047C0BA704772B60E4880F30988DB
:1001C000022080F31488BFF36F8F0B4880470B48E1
:1001D0000047FEE7FEE7FEE7FEE7FEE7FEE7FEE795
:1001E000FEE7FEE7FEE7000005480649064A074B22
:1001F00070470000701700205D100008ED00000837
:100200007017002070170020701900207013002054
:100210002DE9F04FC1F80CD0C3689D46BDE8F08FC2
:10022000002383F311882846A047002002F054FEE3
:10023000FEE702F07DFC00DFFEE710B54C1084EA1B
:10024000530404D54042C1F1000138BF491E1B428E
:1002500004D55242C3F1000338BF5B1E00F0D4F94D
:1002600014F0804F04D04042C1F1000138BF491E54
:1002700014F0004F04D05242C3F1000338BF5B1E9C
:1002800010BD00000FB47CB50C0009AA009001D08D
:100290002044401E084B7B4469460190089800F0BA
:1002A00094FA05461CB10020694600F0A1FA2846E0
:1002B0007CBC5DF814FB00006105000070B50446CD
:1002C00085690068C10601D5302600E02026C007F8
:1002D00007D070BDD4E9012130469047206A401C08
:1002E00020626D1EF6D570BD70B504468569007834
:1002F000C00707D170BDD4E9012120209047206AB2
:10030000401C20626D1EF6D570BD00002DE9F04145
:100310000646002410687529314616A510D0AFF3A3
:100320000080002802DA404213A507E031688A07FE
:1003300001D512A502E0490704D511A5012401E069
:10034000AFF3008000210A2206F1240709E0B0FB88
:10035000F2FCB0FBF2F302FB1C003030785418467C
:10036000491C0028F3D123462A463046BDE8F04117
:1003700000F0CCB9000000002D0000002B000000B0
:10038000200000002DE9F05F894604464FF0000A86
:10039000DFF874B1FB44C0F820A02046E16888472C
:1003A000002874D0252806D0D4E901219047206A7E
:1003B000401C2062F1E700265F462046E16888473E
:1003C0002028054607DB312D05D2781910F8200CBE
:1003D00008B10643F1E7B00701D526F00406C4F8DA
:1003E0001CA00027C4F818A02A2D09D0284601F027
:1003F000E7FA38B304EB8708303DC8F8185019E025
:1004000059F8041B204604EB87029161E168884794
:10041000012F054618D1E069002820DA26F02006D1
:100420001DE0D8F8180000EB800005EB40003038E4
:10043000C8F818002046E1688847054601F0C0FA70
:100440000028EED1012F0AD02E2D08D12046E168D8
:1004500088477F1C0546022F46F02006C4DBA069B2
:10046000002803DA404246F00106A061F00701D0FF
:1004700026F010066C2D0BD0682D09D04C2D39D0EC
:100480006A2D35D0742D35D07A2D33D016E038E072
:10049000E1682F4620468847B842054609D16C2FAF
:1004A00026D04FF48060E168064320468847054621
:1004B00004E06C2F1AD04FF4807006430DB3A5F101
:1004C0004100192802D8203546F400664A462946DC
:1004D000204626604E46FFF743FE80B101280BD030
:1004E000F61D26F0070000F1080956E74020E4E772
:1004F0008020D8E70020D6E706F104094DE728461A
:1005000052E7206ABDE8F09F3866000010B5203A37
:10051000C0F00B80B1E81850203AA0E81850B1E8BC
:100520001850A0E81850BFF4F5AF5FEA027C24BF72
:10053000B1E81850A0E8185044BF18C918C0BDE869
:1005400010405FEA827C24BF51F8043B40F8043B32
:1005500008BF7047D20728BF31F8023B48BF11F8E7
:10056000012B28BF20F8023B48BF00F8012B704741
:100570004FF000020429C0F0128010F0030C00F0CC
:100580001B80CCF1040CBCF1020F18BF00F8012B4A
:10059000A8BF20F8022BA1EB0C0100F00DB85FEA18
:1005A000C17C24BF00F8012B00F8012B48BF00F8E4
:1005B000012B70474FF0000200B513469446964653
:1005C000203922BFA0E80C50A0E80C50B1F1200166
:1005D000BFF4F7AF090728BFA0E80C5048BF0CC014
:1005E0005DF804EB890028BF40F8042B08BF704772
:1005F00048BF20F8022B11F0804F18BF00F8012BE4
:10060000704770477047704753EA020C00F06980EA
:100610002DE9F04B4FF00006002B1FBFB3FA83F516
:1006200003FA05F424FA05F65E4012BF1643B2FA47
:1006300082F502FA05F4C5F120051EBF22FA05FC79
:1006400044EA0C04203556EA044C4FEA144418BF1F
:10065000641C4FF000084FF00009904271EB030C4E
:1006600039D3002919BFB1FA81F701FA07F6B0FAB8
:1006700080F700FA07F6C7F120071EBF20FA07FC33
:1006800046EA0C062037B6FBF4FCA7EB0507103F43
:1006900007F01F0BCBF120060CFA0BFB2CFA06F629
:1006A00044BFB3460026202FA4BF5E464FF0000B88
:1006B0005BEA060C08BF4FF0010B19EB0B09ABFB13
:1006C000027C48EB0608C01B06FB02CC0BFB03CCEC
:1006D00071EB0C01C1E70B46024641464846BDE8B6
:1006E000F08B13B54FF000004FF00001AFF3008026
:1006F000BDE81C40704710B500F088F8006810BDD8
:1007000010B5044600F082F8046010BD2DE9F047F2
:100710000D4699469246044600F124080168880671
:1007200004D5E06921F01001216000E00120A84219
:1007300001DD471B00E00027A1697A1902EB0900DF
:10074000081AA0612078C00602D42046FFF7B6FD43
:10075000002608E0D4E901211AF806009047206A33
:10076000401C761C20624E45F4DB2078C0060AD57A
:100770002046FFF7A3FD06E0D4E901213020904791
:10078000206A401C2062381EA7F10107F4DC07E054
:10079000D4E9012118F805009047206A401C206226
:1007A000281EA5F10105F3DC2046FFF79DFD20780A
:1007B000000602D50220BDE8F0870120FBE700001B
:1007C00001694A1C02610878704700B58FB0CDE915
:1007D00001310021059105497944CDE90310114605
:1007E0006846FFF7CFFD0FB000BD0000E5FFFFFF3B
:1007F0000A6802F8010B0A607047D1E900239A42A7
:1008000002D2531C0B601070704700000048704704
:100810000C13002010B50446AFF300802046BDE85D
:100820001040FFF7B3BC000001491820ABBEFEE743
:10083000260002007047CA430260704721B18268F7
:1008400042F00102826003E0826822F001028260CD
:100850007047000010B504461248844208D10121B7
:10086000401500F01FFA0021601500F01BFA17E098
:100870000D48844208D10121001500F013FA00212F
:10088000201500F00FFA0BE00848844208D101213E
:10089000C80300F007FA00214FF4004000F002FA0C
:1008A00010BD00000024014000280140003C014030
:1008B000014600208A6802F004020AB1012000E02B
:1008C000002070470146C86C80B270470246002085
:1008D00013680B400BB1012000E000207047014677
:1008E00000208A6802F008020AB1012000E000201E
:1008F0007047000030B502460020002350680F4CBE
:1009000020400D790C6844EA05242043506090682B
:100910000B4C2040D1E902542C434D7944EA450464
:1009200020439060D06A20F470000C7C641EE4B216
:10093000234340EA0350D06230BD0000FFFEF0FFC9
:10094000FDF7F1FFF0B504460D4600200021092D0A
:1009500011DDE068A5F10A0606EB4607072606FA50
:1009600007F18843A5F10A0606EB460603FA06F1ED
:100970000843E0600CE0206905EB4507072606FA0E
:1009800007F1884305EB450603FA06F108432061A9
:10099000072A0FDA606B561E06EB86071F2606FA3B
:1009A00007F18843561E06EB860605FA06F1084352
:1009B000606322E00D2A0FDA206BD61F06EB860754
:1009C0001F2606FA07F18843D61F06EB860605FAAE
:1009D00006F10843206310E0E06AA2F10D0606EB81
:1009E00086071F2606FA07F18843A2F10D0606EBDB
:1009F000860605FA06F10843E062F0BD816841F021
:100A000008018160704721B1826842F4A0028260CF
:100A100003E0826822F4A00282607047816841F09E
:100A2000040181607047000001A003F035F9000067
:100A30004275734661756C74000000001FB50AA012
:100A40000B49C968086200BF0AA003F0AFFB0AE0C7
:100A5000684601F08FFA684601F0CBFA012002F0F7
:100A6000A7FA01F097FEF3E76374726C00000000D0
:100A7000B00C00205B4354524C5D20746872656179
:100A80006420656E74657265640D0A0070472DE917
:100A9000F041024600250026002000230024002704
:100AA00091F803C00CF00F0591F803C00CF0100C86
:100AB000BCF1000F03D091F802C04CEA050591F893
:100AC00000C0BCF1000F31D0146800202BE04FF0C3
:100AD000010C0CFA00F3B1F800C00CEA03069E42C8
:100AE00020D183004FF00F0C0CFA03F7BC4305FA3A
:100AF00003FC4CEA040491F803C0BCF1280F06D1B2
:100B00004FF0010C0CFA00FCC2F814C00AE091F896
:100B100003C0BCF1480F05D14FF0010C0CFA00FCEA
:100B2000C2F810C0401C0828D1D31460B1F800C02E
:100B3000BCF1FF0F34DD546800202EE000F1080CFA
:100B40004FF0010808FA0CF3B1F800C00CEA0306F4
:100B50009E4221D183004FF00F0C0CFA03F7BC43E7
:100B600005FA03FC4CEA040491F803C0BCF1280F19
:100B700005D100F1080C08FA0CF8C2F8148091F8BD
:100B800003C0BCF1480F07D100F1080C4FF0010879
:100B900008FA0CF8C2F81080401C0828CED3546024
:100BA000BDE8F0810246002093680B400BB10120A4
:100BB00000E000207047416170470161704700000C
:100BC00001A003F069F80000486172644661756C29
:100BD000740000000AA00C49C968086200BF0EE05A
:100BE00003F01CF9044634B102F0B3F8204603F0D8
:100BF000E3F802F0D2F8012002F0DAF900BFEFE7E3
:100C00006B65797300000000B00C002001A003F0B8
:100C100043F800004D656D4D616E61676500000031
:100C20007047000010B5002807DA0A07140E054ABD
:100C300000F00F031B1FD45403E00A07130E024AEF
:100C4000135410BD18ED00E000E400E00146002060
:100C5000034A506820F44040084350607047000049
:100C60000010024029B1064A12690243044B1A617E
:100C700004E0034A12698243014B1A617047000085
:100C80000010024029B1064A92690243044B9A615E
:100C900004E0034A92698243014B9A617047000065
:100CA0000010024029B1064AD2680243044BDA60C0
:100CB00004E0034AD2688243014BDA6070470000C7
:100CC0000010024030B500210022002400232D4DE9
:100CD0006D6805F00C0121B1042905D0082923D144
:100CE00005E0294D056022E0274D05601FE0254DF8
:100CF0006D6805F47012234D6D6805F4803402258B
:100D000005EB92421CB9214D554305600BE01D4D8A
:100D10006D6805F400351DB11C4D5543056002E0BA
:100D2000194D5543056002E0174D056000BF00BF37
:100D3000144D6D6805F0F0010909154D6B5C0568EF
:100D4000DD4045600F4D6D6805F4E061090A104D06
:100D50006B5C4568DD4085600A4D6D6805F4605147
:100D6000C90A0B4D6B5C4568DD40C560054D6D687B
:100D700005F44041890B074D6B5CC568B5FBF3F585
:100D8000056130BD0010024000127A0000093D00EC
:100D9000140000202400002021B1028842F040020B
:100DA000028004E002884FF6BF731A400280704749
:100DB00010B504461148844208D101218014FFF780
:100DC00071FF0021A014FFF76DFF16E00C4884426C
:100DD00008D101210014FFF745FF00212014FFF77F
:100DE00041FF0AE00748844207D10121C013FFF701
:100DF00039FF0021E013FFF735FF10BD003001403F
:100E000000380040003C00400246002013890B409F
:100E10000BB1012000E0002070470146888970472F
:100E20008181704710B50022028802F441520B887C
:100E30004C8823438C882343CC8823430C89234349
:100E40004C8923438C892343CC8923431A43028052
:100E5000838B4FF2FF74234083830B8A038210BD80
:100E60000021018041808180C18001814181818197
:100E7000C18107210182704710B5FFF78DF9044643
:100E800020342046FFF78BF900BF00BF002000F0A0
:100E90007FFD00BF00BF10BD10B500F001F810BD10
:100EA0000CB50020019000903348006840F4803079
:100EB0003149086000BF3048006800F400300090FD
:100EC0000198401C0190009818B90198B0F5A06FE6
:100ED000F1D12948006800F4003010B101200090E1
:100EE00001E0002000900098012843D123480068C9
:100EF00040F01000214908600846006820F0030017
:100F000008600846006840F0020008601A4840681F
:100F1000194948600846406848600846406840F4FF
:100F2000806048600846406820F47C1048600846AD
:100F3000406840F4E81048600846006840F080705F
:100F4000086000BF0C48006800F000700028F9D06D
:100F50000948406820F00300074948600846406897
:100F600040F00200486000BF0348406800F00C00F9
:100F70000828F9D10CBD00000010024000200240FA
:100F800010B500BF00BF00BF00BF00BF302000F0A1
:100F9000F3FC00BF00BF00BF01F0F0FE00BF00BFC8
:100FA00000BF002000F0E8FC00BF00BF00BF00BF92
:100FB00000BF00F031FC10BD10B500210020002260
:100FC000214B5B6803F00C0121B1042906D00829EC
:100FD00028D107E01D4B1E4C236027E01B4B1C4C07
:100FE000236023E0184B5B6803F47010164B5B68BA
:100FF00003F48032022303EB904022B9154B4343A4
:10100000134C23600DE0104B5B6803F4003323B1F5
:10101000104B43430E4C236003E00C4B43430C4CFA
:10102000236003E0094B0A4C236000BF00BF064B5E
:101030005B68C3F30313084CE15C054B1B68CB40B2
:10104000034C236010BD00000010024000127A0023
:101050000000002000093D000400002010B51348E6
:10106000006840F0010011490860084640681049D6
:1010700008400E494860084600680E4908400B4980
:1010800008600846006820F4802008600846406830
:1010900020F4FE0048604FF41F008860FFF7FCFE5C
:1010A0004FF000600449086010BD000000100240CD
:1010B0000000FFF8FFFFF6FE08ED00E021B1028816
:1010C00042F08002028004E002884FF67F731A40EB
:1010D0000280704721B1028842F00102028004E0E0
:1010E00002884FF6FE731A400280704731B1B0F8A3
:1010F000442042F40042A0F8442005E0B0F8442027
:10110000C2F30E02A0F844207047000070B500241E
:1011100000220023058C4FF6FE7635400584028CB4
:101120008388048B4FF68F752C40B51E2C400D889C
:101130002C43751E2A400D892A434D882A43144D9D
:10114000A8420BD0134DA84208D0134DA84205D099
:10115000124DA84202D0124DA84213D14FF6F77596
:101160002A404D892A434FF6FB752A408D882A4331
:101170004FF6FF652B404FF6FF552B408D892B43D3
:10118000CD892B4383800483CD888586028470BDFE
:10119000002C014000340140004001400044014067
:1011A000004801400A460021018B4FF6F7731940B1
:1011B000114301837047000070B500220023002412
:1011C000058C4EF6FF7635400584038C8488828B2F
:1011D00048F6FF752A404FF6FF452A400D884FF626
:1011E000FF7606EA05252A434DF6FF752B400D894B
:1011F00006EA05352B434D8806EA05352B430B4D92
:10120000A84202D00A4DA84208D14BF6FF752C40E7
:101210008D894FF6FF7606EA85152C4384808283FC
:10122000CD88A0F84050038470BD0000002C014020
:10123000003401400A460021818B4FF2FF731940B0
:101240004FF6FF7303EA022319438183704700219D
:10125000018041808180C180018141818181C18182
:10126000704781867047A0F84010704700220288BE
:101270001D4B98420ED01D4B98420BD0B0F1804FC1
:1012800008D01B4B984205D01A4B984202D01A4BFB
:10129000984204D14FF68F731A404B881A43174B6C
:1012A000984207D0164B984204D04FF6FF431A409D
:1012B000CB881A4302808B8883850B8803850A4B71
:1012C00098420BD0094B984208D00E4B984205D05B
:1012D0000D4B984202D00D4B984201D10B7A0386F8
:1012E0000123838270470000002C0140003401403C
:1012F0000004004000080040000C004000100040C6
:1013000000140040004001400044014000480140FA
:101310004FF6FF71818000210180C1804180017200
:10132000704721B1828942F40052828104E08289AF
:101330004DF6FF731A408281704702460020B1F5D6
:10134000007F00D100BF13880B400BB1012000E0EB
:10135000002070472DE9F04786B005460E46002470
:10136000A24600BFA1460027B08900B100BF2F46AA
:101370002C8A4CF6FF700440F08804432C82AC8920
:101380004EF6F3100440B088318908437189084350
:101390000443AC81AC8A4FF6FF400440B08904435B
:1013A000AC8201A8FFF78EFC1F48874202D1DDF80E
:1013B00010A001E0DDF80CA0A88900F4004040B1C5
:1013C0000AEBCA0000EB0A1031684900B0FBF1F8E3
:1013D00007E00AEBCA0000EB0A1031688900B0FB95
:1013E000F1F86420B8FBF0F004012009642101FB4E
:1013F0001089A88900F4004040B1322000EBC900F8
:10140000B0FBF1F000F00700044308E0322000EBED
:1014100009106421B0FBF1F000F00F0004432C81AF
:1014200006B0BDE8F087000000380140C1F30802B3
:10143000828070474FF41651016000218180C18085
:1014400001810C214181002181817047A0B03AA027
:101450003A49C968086200BF39A002F0A7FE02F04D
:10146000D3FD00F0F1FF3CA002F0A0FE00BF334826
:10147000C069044601265EE002F078FC074610A829
:1014800000F078FD052F2DD2DFE807F02D03070BC4
:10149000280001F015F8012626E000F0EBFF0126F8
:1014A00022E001A910A800F0F1FE0546022D07D1A7
:1014B00001A800F06FFD2EA002F078FE01260CE0DE
:1014C000032D04D130A002F071FE012605E000F0EA
:1014D0007FFF32A002F06AFE012605E000F0F4FE74
:1014E000012601E000BF00BF00BF66B901F00CF8A3
:1014F00048B100BF00BF1149C86900BF011B00BF50
:10150000212900D3012696B110A800F033FD03A8CD
:1015100001F02EF914AA03A910A800F0E1FE14A806
:1015200002F0A0FD00BF0548C06904460026052062
:1015300001F03EFD00BF9FE775690000B00C002080
:101540005B55495D2074687265616420656E7465E1
:101550007265640D0A0000005B55495D2064697383
:10156000706C61792072656164790D0A0000000079
:101570005B55495D20636F6D6D616E6420737562AC
:101580006D69740D0A0000005B55495D206C6F6346
:10159000616C20616374696F6E0D0A005B55495D73
:1015A000206D656E7520656E7465720D0A00000011
:1015B00001A002F071FB000055736167654661751B
:1015C0006C7400004100080218BF04200A0E18BF06
:1015D00040F001004FF07F4232EA010108BF40F0C5
:1015E0000200012808BF0520704700000348044995
:1015F000086000F58060486070470000A00E002081
:101600009400002010B5144801F074FA124810300C
:1016100002F040FB114A14210F48143001F073FA14
:101620000D48243002F036FB0B48283002F032FB24
:101630000A4A1C2108482C3001F065FA06483C3063
:1016400002F028FB0448403002F024FB02484430FA
:1016500002F020FB10BD0000C41200208529000804
:1016600010B5084808490860081D01F0C7F90020B6
:101670000549C860002104480161143001F03AFABC
:1016800010BD000097290008A012002003E000BF51
:1016900000BF00BF00BFFAE7012104F0CEBC00216B
:1016A000084604F013BA6FF05E01080704F0C5BCE9
:1016B0002DE9F04D0D4614464FF07F41B1EB440F3C
:1016C0009EBF4FF0FF312960BDE8F08D4FF0004024
:1016D00040EA0421C4F3C750783810F01F024A4B87
:1016E0004FEA601CC2F120067B44C4F3C750A0F14E
:1016F00078004FEA601003EB800053F82C3008BFED
:10170000D0E901C612D0D0F804C093402CFA06F7F5
:101710003B4387680CFA02FC27FA06F8C06807FA10
:1017200002F2F0404CEA080C42EA0006A3FB013248
:10173000ACFB01C0A6FB016101EB0C068E4234BF7D
:101740004FF0010C4FF0000CC1186144BCF1000FC8
:1017500002D0814202D903E0814201D2012000E09F
:101760000020104400F120024FEA92188006CA0CB3
:1017700040EA42304F03C5F8008004F085FA824603
:10178000384604F099FA6FF0120104F056FC07464F
:10179000304604F091FA6FF0250104F04EFC8346C8
:1017A0003946504604F02AF9594604F027F900F565
:1017B00000666FF30B065146304604F097FB39463E
:1017C00004F094FB594604F087FB104904F088FAB2
:1017D00007460F49304604F083FA394604F00EF903
:1017E00007460C49304604F07BFA394604F006F906
:1017F00014F0004F08BFBDE8F08DC8F1805180F0B3
:1018000000402960BDE8F08DF8520000DB0FC92FC1
:1018100022AAFD290000C92F70B500BF00BF3020EB
:1018200000F0B6F800BF00BF1048006800F4006088
:1018300098B1FEF7B1FC0446203C25464FF080707D
:10184000E8612046FEF7ABFC01F0D6F910B108487C
:10185000A86101E00748A86170BD00BF00BF00207B
:1018600000F096F800BF00BF00BFF5E704ED00E010
:1018700033020008370200082DE9F041064600BF98
:1018800000BF002030773446356900BF00BF2F68A5
:101890003946032001F0EEF900BF00BF3D46A868BD
:1018A000A1688842F3D82560686860606068046059
:1018B0006C602046BDE8F0812DE9F041064600BF8E
:1018C00000BF002030773446356900BF00BF2F6865
:1018D0003946032001F0CEF900BF00BF3D46A8689D
:1018E000A1688842F3D2256068686060606804601F
:1018F0006C602046BDE8F08170B506460D462C466A
:1019000000BF00BF00BF302000F04EF800BF00BF96
:1019100000BF207F052812D005DC48B103280AD07B
:1019200004281DD111E0072811D00C2818D10DE092
:1019300001F057FA70BD0020616B086011E0606B28
:101940008168491C816000BF00BF00BF00BF00BFAD
:10195000D4E900010860D4E90010486000BF00E04D
:1019600000BF00BF4FF0FF3060632046FFF7A4FFC9
:1019700001F037FA00BFDDE7C1B281F3118870478B
:10198000C1B281F311887047C1B281F311887047E9
:10199000C1B281F311887047C1B281F311887047D9
:1019A000C1B281F311887047C1B281F311887047C9
:1019B000C1B281F311887047C1B281F311887047B9
:1019C00030380A2801D201207047002070470000FB
:1019D00003460A4802888088191A084890F90300CB
:1019E000002800DA494200E011440029FCDB00E055
:1019F000891A9142FCDA88B2704700005C0000202E
:101A000070B50446204600F00FF806460548807879
:101A100000FB06F54FF46160B5FBF0F100FB1150DF
:101A200070BD00005C00002070B504462046FFF742
:101A3000CFFF05464FF46160684303490988B0FB56
:101A4000F1F080B270BD00005C00002000B970476A
:101A5000114902680A6082888A80098819B94FF49E
:101A600080410D4A11800C49897811B901210A4A37
:101A700091700949C97811B90121074AD170064905
:101A80008988054A128891FBF2F302FB1311024A7E
:101A9000918000BFDBE700005C00002000B97047C8
:101AA00003490A6802604968416000BFF7E7000027
:101AB000400000202DE9F04104460D464FF46161DD
:101AC0000022A4FB016305FB013104FB02114FF06E
:101AD000806200233046FEF7B0FBBDE8F0812DE9BF
:101AE000F04704461CB900200146BDE8F0874FF4DA
:101AF0006161206980FB0130A1895D1840F1000619
:101B0000C8210020A5FB012306FB013105FB0010C5
:101B10004FF480734FF0000CA2FB031900FB0390FD
:101B200002FB0C001B02A1FB037900FB039001FBED
:101B30000C014FF4616263463846FEF77EFBD4E742
:101B40002DE9F04104460D464EF660210022A4FB2B
:101B5000016305FB013104FB02114FF048420023F1
:101B60003046FEF76AFBBDE8F081000010B515486D
:101B7000FFF76CFF062304220021134800F0D6F97A
:101B8000022301220021114800F0D0F90020104961
:101B900008800C48807888700A48808888800948C6
:101BA000C078887100210B4A116051600A4A1160A7
:101BB00051600020094908800949087009490870E6
:101BC00010BD0000D8620008600900206C090020E8
:101BD0004000002048000020500000205800002055
:101BE0005A0000205B0000202DE9F04F93B083469F
:101BF00089461446B9F1000F03D014B199F80000DA
:101C000030BB062304220021AD4800F08FF90223E7
:101C100001220021AB4800F089F90020AA49088080
:101C20000021AA4A11605160A94A10605060A94978
:101C30000880A9490870A949087034B120806080E3
:101C40000120207160710020A07113B0BDE8F08FF9
:101C5000A248007860B9B9F904003C22514200F072
:101C60004FF901460190974800F067F9109002E0A3
:101C700094480068109099480078401C9749087073
:101C800008460078052801D300200870C821109864
:101C900080FB01124FF480734FF0000CA1FB030E88
:101CA00002FB03E201FB0C234FF4803C00210246BF
:101CB00060468C46A2FB001E03FB00E002FB0C0307
:101CC0004FF0010C0022A1FB0C0E03FB0CE301FB07
:101CD00002314EF660220023CDE90001FEF7ADFA95
:101CE00007468846BBF1000F54D09BF81600002829
:101CF00050D05846FFF7F3FE05460E46764800786A
:101D000030B9724860C0724860C0012072490870E2
:101D10006E48D0E90010C91940EB08006B4AC2E9CF
:101D200000106B4A05CA281A66EB0201CDE90C01C6
:101D3000674860C0DDE90C01FFF702FF0B906349C3
:101D400003C9401B61EB0601CDE90E01DDE90E017F
:101D5000FFF7B0FE0A9003210A9890FBF1F10B986F
:101D6000A1EB400009904FF416725142099800F01F
:101D7000C7F80990BBF81400FFF742FE52490880EB
:101D80000A880999501800F0AFF80890514908984E
:101D9000088018E00020504908704C48D0E9001035
:101DA000C91940EB0800494AC2E900100020464921
:101DB0000880114603C9FFF77DFE0890089800F0DF
:101DC00093F844490880B9F902004FF49662002163
:101DD00000F096F801460190394800F0AEF81190F5
:101DE0003C48008803F068FF3D49009003F078FF0D
:101DF0003C49019003F06AFE0790079802F004FB4B
:101E00000690079801F0C4F90590119803F03CFF83
:101E10000090069903F064FF019003F019FF04900D
:101E2000119803F031FF0090059903F059FF0190DC
:101E300003F00EFF82460498002801DB049801E0BD
:101E4000049840420390BAF1000F01DB504601E0D4
:101E5000CAF1000002904FF47A710398484340F6AB
:101E6000E441B0FBF1F080B240F2B63200210190C3
:101E700000F051F820804FF47A710298484340F600
:101E8000E441B0FBF1F080B240F2B63200210190A3
:101E900000F041F860800121049801EBE07008B186
:101EA000012000E000202071012000EBEA7008B161
:101EB000012000E0002060710120A07100BFC4E695
:101EC000600900206C09002040000020480000202C
:101ED00050000020580000205A0000205B00002025
:101EE000DA0F49400000E14401E000F5616000289C
:101EF000FBDB01E0A0F56160B0F5616FFADA7047D5
:101F000003468B4201DA08467047934201DD1046D2
:101F1000FAE71846F8E703468B4201DA08467047AD
:101F2000934201DD1046FAE71846F8E700B970471A
:101F300001604260836000BFF9E702460AB90846C3
:101F400070471068884208DAD2E90003184410602C
:101F5000106888420CDD11600AE01068884207DDD5
:101F600093681068C01A10601068884200DA116027
:101F70001068E5E710B5044604B910BD00F0E2FEB4
:101F8000034B0FCB84E80F0000F0FEFE00BFF4E728
:101F90002800002010B504462146012000F002F878
:101FA00010BD000070B505460C4604B970BD00F0C8
:101FB000C9FE0D4821680160A18881800573806891
:101FC000401C09498860608808494883A088888344
:101FD00005488068C8620448007B81F8300000F042
:101FE000D3FE00BFE2E7000028000020A40000208C
:101FF000704710B5A4B004460CB924B010BD01A8B8
:1020000000F0B6FB10A802F09FF810A800F067F8E7
:1020100018901899029800F06FFC8DF864001898D9
:1020200008B9012000E000208DF865009DF86500EA
:1020300001F07FFE20788DF858006088ADF85A00D6
:10204000A088ADF85C000EAA16A910A8FFF7CCFD79
:1020500022A8FFF723FD9DF83E0038B19DF86500EA
:1020600020B101F062FE08B1012000E000208DF8EF
:102070003E000EA801F004FFBDF84400ADF8680072
:10208000BDF84000ADF86A00BDF83800ADF86C004E
:1020900018981C909DF864008DF874006088ADF865
:1020A0007600A088ADF87800BDF84C00ADF87A0055
:1020B000BDF88800ADF87C00BDF85400ADF87E0096
:1020C000149820909DF8560008B1012000E00020EF
:1020D0008DF884001AA800F079FB00BF8DE7014657
:1020E00009B9012070470022888842F21073984293
:1020F00001D242F00102B1F9000040F2DC539842F3
:1021000004DCB1F900005B42984201DA42F00202BD
:102110001046E7E7704700001BA002F047F800F008
:10212000E5FB1FA002F042F8FFF7F4FF23A002F046
:102130003DF801F0C9FD28A002F038F8FFF716FDC0
:102140002BA002F033F8FFF753FF2FA002F02EF878
:1021500000F0B8FD33A002F029F801F04FFE00F0C6
:1021600065FB00F0EFFB36A002F020F800F0FAFB70
:102170003DA002F01BF805E04FF47A7000F018FF64
:1021800000F016FBF8E700005B424F4F545D206102
:10219000707020696E697420626567696E0D0A004F
:1021A0005B424F4F545D207374617465206D6163B1
:1021B00068696E65206F6B0D0A0000005B424F4F2F
:1021C000545D206661756C74206D616E6167657227
:1021D000206F6B0D0A0000005B424F4F545D206280
:1021E0006F61726420696E6974206F6B0D0A000064
:1021F0005B424F4F545D20616C676F20696E69745C
:10220000206F6B0D0A0000005B424F4F545D20664B
:102210006173746C6F6F7020696E6974206F6B0DE1
:102220000A0000005B424F4F545D20636869626999
:102230006F7320696E6974206F6B0D0A00000000D7
:102240005B424F4F545D20636F6E74726F6C2074ED
:10225000687265616420737461727420726571754F
:1022600065737465640D0A005B424F4F545D2075C1
:10227000692074687265616420737461727420727D
:1022800065717565737465640D0A000070B5044668
:102290000D4600F0BFF806460EB104B10DB900209E
:1022A00070BD20682860A088A880307B50B10128CC
:1022B00007D1207808B9012000E000202870022012
:1022C000EEE700BF0020EBE70448007C012804D9BA
:1022D0000248007C401E0149087470472009002014
:1022E0002DE9F74F144614B13748007C08B9BDE812
:1022F000FE8F3548007C401EC7B2334850F8276037
:10230000153010F80780001F10F807A03068206013
:10231000AAEB080084F828002B48007C84F82900E8
:102320002948007C012801D9012000E0002084F820
:102330002A0084F82B80307A84F82C0000253EE0B7
:1023400008EB050000F0FF0B20A105EB4502201D66
:1023500040F822101DA105EB450200EB8200416010
:10236000002105EB4502201D00EB82000172307A4E
:10237000584522DD706800EB0B1905EB4502201D66
:10238000D9F8001040F822102B464846DDE900122B
:1023900000F0ECF805EB4502211D01EB82014860DD
:1023A000D9F8080008B1022100E0012105EB45023F
:1023B000201D00EB8200017200BF681CC5B2032D16
:1023C000BED300BF93E700002009002000000000FA
:1023D00070B500F01FF805460DB1A86800B970BDD2
:1023E0000B48007C042800D3F9E70948047C08491D
:1023F000A86841F824000021054811300155001D4E
:1024000001551538007C401C0149087400BFE6E7FF
:10241000200900200B48007C08B9002070470948BB
:10242000007C401EC3B2074850F823101130C25C34
:10243000087A904201DC0020F0E7486800EB0210C7
:10244000ECE70000200900200121084A1174084926
:102450001160002007E00022044911310A54091DCF
:102460000A54411CC8B20428F5D370472009002043
:102470007862000870B51148007C00B970BD0F4843
:10248000007C401EC4B20D4850F824501130005D4D
:10249000401C297A884208D208481130005D401C4F
:1024A000C1B206481130015503E000210348113044
:1024B000015500F037F900BFE0E7000020090020D7
:1024C00070B51048007C00B970BD0E48007C401EFD
:1024D000C4B20C4850F824501130005D40B1094896
:1024E0001130005D401EC1B206481130015505E0B3
:1024F000287A401EC1B203481130015500F012F98C
:1025000000BFE1E72009002010B51748007C08B99A
:10251000002010BD1448007C401EC3B2124850F881
:10252000231009B90020F4E7002217E0486800EB07
:102530000210407B07280BD2DFE800F00B0C0405EB
:102540000607080000BF00BF00BF00BF0120E0E792
:1025500000BF00BF00BF00BF501CC2B2087A90424B
:10256000E4DC0020D5E70000200900202DE9F84335
:1025700006460F4614461D4616B957A0BDE8F88317
:10258000032D01D354A0F9E7707B072870D2DFE850
:1025900000F09D040B2B4B7086001FB1387808B1FA
:1025A0004EA0EBE74EA0E9E7E4B194F82800C8B1EB
:1025B000E08B0A21B0FBF1F201FB1208B0FBF1F94C
:1025C00005EB4501474A02EB81004B4646A20C2130
:1025D000CDF80080FDF756FE05EB4500414901EBC3
:1025E0008000CBE742A0C9E7E4B194F82800C8B165
:1025F000208C0A21B0FBF1F201FB1208B0FBF1F9CB
:1026000005EB4501374A02EB81004B4636A20C210F
:10261000CDF80080FDF736FE05EB4500314901EBB2
:102620008000ABE732A0A9E704B3A0894FF47A7128
:10263000B0FBF1F201FB12006421B0FBF1F8A089BC
:102640004FF47A71B0FBF1F905EB4501254A02EB35
:1026500081004B4628A20C21CDF80080FDF712FE28
:1026600005EB45001F4901EB800087E725A085E7C2
:102670002BE094B194F8280078B105EB4501194A94
:1026800002EB810021A20C21636AFDF7FBFD05EB43
:102690004500144901EB800070E71DA06EE794B17E
:1026A00094F8280078B1638C05EB45010D4A02EBE4
:1026B000810018A20C21FDF7E5FD05EB4500094955
:1026C00001EB80005AE715A058E700BF706808B119
:1026D000706853E700A051E7000000004F4E000073
:1026E0004F4646003C0900202533752E2575000015
:1026F0002D2D2E2D000000002532752E253175560A
:10270000000000002D2D2E2D56000000256C6400C9
:102710002D2D000025303575000000002D2D2D2DAC
:102720002D00000010B5114C247C04B910BD0F4CD5
:10273000247C641EE0B20D4C54F820301134215C2E
:10274000241D225C914201DA0A4605E0D41CE4B261
:102750008C4201DC8C1EE2B21C7A032C00D80022D1
:10276000024C1534225400BFE0E70000200900208D
:1027700010B5044604B910BD00F0E4FA342204494F
:102780002046FDF7C3FE00F0FFFA00BFF3E70000AC
:10279000A400002010B500F0D5FA04484068401CA1
:1027A0000249486000F0F0FA10BD0000A4000020CB
:1027B00010B500F0C7FA04480068401C02490860E0
:1027C00000F0E2FA10BD0000A400002010B504469D
:1027D00004B910BD00F0B6FA2088124988816088DB
:1027E000C881A0880882A0684861207B0876E089BB
:1027F0004883208A8883608AC883A08A0884E08A04
:102800004884A0694862207F81F8280006488068D3
:10281000C8620548007B81F8300000F0B5FA00BFBF
:10282000D7E70000A40000202800002010B517A062
:1028300001F0BCFC00204FF0E02108611A4800685C
:102840004FF47A71B0FBF1F0401E4FF0E021486187
:1028500000208861401E0821002807DA0A07140EAC
:10286000124A00F00F031B1FD45403E00A07130E93
:102870000F4A135400BF0FA001F098FC07204FF03F
:10288000E021086112A001F091FC10BD5B424F4FA6
:10289000545D207379737469636B2063666720628B
:1028A0006567696E0D0A00000000002018ED00E069
:1028B00000E400E05B424F4F545D2073797374690C
:1028C000636B2063666720646F6E650D0A0000000D
:1028D0005B424F4F545D207379737469636B20734F
:1028E0007461727465640D0A0000000000200149E3
:1028F0000870704738000020024629B10320104BB1
:1029000018701846007870470D48007830B10128DB
:1029100008D002280CD003280BD10BE00120084B73
:10292000187008E0052A02D30220054B187002E057
:1029300001E000BF00BF00BF01480078E3E70000EE
:102940003800002008B50020044B81224FF4487164
:102950000090034800F074FA08BD00003D0A00082A
:10296000E000002008B50020044B80224FF4A46151
:102970000090034800F064FA08BD00004D14000800
:102980000004002070B504460D460022294620466A
:1029900000F014F870BD2DE9F04104460D461646CE
:1029A00000F0E5F932462946204600F007F80746D0
:1029B00000F00EFA3846BDE8F0810000F0B503469D
:1029C0000E46174600BF00BF0B4804684168081B4D
:1029D000984201D20020F0BDC81AA6F1010C20EAED
:1029E0000C05EA1BA24201D38A4201D90020F2E77A
:1029F000014842602846EEE7940000200449096837
:102A0000016003494968024A1268891A41607047A7
:102A10009400002070B588B004460D46002600BF23
:102A200000BF314840F826402663A563204601F0E8
:102A3000B7FC00BF246064600020A06000BF04F108
:102A4000280000BF0060406000BF00BF00BF002042
:102A5000606300BF04F1100000BF00604060711EA1
:102A6000816000BF0021C16000BF2049C969002208
:102A70000161426100BF00BF0020C4F8E40000BF54
:102A80001C221B4901A8FDF741FD68680290A86857
:102A90000390079401A904F1900000F057FAE06058
:102AA00004F12801E26802F1240001604A684260F2
:102AB00042681060486000BF0120E168087700BFED
:102AC00000BF1C220A491C3101A8FDF71FFDE86860
:102AD000029028690390079401A904F13C0000F0DA
:102AE0007AFA08B070BD0000A40C0020B00C0020E1
:102AF0003C64000800BF00BF00BF0060406000BF32
:102B000000218160704770B505460E461446234685
:102B100004223146284600F001F870BD10B500BF10
:102B200000BF0024046041608260C36010BD0000EB
:102B300070B50C4CE568204600F012FB06460120FB
:102B40003077E660A868012801D100BF00BF2846A1
:102B5000FEF792FE054600BF00BF29463046FDF74E
:102B600057FB70BDB00C00202DE9F04106460D4D1D
:102B7000EF6800BF00BF00BF00BF3E77284600F0EF
:102B8000EFFA044601202077EC60A068012801D10B
:102B900000BF00BF00BF00BF39462046FDF738FB2D
:102BA000BDE8F081B00C002070B586B006460C463A
:102BB0000F48C568B4F1FF3F13D02B460D4A21469C
:102BC000684600F053FA3046FFF7CEFF00BF00988A
:102BD00008B1012000E0002010B1684600F02EFA94
:102BE00002E03046FFF7C0FF686B06B070BD000022
:102BF000B00C0020F918000810B50549CA6808682B
:102C000083689468A34201D9012010BD0020FCE72D
:102C1000B00C002010B5044600BF00BF2046FEF7F0
:102C20004BFE10BD2DE9F04104460F46104EF568ED
:102C300000BF00BF6763A068A968884203D8204628
:102C4000FEF73AFE11E02846FEF716FE0546A86894
:102C5000012801D100BF00BF01202077F46000BF30
:102C600000BF29462046FDF7D3FABDE8F0810000F9
:102C7000B00C002070B505460C4600BF002D02DDEB
:102C8000022D09DC08E014B104F0030020B100BFFC
:102C9000024800F005F800BF00BF70BD8C6300085B
:102CA00000BF72B600BF0549C1F8E40000BF00BF15
:102CB0000321034A117000BFFEE70000B00C0020A2
:102CC000A00C002070B586B001201B4908700024BC
:102CD00005E000211848001D40F82410641C002C59
:102CE000F7D0154D083500202860684600F082F8BE
:102CF000042600BF00BF684600F088F8684600F070
:102D00008DF8761E002EF6D10098286000BF00BF17
:102D100000BF00BFFEF76AFCFEF7A2FCFEF772FCE4
:102D200000BF06490648FFF775FE022002490870F9
:102D300000F03CF806B070BDA00C002058630008FD
:102D4000B00C002010B500BF3020FEF719FE00BF08
:102D500010BD10B500BF3020FEF716FE00BF10BD3D
:102D600010B500BF3020FEF723FE00BF10BD10B528
:102D700000BF3020FEF720FE00BF10BD10B500F0F0
:102D80008DF900BF00BF10BD10B500BF00BF00BF70
:102D90000020FEF7F5FD00BF10BD10B500BF00BF5D
:102DA00000BF0020FEF7F0FD00BF10BD10B500BF52
:102DB00000BF00BF0020FEF7EFFD00BF10BD10B543
:102DC00000BF00BF00BF0020FEF7F2FD00BF10BD36
:102DD00010B500BF00BF00BF0020FEF7EDFD00BF33
:102DE00010BD10B500BF00BF0020FEF7DDFD00BF25
:102DF00000BF10BD4FF0FF310160002141608160D4
:102E0000C1600022026142617047000000BF0249B8
:102E10004968816070470000001000E070B504460A
:102E200000BF054840680546044829468268204698
:102E300001F0AEFB70BD0000001000E0A00C00200F
:102E40002DE9F04F89B00546884691461E46DDF8CB
:102E500048A000BF00BF00BF00BF00BF00BF05EB20
:102E60000807AB46A7F16000089000BF00BF1C2216
:102E7000174901A8FDF74AFB02950397CDF810907A
:102E80000596CDF818A001A9089800F05FF804464F
:102E900000BFA4F12400E060E0680660E068C0F8CC
:102EA00004A00C48E168086200BFFFF759FF2169E0
:102EB00001F1280004F1240100F063F9002120460B
:102EC000FFF7B0FEFFF77BFF204609B0BDE8F08FAB
:102ED0006C6500082102000810B50446FFF740FFAA
:102EE000204600F001F810BD70B5064600F028F845
:102EF0000446666300BF00BF09E000BF00BF00BF1B
:102F000000BFA06B0168A1630546FFF783FE04F1D3
:102F100038000168814201D0012100E00021002930
:102F2000EBD1A07F28B9E06A18B904F1240000F0C1
:102F30001EF90F20FFF718FE00BF00BF70BD000094
:102F40000148C06870470000B00C002070B504460E
:102F50000D4600BF00BF00BF00BF68686061A86881
:102F6000A061E868A0600220207700206077A8694F
:102F700010B1A869206101E00C4820610020E062E6
:102F8000206304F13800006000BFE868206500207D
:102F9000E064A0640120A0772868206204F13C006E
:102FA00000F0ECF800BF00BF204670BDB00C002060
:102FB00010B50446FFF7D4FE204600F003F8FFF7F3
:102FC000FEFE10BD10B5044600BF00BF214608201C
:102FD000FFF7EAFD10BD70B504460D4629462046B0
:102FE00000F004F80646FFF715FE70BD70B5044604
:102FF0000D4600BF00BF00BF00BF00BF00BF294695
:103000002046FFF7A3FF044600BFA0692438E06014
:103010002869E16808606869E16848600648E16815
:10302000086200BF216901F1280004F1240100F0C9
:10303000A8F8204670BD00002102000870B50446C3
:10304000094D00BF00BF00BF00BF20688068A168B5
:10305000084421688860204600F05EF80020206067
:10306000401EA86070BD0000C00C00202DE9F0419A
:1030700004460D4616461F46DFF81C8000BF00BF01
:103080002761E660002060612A462146404602F042
:10309000A7FCBDE8F0810000C00C002070B51D4CFD
:1030A000E068401CE06020460168814201D00121B7
:1030B00000E0002161B320688068401E21688860BC
:1030C00022E02568284600F027F80020286000BF8D
:1030D00000BF00BFFEF764FC00BF00BF00BF284672
:1030E000D5E90321904700BF00BF00BF3020FEF7A5
:1030F00057FC00BF00BF00BF686920B129462046C9
:103100006A6900F010F800BF206880680028D8D0F5
:1031100070BD0000C00C0020D0E900121160D0E9A1
:1031200000215160704710B50346186804E000BFE5
:1031300000BF8468121B006884689442F7D300BF04
:103140008A6008600C6864684C604C68216041606B
:1031500000BF8468A41A84604FF0FF349C6010BDE7
:103160000146086802680A600A6851607047D0E941
:1031700000121160D0E9002151607047006040608A
:103180007047086042684A604A6811604160704751
:103190002DE9F843044602464F486946B0EB420F1A
:1031A00009D94FF0E640B0EB420F94BF00204FF03A
:1031B000FF30009030E0494B22F00040834271D94B
:1031C0004749204602F08CFD02F056FE804602F090
:1031D0003FFD00F0030000904249404602F080FDB0
:1031E00005464149404602F07BFD06463F494046C0
:1031F00002F076FD07463E49404602F071FD214649
:1032000002F06AFE394602F071FE314602F06EFEAF
:10321000294602F06BFE04462546009C002C45DB47
:10322000294614F0010F08461CD002F059FD06464D
:10323000304902F055FD304902F04EFE314602F0B1
:103240004FFD2E4902F0DAFB314602F049FD2946D6
:1032500002F046FD294602F0D1FB14F0020F1CD00B
:10326000BDE8F88302F03CFD0546254902F038FD33
:10327000244902F0C3FB294602F032FD224902F044
:10328000BDFB294602F02CFD4FF07E5102F0B6FB4B
:1032900014F0020F08BFBDE8F88380F00040BDE8DD
:1032A000F883FFE71046FEF703FAB4E76800B0F1D1
:1032B0007F4F3CBF4FF07E50BDE8F88307D14FF001
:1032C0000100FDF71DFABDE8F843FEF7E8B928460E
:1032D000BDE8F843FEF7E0B9B61F927E490E4946B5
:1032E00083F9223F1A61342C0020A23300A0FD395B
:1032F0000000C93F336D4C39DA82083CA0AA2ABECF
:10330000B93AB2BACA9F2A3DDDFFFFBE70B5044686
:1033100004B970BD01211348FDF775FB00BF022100
:103320001048FDF7D3FA0028F9D00E48FDF7CAFA85
:10333000064602210B48FDF77EFA40F6E440704352
:1033400040F6FF71B0FBF1F505EB0510C0F34F003F
:10335000054988800846016821608088A08000BFF8
:10336000D7E70000002401407000002000B587B0BE
:1033700001214FF40170FDF785FC4FF40040FDF78B
:1033800065FC0120ADF8040002208DF80600002045
:103390008DF8070001A91D48FDF779FB1C48FDF7D2
:1033A00059FA002002908DF80C008DF80D004FF4B2
:1033B000602004900020059001208DF8180002A9DB
:1033C0001348FDF797FA0723012200211048FDF763
:1033D000B9FA01210E48FDF731FA0D48FDF70EFB51
:1033E00000BF0B48FDF77BFA0028FAD10848FDF72B
:1033F00015FB00BF0648FDF75BFA0028FAD1054926
:1034000008804880888007B000BD000000080140A7
:10341000002401407000002000200149087070471E
:103420007E00002001480078704700007E000020E8
:1034300001490870704700007E000020002001490B
:10344000087070477E0000207047000008B50146F4
:1034500001EB8100034A02EB4000D0F80500009028
:1034600008BD0000400C002008B501210C20FDF72C
:1034700009FC02208DF8020048208DF8030003208B
:10348000ADF8000069460548FDF701FB0220ADF8E4
:10349000000069460248FDF7FAFA08BD000C014039
:1034A0000008014010B50446064A02EBC4029188A8
:1034B000044A52F83400FDF775FB08B9012010BD2D
:1034C0000020FCE7E062000870B500253DE005EB58
:1034D00085001F4901EB40042846FFF7E3FF06463D
:1034E0000021A171E17121722078B04202D1002047
:1034F000607014E06078401C6070607805280ED31E
:10350000002060702670667126B1608020710121F4
:10351000A17104E00121E171002060802071207818
:1035200088B160884FF6FF71884202D26088401CE3
:103530006080207938B96088B0F5167F03D3012008
:10354000207101212172681CC5B2032DBFDB70BD43
:10355000400C00201020014908607047100801400D
:103560001020014908607047140801402DE9F0411E
:1035700004460CB9BDE8F081032000F0A7F8074627
:10358000042000F0A3F840EA07218D1015490978BE
:10359000A1B1154909886E1AB6F5005F05DD13491A
:1035A0000968491E114A11600BE016F5005F08DA40
:1035B0000E490968491C0D4A116002E00121094ABF
:1035C000117009490D8025804FF461616943C1F391
:1035D0008F3161800549096861600121217200BF56
:1035E000C8E7000090000020880000208C00002028
:1035F00000B587B0012141F20400FDF743FB032031
:103600008DF81A0010208DF81B00ADF8180006A9DF
:103610002948FDF73CFA18208DF81B002020ADF852
:10362000180006A92448FDF732FA8020ADF81800EA
:1036300006A92148FDF72BFA04208DF81B00402035
:10364000ADF8180006A91C48FDF721FAFFF782FF24
:103650001A48FDF7ADFB01A8FDF702FC0020ADF80C
:1036600004004FF48270ADF806000020ADF80800A9
:103670000220ADF80A000120ADF80C004002ADF8C0
:103680000E001820ADF810000020ADF81200072041
:10369000ADF8140001A90948FDF7C4FB0121074852
:1036A000FDF77AFB002006490880064908600649B4
:1036B000087007B000BD0000000801400030014064
:1036C000880000208C0000209000002070B5044687
:1036D000FFF746FF44F0800000F012F8002000F0F1
:1036E0000FF8054600BF80210448FDF78DFB002838
:1036F000F9D1FFF72FFF284670BD000000300140D0
:1037000010B5044600BF02210A48FDF77DFB0028E2
:10371000F9D021460748FDF783FB00BF012105488A
:10372000FDF772FB0028F9D00248FDF776FBC0B226
:1037300010BD0000003001402DE9F04707460E465D
:103740001446384602F076F86579E806050E97F8D3
:1037500022002844C5B2102040EA2511384602F064
:1037600014F805F00F01384602F00FF8A07940F088
:10377000B001384602F009F800BF94F80480D4F88C
:1037800000904FEAC860010E4A46384602F007F83A
:10379000701EC6B2002EF0D1384601F0E3FF0120C2
:1037A000BDE8F08701B500E000BF0098411E009120
:1037B0000028F9D108BD000070B50446074800682C
:1037C0000749B0FBF1F0451C02E02846FFF7EAFF8D
:1037D000201EA4F10104F8D170BD000000000020FB
:1037E000C0C62D002DE9F04104460E4615461F4681
:1037F000A6F10900072849D2DFE800F0040B1448BD
:103800001E3242002249204602F0B8F80120BDE8ED
:10381000F081204602F082F81E49204601F0CCFFDC
:103820000120F4E70DB91C4800E01C480146204681
:1038300001F0C2FF0120EAE745B91949204601F02D
:10384000BBFF2068807C84F8220007E015492046F1
:1038500001F0B2FF2068C07C84F822000120D6E786
:10386000204601F0E7FF8121204601F08EFF294626
:10387000204601F080FF204601F074FF0120C6E7DA
:103880003A4629462046FFF757FFC0E70020BEE72B
:103890001063000828630008F8620008FD62000851
:1038A00002630008096300082DE9F04106460D4651
:1038B00014461F462C2D29D008DC282D0DD0292D8B
:1038C0000ED02A2D17D02B2D32D11EE02D2D21D038
:1038D0004C2D23D04D2D2BD125E000F02FF828E0E2
:1038E00003E04FF47A70FFF767FF201EA4F1010197
:1038F000CCB2F6D11DE002E00A20FFF75DFF201EEA
:10390000A4F10101CCB2F7D113E000BF0220FFF710
:1039100049FF0EE00520FFF74FFF0AE02146402057
:1039200000F02AF805E02146802000F025F800E0AC
:1039300000BF00BF0120BDE8F081000008B50121F3
:103940000820FDF79FF9C020ADF8000003208DF896
:10395000020014208DF8030069460648FDF797F829
:103960000121402000F008F80121802000F004F837
:1039700008BD0000000C014011B1034A106002E0D4
:10398000014A121D10607047100C014070B50446CA
:1039900004B970BD11482168016061684160A07977
:1039A00018B1208800F096F800E00020054629466E
:1039B0000B48FDF756FCA07918B1608800F08AF832
:1039C00000E00020054629460548FDF74CFC6279D9
:1039D0002179A07900F08EF800BFDAE776000020A8
:1039E000002C014000B589B000203649088048808D
:1039F00001200871487100208871012140F60D00F6
:103A0000FDF740F903208DF822004FF41060ADF867
:103A1000200018208DF8230008A92B48FDF737F85F
:103A20004FF47050ADF8200010208DF8230008A945
:103A30002648FDF72CF801221146002000F05AF824
:103A400005A8FDF765FC0020ADF81400ADF81600E0
:103A500040F65F10ADF818000020ADF81A008DF8A0
:103A60001C0005A91A48FDF701FC01A8FDF7EFFBB2
:103A70006020ADF804000120ADF806000020ADF88C
:103A80000A00ADF80C0001A91148FDF73FFB01A9A0
:103A90000F48FDF791FB08210D48FDF783FB082136
:103AA0000B48FDF7C7FB01210948FDF707FB012182
:103AB0000748FDF71BFB01210548FDF70BFB09B08B
:103AC00000BD00007600002000080140000C01400D
:103AD000002C01400146B1F57A7F02D34FF4166005
:103AE00070474FF4166048434FF47A72B0FBF2F01F
:103AF00080B2F5E770B506460C461546A6B94FF4F8
:103B000080612048FDF757F84FF400611D48FDF72C
:103B100052F84FF400511B48FDF74DF84FF4805117
:103B20001848FDF748F870BD54B14FF4806115484E
:103B3000FDF741F84FF400611248FDF73EF809E047
:103B40004FF480610F48FDF738F84FF400610D48DD
:103B5000FDF731F855B14FF400510A48FDF72BF845
:103B60004FF480510748FDF728F809E04FF4005161
:103B70000448FDF722F84FF480510248FDF71BF886
:103B800000BFD0E7000C014000B585B0012144F230
:103B90000400FDF777F84FF40070ADF81000032033
:103BA0008DF8120018208DF8130004A91748FCF7AF
:103BB0006EFF4FF48060ADF8100004208DF8130004
:103BC00004A91248FCF763FF6846FDF733FC4FF485
:103BD000E13000900020ADF80400ADF80600ADF82B
:103BE0000800ADF80C000C20ADF80A006946084842
:103BF000FDF7B0FB01210648FDF793FB00200549C6
:103C0000086001200449087005B000BD00080140AB
:103C10000038014080000020840000200148007826
:103C2000704700008400002010B5044604B910BDA0
:103C300003E0207800F016F8641C20780028F8D102
:103C400000BF40210548FDF778FB0028F9D0044863
:103C50000068401C0249086000BFE8E700380140E6
:103C60008000002010B504460848007800B910BD57
:103C700000BF80210648FDF760FB0028F9D02146EF
:103C80000348FDF7D3FB00BFF1E7000084000020EC
:103C900000380140006070470446FFF7BFFF40B1A5
:103CA00005A0FFF7C1FF2046FFF7BEFF05A0FFF705
:103CB000BBFF00BFFEE700000D0A5B4641554C54B8
:103CC0005D2000000D0A000010B5FFF7B7FBFFF7FD
:103CD000BBFB00F061FA00F0EBF800F01FF800F019
:103CE00061FA00F02DF810BD3EB5044604B93EBDA2
:103CF0006846FFF73BFCBDF800002080BDF80200DD
:103D0000608001986060002020819DF80800A0720A
:103D100000BFECE710B5FFF76BFC10BD10B5FFF767
:103D20007BFB0020FFF784FB10BD10B5FFF77AFB8B
:103D300010BD10B504462046FFF77AFB10BD000009
:103D400010B5FFF791FB0020044908700449087082
:103D5000044908700449087010BD00006300002089
:103D60006C0000206D0000206E00002010B5FEF7F2
:103D7000F0FF0E48007808B9002413E00C480D4904
:103D80000978445C0B480078401C0A4908700846D2
:103D90000078082801D30020087004480078401EED
:103DA00002490870FEF7F9FF204610BD6E000020A2
:103DB000640000206C00002018B10D490978082922
:103DC00000D370470B490C4A127888540A49097885
:103DD000491C094A117011460978082901D30021AC
:103DE000117003490978491C014A117000BFE8E7C6
:103DF0006E000020640000206D00002008B5002047
:103E0000044B82224FF4087100900348FFF718F822
:103E100008BD0000D50B0008200A00200EB5FFF7F2
:103E200053FB0020FFF712FB02900120FFF70EFB6F
:103E300001900220FFF70AFB00909DF8030020B1DB
:103E400001200E49087004200EBD9DF8090008B13C
:103E50000120F9E79DF8050008B10220F4E79DF87C
:103E6000020040B10548007818B1002003490870ED
:103E7000EAE70320E8E70020E6E70000630000200F
:103E80001CB5044604B91CBD2088ADF8000060884C
:103E9000ADF8020020798DF8040060798DF80500F6
:103EA000A0798DF806006846FFF770FD00BFEAE7CD
:103EB00010B5FFF797FD10BD70B505460C462246BC
:103EC00029460C4800F0A7FC621C691C094800F058
:103ED000A2FCA21CA91C074800F09DFCE21C691C66
:103EE000044800F098FC221D2946024800F093FC8B
:103EF00070BD000078090020F8B505462E46032E57
:103F000000D9032600240CE00220009004EB4400BA
:103F100000F1360102231A46034800F073FB601CCF
:103F2000C4B2B442F0DBF8BD780900202DE9F84FA7
:103F30000746884614461D46DDF82890082000EB09
:103F4000C700C6B24FF0020AB9F1000F0CD008202A
:103F50003C23324600210090154800F053FB00211D
:103F6000134800F0E5FC03E00121114800F0E0FCFB
:103F70002DB14346F21D02210D4800F06FFC012DCA
:103F800009D144B1207830B12346F21D22210848DE
:103F900000F064FC06E0022D04D1701CC1B2372091
:103FA000FFF78AFF0121024800F0C2FCBDE8F88F4C
:103FB00078090020F8B506460C46032C00D8F8BD59
:103FC0001720032309223D2100900E4800F03FFBFB
:103FD0001720B0FBF4F5062D00D20625C5F115001B
:103FE00080B27043E11E89B290FBF1F00A30C7B293
:103FF00001233A463E210348009500F003FB00BF31
:10400000DDE700007809002010B5104B104A114977
:10401000114800F0EDFC78200F4981F82400084693
:1040200001F0E9FA00210C4801F0F7FA0B490A48BF
:1040300000F086FC0121084800F092FC064800F0E0
:10404000D1FA01200649087010BD0000A938000807
:10405000F75600083C6600087809002084660008CE
:1040600062000020F8B504463448007810B10CB165
:10407000206800B9F8BD324800F002FC00BF0820FB
:1040800040230022114600902D4800F0BBFA002189
:104090002B4800F04DFC94F82A0060B129A30722B8
:1040A0000121274800F0DAFB072211462448236843
:1040B00000F0D4FB05E0072201212148236800F02D
:1040C000CDFB94F82900FFF717FF01211C4800F0F1
:1040D0002FFC002522E005EB4501201D50F8216052
:1040E00005EB450100EB8100476806B107B913E015
:1040F00094F82800A84201D1012000E0002005EB3F
:1041000045010090201D00EB8100037A3A463146BC
:104110002846FFF70BFF00BF681CC5B2032DDAD39A
:1041200094F82C1094F82B00FFF744FF044800F09B
:10413000D1FB0028A3D100BF9CE700006200002053
:10414000780900203C00000010B586B004460CB988
:1041500006B010BD04A8FFF7D9F801A8FFF7C4FD09
:10416000BDF810002080BDF812006080BDF814007A
:10417000A0800020E0802081BDF80C006081BDF8A7
:104180000600A08102982061BDF80400A0829DF87D
:104190000E00A07500BFDBE710B5FFF7E7F8FFF7EB
:1041A000B9FD10BD10B5FFF7EFFC10BD10B504460A
:1041B0002046FFF739FD10BD10B5044600224C2102
:1041C000204601F0E5FB10BD10B5044600224D214C
:1041D000204601F0DDFB10BD10B504462068427B8F
:1041E0002D21204601F0D4FB10BD10B5044601225C
:1041F0004C21204601F0CCFB01224D21204601F04C
:10420000C7FB2046FFF7E8FF10BD10B50446204667
:1042100000F01BF82046FFF7DFFF204600F00AF809
:10422000204600F012F82046FFF7D6FF2046FFF7A1
:10423000C3FF10BD10B5044601224C21204601F0F9
:10424000A7FB2046FFF7C8FF10BD10B504460122AA
:104250004D21204601F09CFB10BD10B5044694F89A
:10426000250040B12046FFF7F0FF2046FFF7B4FFDE
:104270002046FFF7DFFF2046FFF7E7FF2046FFF766
:10428000A3FF2046FFF7A8FF2046FFF795FF012078
:1042900084F8250010BD10B504462046FFF794FFB2
:1042A0002046FFF799FF2046FFF7C4FF2046FFF79F
:1042B000CCFF2046FFF790FF002084F8250010BDBA
:1042C00070B505460C461CB12846FFF7BEFF02E05C
:1042D0002846FFF779FF2846FFF77EFF2846FFF7BD
:1042E000A9FF2846FFF768FF70BD70B505460C466C
:1042F00004F080012846FFF7E3FF04F04001284660
:10430000FFF7DEFF04F020012846FFF7D9FF04F095
:1043100010012846FFF7D4FF04F008012846FFF7F4
:10432000CFFF04F004012846FFF7CAFF04F00201A2
:104330002846FFF7C5FF04F001012846FFF7C0FF3C
:104340002846FFF762FF70BD10B5FCF735FEFFF79A
:1043500029FF05A0FFF72AFF09A0FFF727FFFDF7B8
:10436000DBFE002010BD00000D0A5B424F4F545D84
:10437000206D61696E20656E74657265640D0A005A
:104380005B424F4F545D2073797374656D20636C8D
:104390006F636B20757064617465640D0A000000C2
:1043A00010B5044600BF3020FDF7F2FA62B600BF38
:1043B00003200246114B19684FF6FF031940104BBA
:1043C0000B4343EA02210D4B196000BF0B48F0304C
:1043D000006840F080700949F031086009480068C1
:1043E00040F00100074908600221C81FFCF71AFCD1
:1043F0000321481FFCF716FC10BD00000CED00E087
:104400000000FA05001000E02DE9F84304460246DA
:1044100052486946B0EB420F09D94FF0E640B0EB85
:10442000420F94BF00204FF0FF30009030E04C4B23
:1044300022F00040834271D94A49204601F050FCE5
:1044400001F01AFD804601F003FC00F0030000902B
:104450004549404601F044FC05464449404601F0C8
:104460003FFC06464249404601F03AFC07464149B6
:10447000404601F035FC214601F02EFD394601F0A1
:1044800035FD314601F032FD294601F02FFD04468D
:104490002546009C002C45DB294614F0010F0846F8
:1044A0001ED001F01DFC0546334901F019FC3349CB
:1044B00001F0A4FA294601F013FC314901F09EFAFB
:1044C000294601F00DFC4FF07E5101F097FA14F0EF
:1044D000020F08BFBDE8F88380F00040BDE8F88314
:1044E00001F0FEFB0646274901F0FAFB264901F0E0
:1044F000F3FC314601F0F4FB244901F07FFA314628
:1045000001F0EEFB294601F0EBFB294601F076FABB
:1045100014F0020FE0D1BDE8F883FFE71046FDF785
:10452000C7F8B4E76800B0F17F4F09D22846FDF71D
:1045300049F8042808BFFDF7B6F82846BDE8F88317
:1045400006D10120FCF7DCF8BDE8F843FDF7A7B879
:104550002846BDE8F843FDF79FB80000B61F927EDD
:10456000490E494683F9223F1A61342C0020A233B8
:1045700000A0FD390000C93FB93AB2BACA9F2A3D2E
:10458000DDFFFFBE336D4C39DA82083CA0AA2ABE9B
:1045900070B5C3685B1CC3608368CB1A9B1A8360C9
:1045A000D0E904638468341943F10003C0E904438B
:1045B000D0E90143A34201D983684360046883685A
:1045C000A34201D28368036070BD70B504462068C1
:1045D000057C94F838004543ED002946606BFBF7F5
:1045E000C7FF70BD10B50446204600F049F900BF72
:1045F000204600F06FF90028FAD10021204600F093
:1046000089F910BD2DE9F84380460E4614461F4631
:10461000089D601980B20090F01983B2224631469D
:10462000404600F03AF908B9BDE8F8830BE00020F5
:104630003B46224631460090404600F07EF8601C22
:1046400084B2681E85B2002DF1D100BFECE72DE9E0
:10465000F84381460D4616461F46089CA846301969
:1046600080B20090E81983B232462946484600F0ED
:1046700014F908B9BDE8F88300203B4632462946C4
:104680000090484600F059F8022C23DBA01E84B2AB
:10469000701C86B2002C15DD0120234632462946C7
:1046A0000090484600F049F8E81985B2681E85B2C6
:1046B00001202346324629460090484600F03DF846
:1046C000301986B200203B463246414600904846AB
:1046D00000F033F800BFCDE72DE9F04104460D4668
:1046E00016461F467020005D30B101280AD002280E
:1046F0000ED0032818D111E02046E16D88473044E0
:1047000086B211E02046E16D8847281A85B20BE099
:104710002046E16D8847301A86B205E02046E16DFB
:104720008847284485B200BF00BF3B463246294631
:10473000204600F0C0FCBDE8F0817FB582B00446A1
:104740000A9D94F88C00002863D0BDF8140000285E
:104750005FD0BDF8140001281CDD022D0CD1BDF87E
:104760000C00BDF81410401A80B20390BDF80C0084
:10477000401C80B203900DE0032D0BD1BDF810005A
:10478000BDF81410401A80B20490BDF81000401C0F
:1047900080B2049005F00105C5B9B4F84C00BDF82D
:1047A0001010884201DD06B070BDB4F84E00BDF8AF
:1047B0001010884200DCF6E7B4F84A30B4F848201C
:1047C00005A903A800F0E1F9C0B9ECE7B4F8480086
:1047D000BDF80C10884200DDE5E7B4F84A00BDF8EA
:1047E0000C10884200DCDEE7B4F84E30B4F84C2000
:1047F00005A904A800F0C9F900B9D4E70095206B19
:10480000BDF81430BDF81020BDF80C1086682046A5
:10481000B04700BFC7E7F8B504460D461646B4F8E2
:104820004C00B04200DDF8BDB4F84E00B04200DCF0
:10483000F9E7B4F84800A84200DDF4E7B4F84A000C
:10484000A84200DCEFE70020012332462946009011
:104850002046FFF772FF00BFE5E700002DE9F041B9
:1048600004460D4616461F46044860603B463246E5
:104870002946204600F088FABDE8F08197560008E6
:1048800010B5044694F8930010B12046FFF79DFE42
:104890000021204600F03EF810BD2DE9F04104460D
:1048A0000D4616461F46DDF81880B4F84E10B4F8D1
:1048B0004C004346324600F094FC10B90020BDE89D
:1048C000F081B4F84A10B4F848003B462A4600F09C
:1048D00088FCF4E770B50446204600F089FD94F8A2
:1048E000395094F838002844C5B22068407CA8426A
:1048F00004DC204600F088FE002070BD94F8930090
:1049000010B12046FFF761FE2946204600F002F86C
:104910000120F2E770B504460D4684F83950206B4B
:10492000016820468847206B41682046884770BD53
:1049300080F89210032902DB012280F89220704750
:1049400070B504460D46A06DA84208D0A56529465D
:1049500004F1740000F0DCFC204600F06BF870BD40
:104960006D221154704700000149C1657047000075
:10497000194E000810B50446002030342084A0846D
:104980004FF6FF706084E08454F830094168204697
:10499000884710BD2DE9F04104460D4616461F46D6
:1049A000DDF818800020A065E762656384F8386050
:1049B00084F8390000216D2001550020743460779F
:1049C00060760120A077E07744F8448C54F8440CDA
:1049D000743C0168204688472046FFF7CBFF2046FD
:1049E000FFF7C2FF002170200155BDE8F0810000F3
:1049F0002DE9FC4107460C4615461E462B460A4A41
:104A00000A493846009600F012FE01A800F078FC32
:104A10008046074B00949DF8042041463846FFF736
:104A2000B9FFBDE8FC81000049580008E5370008DF
:104A300013520008816D01B970478121095C80F82B
:104A40008E108221095C80F88F1090F88D1099B338
:104A500090F88D10012914D190F98E2090F98310CF
:104A60008A4203DA8321095C80F88E1090F98F2046
:104A700090F984108A421FDD8421095C80F88F1030
:104A80001AE090F97E2090F98010114490F98E2060
:104A9000914207DD7E210A5C8021095C114449B204
:104AA00080F88E1090F98F2090F980108A4203DDF3
:104AB0008021095C80F88F1000BFBDE710B523B1DD
:104AC000012B05D0022B09D105E04418A0B208E063
:104AD000841AA0B205E0441AA0B202E08418A0B281
:104AE00000BF00BF10BD10B523B1012B05D0022BB4
:104AF00009D105E08418A0B208E04418A0B205E08E
:104B0000841AA0B202E0441AA0B200BF00BF10BDD8
:104B100038B504465034E08800906388A28834F8A1
:104B200050192046FFF7B9FE18B9002084F88C0010
:104B30002AE0012084F88C00B4F84800B4F8501042
:104B4000884203DAB4F85000A4F84800B4F84A00E8
:104B5000B4F85210884203DDB4F85200A4F84A00B9
:104B6000B4F84C00B4F85410884203DAB4F8540096
:104B7000A4F84C00B4F84E00B4F85610884203DD97
:104B8000B4F85600A4F84E0038BD70B505460E4680
:104B9000144629880A463088104482B2914206DDC4
:104BA000994203DA1A46501E82B200E02146994229
:104BB00001DB002070BDA24201DC0020FAE7A14227
:104BC00000DA21469A4200DD1A462980501A82B244
:104BD00032800120EEE72DE9F84304460E461546E3
:104BE0001F46DDF82080E08F281A85B2CDF80080BE
:104BF0003B462A4631462046D4F82CC0E047BDE863
:104C0000F8832DE9F84305460E4691461F46DDF828
:104C10002080B5F84440A01B84B208F0010010B910
:104C2000E01B84B201E0601E84B23B464A46214646
:104C30002846CDF80080FFF7CEFFBDE8F8832DE9C8
:104C4000F84304460D4616461F46DDF820803B46D5
:104C5000324629462046CDF80080FFF7BCFFBDE86C
:104C6000F8832DE9F84F06460F46904699460A9D6F
:104C7000BA46B6F84640A4EB080084B2601E84B27F
:104C8000681CC5B2022D05D1A4EB090084B2601CDA
:104C900084B200254B465246214630460095FFF728
:104CA0009AFFBDE8F88F2DE9F84F064689469246EF
:104CB0001F46DDF82880B6F84650A5EB0A0085B2FD
:104CC000B6F84440A4EB090084B2B8F1000F04D157
:104CD000681E85B2E01B84B206E0B8F1010F03D173
:104CE000601E84B2E81B85B23B462A462146304608
:104CF000CDF80080FFF76FFFBDE8F88F2DE9F84F82
:104D000005460E4617469846DDF82890BA46B5F88F
:104D10004440A01B84B2B9F1000F09D1601E84B2D7
:104D2000A4EB080084B2601C84B24FF0010903E0D8
:104D3000601E84B24FF00009434622465146284681
:104D4000CDF80090FFF747FFBDE8F88F2DE9F84355
:104D50000546894616461F46DDF82080B5F84640D0
:104D6000A01B84B208F0010010B1E01B84B201E086
:104D7000601E84B23B46224649462846CDF8008054
:104D8000FFF729FFBDE8F8832DE9F04706460F46F7
:104D900090469946304600F01FFE4FF0000A00BFD3
:104DA00099F8001030467268904705464FF6FF713B
:104DB0008D4200D12CE009F101094FF6FE708542C9
:104DC000EED02B46424639463046FFF785FC044676
:104DD0007020805D30B1012807D002280AD0032856
:104DE00010D10AE0381987B20CE008EB04001FFA72
:104DF00080F807E0381B87B204E0A8EB04001FFA34
:104E000080F800BF00BF0AEB04001FFA80FAC7E772
:104E100000BF5046BDE8F087014600207047F0B55E
:104E200007460C462146384600F00BF845B20126ED
:104E3000601EC4B206FA04F046B2A81B45B228466A
:104E4000F0BD70B502460C46117B15682878084104
:104E50000B461D19EBB2082B0EDB08256E1AF5B2B6
:104E60001668761C166016683678AE400643F0B2B7
:104E7000A3F10806F3B200BF0125A5406D1E28402E
:104E8000137370BD2DE9F34F85B0054605F160043D
:104E90002846069900F085F995F96B607A20415D06
:104EA0002046FFF7BCFF02907B20415D2046FFF7C4
:104EB000B6FF83467C20415D2046FFF7B0FF01909E
:104EC00094F90A00002871DD237C06EB0B014942AE
:104ED0004AB2A0880299FFF7F1FDA080237C06EB7F
:104EE0000B0149424AB2E0880299FFF7FCFDE080DD
:104EF000A788B4F80680B946C246207C30B10128A4
:104F00000ED002281AD0032842D12EE094F90A00CC
:104F100048441FFA80F90AEB06001FFA80FA37E0CE
:104F2000B81B87B2781C87B209F101001FFA80F91B
:104F300094F90A0050441FFA80FA29E094F90A0013
:104F4000381A87B2781C87B209F101001FFA80F97C
:104F5000A8EB06001FFA80F808F101001FFA80F89C
:104F60000AF101001FFA80FA12E009EB06001FFAAD
:104F700080F994F90A00A8EB00001FFA80F808F104
:104F800001001FFA80F80AF101001FFA80FA00BF41
:104F900000BF4B46424639462846CDF800A0FFF7F1
:104FA0007CFC20B9019807B0BDE8F08F29E0002013
:104FB0002072607200BF7620415D2046FFF741FFFE
:104FC00004907720415D2046FFF73BFF039000BF30
:104FD00000222846049900F016F801222846039979
:104FE00000F011F801212046FFF72BFF0028EFD138
:104FF00094F90900B042DEDB00BF00BFA07B85F85A
:1050000092000198CFE72DE9FF5F80468A469346DC
:1050100008F160045546277A94F8099000BFA67AF3
:10502000F01BC6B20396B54200DA0395A088029041
:10503000E0880190237C4FFA89F279B20298FFF759
:105040003DFD0290237C4FFA89F279B20198FFF777
:105050004AFD0190BBF1000F0BD0A07B88F89200B5
:10506000207C00904046DDE90213019AFFF765FBC2
:105070000CE0607B50B9E07B88F89200207C0090C7
:105080004046DDE90213019AFFF757FBB54200DA0B
:1050900007E0A81BC5B2002709F1010000F0FF09D5
:1050A000BDE700BF7819C7B278B220724FFA89F015
:1050B0006072BDE8FF9F2DE9F04704460D46164695
:1050C0001F464FF0000964200553662006533946F9
:1050D000204600F011F88046B8F1000F05D0414697
:1050E0002046FFF7CFFE1FFA80F94846BDE8F0875B
:1050F00002460A44107870472DE9F04107460D46F4
:10510000BC6D1734FF2D18DC612D03DB8820C05BDC
:10511000044404E0412D02DB8620C05B044400BF50
:10512000607800B908E02078A84202D1A01CBDE850
:10513000F08160780444F3E725E08A20C05B0444F2
:10514000A04600BF0021404600F01FF804440221A1
:10515000404600F01AF8064608F10408AE42F1DBBA
:1051600000BF26784FF6FF7000EA062660780643F7
:1051700006B906E0AE4201D1E01CD8E7A0780444AD
:10518000EFE700BF00BF0020D1E702460A441078D5
:10519000521C4FF6FF7303EA00201378034498B2C1
:1051A000704770B505460E4605F160042660002084
:1051B00020737820415D2046FFF743FE40B2A07285
:1051C0007920415D2046FFF73CFE40B2E07295F841
:1051D0009200A073A07B08B9012000E00020E073DA
:1051E00070BD10B504468A4209DAA34201DD0120F0
:1051F00010BD9A4201DD0120FAE70020F8E7A34242
:1052000005DD9A4201DD0120F2E70020F0E70020F1
:10521000EEE72DE9F04704468946DDF82080D1B25B
:1052200001F00701012606FA01FA0AF0FF0600273D
:10523000BC4694F892A0BAF1010F00DC374694F80E
:1052400092A0BAF1010F00D0B446154625F007052B
:10525000D4F800A09AF810A00AFB05FA1FFA8AF504
:10526000606B28444844B8F1000F14D100BF90F897
:1052700000A04AEA070A80F800A090F800A08AEA95
:105280000C0A80F800A0401CA3F1010A1FFA8AF35F
:10529000002BECD132E000BF90F800A04AEA070AE8
:1052A00080F800A090F800A08AEA0C0A80F800A01C
:1052B00001F1010A0AF0FF0101F00701A3F1010A5F
:1052C0001FFA8AF381B9B4F83AA0504494F892A036
:1052D000BAF1010F00DC012794F892A0BAF1010F96
:1052E0000AD04FF0010C07E04FEA476A4FEA1A670D
:1052F0004FEA4C6A4FEA1A6C002BCDD1BDE8F0871B
:105300000146012008700148704700005E0C002033
:1053100070B504460D4600212846FFF7E9FE2070CF
:1053200001212846FFF7E4FE607002212846FFF7BE
:10533000DFFEA07003212846FFF7DAFEE0700421AB
:105340002846FFF7D5FE207105212846FFF7D0FE3D
:10535000607106212846FFF7CBFEA0710721284681
:10536000FFF7C6FEE07108212846FFF7C1FE207254
:1053700009212846FFF7BCFE40B260720A21284688
:10538000FFF7B6FE40B2A0720B212846FFF7B0FE31
:1053900040B2E0720C212846FFF7AAFE40B220730B
:1053A0000D212846FFF7A4FE40B260730E21284667
:1053B000FFF79EFE40B2A0730F212846FFF798FE2C
:1053C00040B2E07310212846FFF792FE40B22074ED
:1053D00011212846FFF7D9FE608213212846FFF7E6
:1053E000D4FEA08215212846FFF7CFFEE08270BDD3
:1053F0002DE9F0410446002594F8387094F839609E
:10540000206890F8118000BF32462946204600F0FF
:105410000AF8681CC5B2701CC6B2BD4201DA464526
:10542000F2DBBDE8F0812DE9F84305460E469146D2
:10543000286890F8108034466F6B04FB08F084B243
:105440004FF6FF7000EAC404274443464A46002151
:105450002846009700F0B6F8BDE8F88310B51A307A
:1054600050F81A2C817F4FF6FF7303EAC101418483
:10547000117C03EAC1010184C17F03EAC101818477
:10548000817FC37F1A380B44547CA34204DD537CD4
:1054900090F839401B1B99B24FF6FF7303EAC10124
:1054A00030F83E3F43804388838083880B44838069
:1054B000938AC380D38A03813E3810BD10B5044659
:1054C0002046FFF7CBFF10BD10B504462046FFF77E
:1054D000C5FF2068808AA4F846002068C08AA4F826
:1054E000440010BD10B504462046FFF7B7FF10BDBD
:1054F00010B504462046FFF7B1FF2068808AA4F863
:1055000046002068C08AA4F8440010BD10B50446C7
:10551000002040342081A08860812088A08160889C
:10552000E081403C2046FFF7F3FA10BD10B5044679
:1055300034F8400F2081608860810020A081E088DD
:10554000E081403C2046FFF7E3FA10BD10B5044669
:1055500000204234E0806088208100206081A088A3
:1055600034F84219884205DB4234A0882188401A69
:105570006081423C4034E0882188401AE081403C10
:105580002046FFF7C5FA10BD10B50446002042348E
:10559000E080608834F84219884205DB4234608834
:1055A0002188401AE080423C4034A0882188401A7B
:1055B00060810020A081E088E081403C2046FFF728
:1055C000A7FA10BD2DE9FC4104460D4616461F46BC
:1055D000DDF820808DF805508DF806608DF8047098
:1055E000CDF800806B4601220F212046D4F808C078
:1055F000E047BDE8FC8170B5044600231A460A2145
:105600002046A568A84770BD70B5044600231A4619
:1056100010212046A568A84770BD70B504460D4608
:1056200000232A460B212046A668B04770BD2DE90D
:10563000F04104460D4617461E46DDF81880204608
:1056400000F00AF8A560E7602661C4F814802046DF
:1056500000F018F8BDE8F081002101600849816080
:10566000C16001614161002180F8231080F826109B
:105670008161FF2180F8241080F828107047000015
:105680008959000870B5044600231A4609212046AE
:10569000A568A84770BD024609B10A2902D14FF694
:1056A000FF7070470846FCE770B5044600231A46B1
:1056B000192120462569A84770BD13B5044601AAE3
:1056C0000121204600F001F81CBD2DE9F0410446FF
:1056D0000D46164633462A46172120462769B84705
:1056E000BDE8F08170B5044600231A461821204613
:1056F0002569A84770BD2DE9F04106460F461446BE
:105700009846182F1BD004DC142F13D0172F23D149
:1057100004E0192F1CD0202F1ED10FE0454606E0D3
:1057200029783046FEF7E1FD6D1C601EC4B2002CE6
:10573000F6DC14E03046FEF758FD10E00FE030468E
:10574000FEF78BFD96F824103046FEF7CEFD06E0FE
:105750003046FEF7A0FD02E00020BDE8F08100BF6A
:105760000120FAE770B5044600231A4619212046A5
:10577000E568A84770BD70B504460D4600232A466B
:1057800016212046E668B04770BD70B504460D4648
:1057900000232A4615212046E668B04770BD2DE952
:1057A000F04104460D46164633462A461721204648
:1057B000E768B847BDE8F081F8B505460C4600BF7C
:1057C0002678641C182E21D006DC152E09D0162E42
:1057D00008D0172E2CD110E0192E18D0FE2E27D16C
:1057E0001CE000BF2078009000239DF80020314687
:1057F0002846EF68B847641C1BE0207800906A4692
:1058000001212846FFF7CBFF641C12E000BF0023F4
:105810001A4631462846EF68B8470AE020780090DB
:105820009DF800202921284600F0B2F8641C00E011
:10583000F8BDC5E770B5044600231A461821204676
:10584000E568A84770BD00002DE9F04104460F4609
:1058500015469846A7F11400062858D2DFE800F054
:105860003903181D494D2C48007810B12046FFF728
:105870001BFF2046FFF736FF00212046FFF71DFFE4
:1058800029462046FFF719FF01202349087040E010
:1058900029462046FFF711FF3BE01F48007810B172
:1058A0002046FFF701FF464608E032461821204611
:1058B00000F07BF8A5F11800C5B21836182DF4DCFD
:1058C00032462946204600F070F800201249087040
:1058D0001FE094F82400FF2802D1782084F82400E7
:1058E00043462A4639462046D4F810C0E047BDE872
:1058F000F0810020084908700BE00748007810B1DB
:105900002046FFF7D1FE00200349087001E0002087
:10591000EDE700BF0120EAE79C00002070B50446D7
:1059200000231A46282120466569A84700231A4605
:1059300014212046E568A84701224B21204600F0AB
:1059400027F8206802792921204600F021F800225A
:105950004B21204600F01CF82068027929212046BE
:1059600000F016F801224B21204600F011F82068C3
:1059700042792921204600F00BF870BD01600268D1
:10598000927C80F82220704710B50446002010BD9C
:105990002DE9F04104460D461646002332462946BD
:1059A00020466769B847BDE8F0812DE9F04104461B
:1059B0000D4616462046FFF795FE40212046FFF78C
:1059C0007CFE33462A46172120462769B8472046E1
:1059D000FFF76AFEBDE8F081002180F826107047CD
:1059E0002DE9F04105460E46144627463A46314613
:1059F0002846FDF798FBBDE8F081000090EA010F12
:105A000048BF81F0004100F17882421A3CBF801A01
:105A100089184FEAD0524FF07F4C1CEA410FA2EB9D
:105A2000D15318BF9CEA026F00F03B804FF0004C4E
:105A30004CEA00204CEA012121FA03FC10EB0C0C8B
:105A40001ED202F1FF325FEA1C2040EBC25038BF89
:105A500070471CF07F0F4FEA400C18BFBCF17F4F1E
:105A600038BF7047C3F12003994008BF20F0010000
:105A7000BCF17F4F38BF7047A0F1C04000F0F7B9CC
:105A80004FEA3C00000A40EBC25028BF1CF0FF0F59
:105A90004FEA400CE6D018BFBCF17F4F38BF7047CB
:105AA000EAE79CEA026F05D010EA5C0F08BF00F03D
:105AB0000040704710B500F094F900BF64FBBE3E93
:105AC000014800F088BA00BF0000C07F4FF47F0C8F
:105AD0001CEAD0121EBF1CEAD11392EA0C0F93EA03
