:020000040800F2
:10000000600A00206D010008550300084D03000838
:100010005103000827020008250A0008000000001C
:10002000000000000000000000000000D5080008EB
:100030002B02000800000000B3080008C1090008F6
:100040008701000887010008870100088701000870
:100050008701000887010008870100088701000860
:100060008701000887010008870100088701000850
:100070008701000887010008870100088701000840
:100080008701000887010008870100088701000830
:100090008701000887010008870100088701000820
:1000A0008701000887010008870100088701000810
:1000B0008701000887010008870100088701000800
:1000C00087010008870100088701000887010008F0
:1000D00087010008870100088701000887010008E0
:1000E00087010008870100088701000800F002F876
:1000F00000F02CF80AA090E8000C82448344AAF196
:100100000107DA4501D100F021F8AFF2090EBAE893
:100110000F0013F0010F18BFFB1A43F0010318473B
:10012000381700004817000000230024002500268F
:10013000103A28BF78C1FBD8520728BF30C148BF4A
:100140000B6070471FB51FBD10B510BD00F036F82D
:100150001146FFF7F7FF00F067FC00F054F803B416
:10016000FFF7F2FF03BC00F057F800000948804792
:1001700009480047FEE7FEE7FEE7FEE7FEE7FEE789
:10018000FEE7FEE7FEE7FEE704480549054A064BA1
:1001900070470000C5090008ED0000086004002059
:1001A000600A00206006002060060020704770474B
:1001B0007047000000487047000400207546FFF7B4
:1001C000F9FFAE4605006946534620F00700854614
:1001D00018B020B5FFF7D8FFBDE820404FF000066B
:1001E0004FF000074FF000084FF0000B21F007011F
:1001F000AC46ACE8C009ACE8C009ACE8C009ACE862
:10020000C0098D46704710B50446AFF30080204604
:10021000BDE81040FFF7A3BF01491820ABBEFEE7C1
:1002200026000200704700BFFEE770472DE9F0414D
:10023000024600250026002000230024002791F814
:1002400003C00CF00F0591F803C00CF0100CBCF1CA
:10025000000F03D091F802C04CEA050591F800C0E8
:10026000BCF1000F31D0146800202BE04FF0010CDE
:100270000CFA00F3B1F800C00CEA03069E4220D14C
:1002800083004FF00F0C0CFA03F7BC4305FA03FC94
:100290004CEA040491F803C0BCF1280F06D14FF0DA
:1002A000010C0CFA00FCC2F814C00AE091F803C07B
:1002B000BCF1480F05D14FF0010C0CFA00FCC2F85C
:1002C00010C0401C0828D1D31460B1F800C0BCF1A4
:1002D000FF0F34DD546800202EE000F1080C4FF0D1
:1002E000010808FA0CF3B1F800C00CEA03069E42BC
:1002F00021D183004FF00F0C0CFA03F7BC4305FA31
:1003000003FC4CEA040491F803C0BCF1280F05D1AA
:1003100000F1080C08FA0CF8C2F8148091F803C038
:10032000BCF1480F07D100F1080C4FF0010808FAA2
:100330000CF8C2F81080401C0828CED35460BDE8E9
:10034000F0810AB1016100E04161704700BFFEE742
:1003500000BFFEE77047000000200CE0002106E02F
:100360000022064B03EBC0135A544A1CD1B2802919
:10037000F6DB421CD0B20828F0DB704700000020FA
:100380002DE9F04304460D4616461F467F2C01DD3D
:10039000BDE8F0833F2D00DDFAE7A119802902DDD9
:1003A000C4F18001CEB2E919402902DDC5F1400156
:1003B000CFB2284630E0234629E04FEAE07C00EB4C
:1003C0005C7C4FEAEC0CDFF85C8008EBCC1C1CF882
:1003D00003C002464FEAE07800EB58784FEAE8089D
:1003E000A0EBC8094FF0010808FA09F82CEA080C3C
:1003F00001464FEAE07800EB58784FEAE808DFF86A
:10040000249009EBC81808F803C0591CCBB2A119F5
:100410009942D2DC411CC8B2E9198142CBDC00BF51
:10042000B6E700000000002038B5002406E00025F3
:1004300000E06D1CB5F57A7FFBD3641CB4F57A7FC0
:10044000F5D30121082000F035FA0121042000F045
:1004500031FA14208DF8030003208DF802004020AB
:10046000ADF8000069460848FFF7E0FE8020ADF8CF
:10047000000069460448FFF7D9FE012000F0DEF9CC
:10048000012000F0E5F938BD0008014070B50546CF
:10049000002411E080212141294009B1012100E01F
:1004A0000021084600F0D4F9012000F0C7F900202F
:1004B00000F0C4F9601CC4B2082CEBDB012000F092
:1004C000BDF9002000F0BAF970BD10B5012000F0B0
:1004D000BFF9012000F0B2F9002000F0B9F90020C6
:1004E00000F0ACF910BD10B5002000F0B1F901200A
:1004F00000F0A4F9012000F0ABF910BD10B5FFF732
:1005000093FFAE2000F0AEF9D52000F0ABF98020CB
:1005100000F0A8F9A82000F0A5F93F2000F0A2F90A
:10052000D32000F09FF9002000F09CF9402000F05B
:1005300099F9A12000F096F9C82000F093F9DA208B
:1005400000F090F9122000F08DF9812000F08AF976
:10055000CF2000F087F9D92000F084F9F12000F0D5
:1005600081F9DB2000F07EF9302000F07BF9A42037
:1005700000F078F9A62000F075F98D2000F072F9EE
:10058000142000F06FF9AF2000F06CF9FFF7E4FEE3
:1005900000F040F910BD00002DE9F04304460D467F
:1005A00016461F467F2C01DDBDE8F0833F2D00DDA0
:1005B000FAE7A119802902DDC4F18001CEB2E91960
:1005C000402902DDC5F14001CFB2284630E0234684
:1005D00029E04FEAE07C00EB5C7C4FEAEC0CDFF8B2
:1005E0005C8008EBCC1C1CF803C002464FEAE078A4
:1005F00000EB58784FEAE808A0EBC8094FF0010873
:1006000008FA09F88CEA080C01464FEAE07800EB9A
:1006100058784FEAE808DFF8249009EBC81808F882
:1006200003C0591CCBB2A1199942D2DC411CC8B2FB
:10063000E9198142CBDC00BFB6E7000000000020D2
:1006400070B505460C4645F0B00000F00BF91021DE
:1006500041EA141000F006F904F00F0000F002F96E
:1006600070BD0000F8B506460F4614461D46082D1D
:100670000CD1A4F120000E4901EB00101023082238
:1006800039460090304600F017F80FE0062D0DD1E6
:10069000A4F1200000EB4000064901EB40000823D4
:1006A000062239460090304600F006F8F8BD0000FA
:1006B000680A0008581000082DE9F04707460C4664
:1006C00090469946DDF820A07F2F01DDBDE8F08738
:1006D0003F2C00DDFAE74B46424621463846FFF7FD
:1006E0004FFE002570E0002669E0B8197F2800DD84
:1006F00067E0E11704EB517105EBE101072900DD2B
:10070000E4E72046E21704EB527205EBE202344BB9
:1007100003EBC212BB19D25C2146E31704EB5373FF
:10072000DB10A4EBC30305FB086C1AF80CC00CFA31
:1007300003FC42EA0C02E31704EB537305EBE303FB
:10074000DFF89CC00CEBC31307EB060C03F80C207E
:10075000E11704EB517105EBE101491C072900DDAC
:100760002BE02046E21704EB527205EBE202521C2A
:100770001B4B03EBC212BB19D25C2146E31704EBFF
:100780005373DB10A4EBC303C3F1080305FB086C30
:100790001AF80CC04CFA03FC42EA0C02E31704EB13
:1007A000537305EBE3035B1CDFF834C00CEBC3139E
:1007B00007EB060C03F80C2000BF701CC6B24645C0
:1007C00093DB00BF681CC5B2A9F10100C11700EBA3
:1007D0005171012202EBE101A94284DC00BF75E7FF
:1007E000000000202DE9F0410646884615461F46C8
:1007F000002409E02A5D04FB0761C8B23B4641467C
:10080000FFF730FF601CC4B2285D0028F2D1BDE8BC
:10081000F081000010B500240BE000212046FFF716
:100820000FFF054901EBC410802100F02BF8601C7C
:10083000C4B2082CF1DB10BD0000002010B5044646
:10084000224640210148FFF77CFD10BD0008014011
:1008500010B50446224680210148FFF772FD10BD05
:100860000008014010B50446FFF72FFE7820FFF77F
:100870000DFE0020FFF70AFE2046FFF707FEFFF7F8
:1008800032FE10BD70B505460E46FFF71EFE7820FD
:10089000FFF7FCFD4020FFF7F9FD002404E0285D90
:1008A000FFF7F4FD601CC4B2B442F8DBFFF71BFE97
:1008B00070BD704729B1064A92690243044B9A61A0
:1008C00004E0034A92698243014B9A617047000039
:1008D00000100240704710B500F002F810BD000093
:1008E0000CB50020019000903348006840F480303F
:1008F0003149086000BF3048006800F400300090C3
:100900000198401C0190009818B90198B0F5A06FAB
:10091000F1D12948006800F4003010B101200090A6
:1009200001E0002000900098012843D1234800688E
:1009300040F01000214908600846006820F00300DC
:1009400008600846006840F0020008601A484068E5
:10095000194948600846406848600846406840F4C5
:10096000806048600846406820F47C104860084673
:10097000406840F4E81048600846006840F0807025
:10098000086000BF0C48006800F000700028F9D033
:100990000948406820F0030007494860084640685D
:1009A00040F00200486000BF0348406800F00C00BF
:1009B0000828F9D10CBD00000010024000200240C0
:1009C0007047000010B51348006840F0010011495D
:1009D000086008464068104908400E4948600846CB
:1009E00000680E4908400B4908600846006820F47A
:1009F000802008600846406820F4FE0048604FF4FC
:100A00001F008860FFF767FF4FF00060044908602F
:100A100010BD0000001002400000FFF8FFFFF6FECE
:100A200008ED00E000BFFEE7FFF768FD08230AA21B
:100A300000210846FFF7D6FE082309A21021002056
:100A4000FFF7D0FE1023402219460020FFF7A4FD37
:100A5000FFF7E0FE00BFFEE748656C6C6F21000009
:100A6000576F726C6421000000000000000000005D
:100A70000000000000000000000000F8000000007E
:100A8000000000333000000000160E00160E0000BB
:100A9000000000000000000040C07840C078400026
:100AA000043F04043F040400007088FC0830000088
:100AB000001820FF211E0000F008F000E0180000E0
:100AC00000211C031E211E0000F008887000000099
:100AD0001E21232419272110000000160E000000FB
:100AE0000000000000000000000000E01804020008
:100AF000000000071820400000020418E000000079
:100B00000040201807000000404080F08040400076
:100B10000202010F01020200000000F000000000CC
:100B20000101011F010101000000000000000000A0
:100B300000B0700000000000000000000000000095
:100B4000000101010101010100000000000000009E
:100B50000030300000000000000000008060180439
:100B6000006018060100000000E010080810E00016
:100B7000000F102020100F00001010F800000000DF
:100B80000020203F20200000007008080888700026
:100B900000302824222130000030088888483000A6
:100BA0000018202020110E000000C02010F80000C6
:100BB00000070424243F240000F80888880808005F
:100BC0000019212020110E0000E010888818000074
:100BD000000F112020110E0000380808C838080046
:100BE0000000003F000000000070880808887000C6
:100BF000001C222121221C0000E010080810E00047
:100C00000000312222110F00000000C0C0000000CF
:100C10000000003030000000000000C0C0000000F4
:100C2000000080B07000000000008040201008002C
:100C300000010204081020004040404040404000B5
:100C40000404040404040400000810204080000090
:100C50000020100804020100007048080808F00095
:100C60000000003036010000C030C828E810E00065
:100C70000718272423140B000000C038E0000000F0
:100C8000203C23020227382008F88888887000005A
:100C9000203F202020110E00C0300808080838002E
:100CA000071820202010080008F808080810E000A5
:100CB000203F202020100F0008F88888E808100046
:100CC000203F20202320180008F88888E80810001A
:100CD000203F200003000000C03008080838000052
:100CE00007182020221E020008F808000008F80853
:100CF000203F210101213F20000808F808080000DA
:100D00000020203F2020000000000808F80808000C
:100D1000C08080807F00000008F888C02818080084
:100D2000203F20012638200008F8080000000000BD
:100D3000203F20202020300008F8F800F8F80800B4
:100D4000203F003F003F200008F830C00008F808AE
:100D5000203F200007183F00E01008080810E000BE
:100D60000F10202020100F0008F808080808F000D5
:100D7000203F210101010000E01008080810E000F8
:100D80000F18242438504F0008F88888888870008D
:100D9000203F2000030C302000708808080838002D
:100DA0000038202121221C00180808F80808180023
:100DB0000000203F2000000008F808000008F808A4
:100DC000001F202020201F000878880000C8380855
:100DD000000007380E010000F80800F80008F800CD
:100DE000033C0700073C0300081868808068180867
:100DF00020302C03032C30200838C800C8380800E5
:100E00000000203F2000000010080808C838080033
:100E10002038262120201800000000FE02020200D7
:100E20000000007F40404000000C30C00000000087
:100E3000000000010638C00000020202FE000000AF
:100E4000004040407F0000000020100804081020EF
:100E50000000000000000000000000000000000092
:100E60008080808080808080000204080000000074
:100E70000000000000000000000080808080000072
:100E80000019242222223F2008F800808000000060
:100E9000003F112020110E00000000808080000023
:100EA000000E112020201100000000808088F80032
:100EB000000E112020103F20000080808080000064
:100EC000001F222222221300008080F088888818C8
:100ED0000020203F202000000000808080808000D3
:100EE000006B94949493600008F800808080000068
:100EF000203F210000203F20008098980000000043
:100F00000020203F20200000000000809898000072
:100F100000C08080807F000008F800008080800092
:100F2000203F24022D302000000808F800000000B7
:100F30000020203F20200000808080808080800072
:100F4000203F20003F20003F008080008080000084
:100F500000203F2100203F20000080808080000092
:100F6000001F202020201F008080008080000000C3
:100F700080FFA12020110E000000008080808000F2
:100F8000000E112020A0FF808080800080808000E3
:100F900020203F2120000100000080808080800010
:100FA0000033242424241900008080E08080000085
:100FB0000000001F202000008080000000808000D2
:100FC000001F202020103F20808080000080808033
:100FD00000010E30080601008080008000808080C3
:100FE0000F300C030C300F000080800080808000E8
:100FF0000020312E0E312000808080000080808013
:1010000080818E70180601000080808080808000C2
:101010000021302C2221300000000000807C0202E0
:1010200000000000003F404000000000FF00000002
:1010300000000000FF0000000002027C80000000B1
:101040000040403F000000000080404080000080E1
:10105000000000000001010000000000000000008E
:10106000002F000000000700070000147F147F1409
:1010700000242A7F2A12002313086462003649558F
:10108000225000000007000000001C224100000068
:1010900041221C000014083E08140008083E0808FD
:1010A000000000A060000008080808080000606058
:1010B0000000002010080402003E5149453E000097
:1010C000427F4000004261514946002141454B3179
:1010D000001814127F10002745454539003C4A4945
:1010E00049300001710905030036494949360006B7
:1010F0004949291E0000363600000000563600001F
:101100000008142241000014141414140000412299
:101110001408000201510906003E4955592E007C71
:101120001211127C007F49494936003E414141225B
:10113000007F4141221C007F49494941007F090944
:101140000901003E4149497A007F0808087F0000F4
:10115000417F4100002040413F01007F08142241AF
:10116000007F40404040007F020C027F007F040867
:10117000107F003E4141413E007F09090906003EC3
:101180004151215E007F09192946004649494931EC
:101190000001017F0101003F4040403F001F20400F
:1011A000201F003F4038403F0063140814630007CD
:1011B0000870080700615149454300007F41410024
:1011C000000204081020000041417F0000040201D9
:1011D00002040040404040400000010204000020A2
:1011E00054545478007F48444438003844444420E0
:1011F00000384444487F00385454541800087E098D
:1012000001020018A4A4A47C007F08040478000054
:10121000447D4000004080847D00007F1028440011
:101220000000417F4000007C04180478007C080422
:10123000047800384444443800FC2424241800185E
:10124000242418FC007C080404080048545454204A
:1012500000043F444020003C4040207C001C2040D3
:10126000201C003C4030403C004428102844001C16
:10127000A0A0A07C004464544C440000087F4100BE
:101280000000007F00000000417F08000008040803
:101290001008EFBC8C0000000000000000000000FF
:1012A00000000000000000005838000000000000AE
:1012B000000000000000E380820000000000000049
:1012C00000000000000000000000000018242418A6
:1012D00000000000000000000000E4BDA00000804D
:1012E00060F8074020180F08C808082818000100F7
:1012F00000FF00100C0340807F0001061800E5A5E8
:10130000BD001010F01F10F000808282E2928A86E9
:101310008000402215081661000040807F00000018
:101320000000E4B89600202020FE2020FF2020208E
:10133000FF20202020000000007F4040474444441C
:10134000474040400000E7958C00000000FE92926C
:1013500092FE929292FE0000000008080484621E31
:10136000010001FE020404080800E593880000FC67
:101370000404FC2050484443444850202000000FFF
:1013800004040F00FE4242424242FE000000E59685
:10139000BD0000FC0404FC00905234107F10345255
:1013A0009000000F04040F82825A562322524E826C
:1013B0000200E5A4A70020202020202020FF2020DC
:1013C00020202020200080804020100C0300030CEF
:1013D000102040808000E5AEB600102C2424A4A488
:1013E00065A624242424A4340C004049492924144B
:1013F00052897F040A111020200000000000FF0124
:1014000001013109090909897101010101FFFF8009
:1014100080808080809681808080808080FFFF0136
:10142000818181FD8991A1C1FD81818101FFFF80C1
:101430008080809F888482819F80808080FF00FCE4
:1014400004F4F404F4F404F4F4041C10F000000FA9
:10145000080B0B080B0B080B0B080E020300000017
:10146000000000000000000000000000000000007C
:10147000000000000000000000000000000000006C
:10148000000000000000000000000000000000005C
:10149000000000000000000000000000000000004C
:1014A000000000000000000000000000000000003C
:1014B0000000000000000000000000000000C0F07C
:1014C0001804060202030301010173FB8A0A0E1CC1
:1014D00078E0800000000000000000000000000034
:1014E00000000000000000000000000000000000FC
:1014F00000000000000000000000000000000000EC
:1015000000000000000000000000000000000000DB
:1015100000000000000000000000000000000000CB
:1015200000000000000000000000000000000000BB
:10153000000000000000000000000080C05F7F008D
:1015400000000000030F19376EC7810C1C0D89FFC6
:101550006301000000000000000000000000000027
:10156000000000000000000000000000000000007B
:10157000000000000000000000000000000000006B
:10158000000000000000000000000000000000005B
:10159000000000000000000000000000000000004B
:1015A000000000000000000000000000000000003B
:1015B000000000000080F078080F07000000000025
:1015C00000000000000019FFE2C3673F1961E83026
:1015D00010180808088888F8700000000000000053
:1015E00000000000000000000000000000000000FB
:1015F00000000000000000000000000000000000EB
:10160000000000000000000000000000008080805A
:10161000800000000000000000000000000000004A
:10162000000000000000000000000000000000803A
:10163000C04E7F31010000000000000000000000EB
:101640000000000000C67F7B4140E0E0D0D9CFFE23
:1016500064E6BF99190F06000000000000000000BA
:10166000000000000000000000000000000000007A
:1016700000000000000000000080C06060E0F01C7E
:101680000E0F050783E33206C6F2190D0404847DAC
:101690000101030E3CF0C06070706030D89CB42231
:1016A0003222327C9C98181800285898A86C87071A
:1016B00000000006040C1870E0800000000000002C
:1016C000000080C0437F1D030303000300000000EF
:1016D000008081FF7C00000000000000000000008E
:1016E00000000000000000000000000000000000FA
:1016F0000000000000000000073FF00080F141837F
:1017000086040C1B30E0808083C2C64C7E7F1008AC
:10171000684CCE8F0B0301010101010000000103A1
:10172000060C183060C18204183060C10301030741
:101730000D31313161C18303030202020607070B39
:101740001B1363E2434242C2838383030303010109
:1017500001010000000000006070F8F8FCFCFCF4DF
:10176000F4E6E6FCFEF6F6B6A6FEFEF6FE767E6E25
:10177000ACB8F87800000000001F1D2F216360E165
:10178000E3E1E161616161E1616163666C78B0E050
:10179000C0C0C0C183828484C0C0C0C4CC49793178
:1017A00021614160A1B3CED8F0E0C1C3CEF8F0C052
:1017B000C0C0C0C0C043C7C0C0E0A080808080C09F
:1017C000C040404040C0C0C0C0E1E1E1E3E2F6DC1F
:1017D000CCC0C0C0C080800007070D0F0F0D0D0DDD
:1017E0000D0D0D0D0D0D0505060706020363717144
:1017F00078787C3C7E7E7E7E7B7F7F7F7F5B4B47E5
:1018000067737A7E7F7777777E7E6E6E6E7E3B3FE4
:101810001E1E0E060400000000000001010101036D
:1018200001010101010101000000000000000000B1
:101830000000000000000001010D1C3E3E3E3E3E47
:101840003D39393939393919181C1C1C0C0C0C0C50
:101850000C070707060300006818000800000020B6
:08186000600A000028010008E5
:04000005080000ED02
:00000001FF
