:020000040800F2
:10000000502B0020C5010008CD0F00086D0F00081F
:10001000B90F0008DD0B0008B5190008000000004A
:100020000000000000000000000000007512000841
:10003000190D000800000000ED0100087D13000804
:10004000F1010008F1010008F1010008F1010008C8
:10005000F1010008F1010008F1010008F1010008B8
:10006000F1010008F1010008F1010008F1010008A8
:10007000F1010008F1010008F1010008F101000898
:10008000F1010008F1010008F1010008F101000888
:10009000F1010008F1010008F1010008F101000878
:1000A000F1010008F1010008F1010008F101000868
:1000B000F1010008F1010008F1010008F101000858
:1000C000F1010008F1010008F1010008F101000848
:1000D000F1010008F1010008F1010008F101000838
:1000E000F1010008F1010008F101000800F002F838
:1000F00000F048F80AA090E8000C82448344AAF17A
:100100000107DA4501D100F03DF8AFF2090EBAE877
:100110000F0013F0010F18BFFB1A43F0010318473B
:100120006C8B00008C8B0000103A24BF78C878C11B
:10013000FAD8520724BF30C830C144BF04680C60ED
:10014000704700000023002400250026103A28BF35
:1001500078C1FBD8520728BF30C148BF0B60704739
:10016000642900F07781752900F07481782900F006
:10017000D881732900F01F84002070471FB51FBD70
:1001800010B510BDDFF80CD0FFF7F8FF06F0E6F869
:1001900000F01AFC5025002003B4FFF7F1FF03BC68
:1001A00000F01CFCEFF30980704780F3098870476A
:1001B000EFF30880704780F30888704740BA7047B3
:1001C000C0BA704772B60E4880F30988022080F3E7
:1001D0001488BFF36F8F0B4880470B480047FEE73A
:1001E000FEE7FEE7FEE7FEE7FEE7FEE7FEE7FEE7E7
:1001F000FEE7000005480649064A074B7047000025
:100200005025002059140008ED000008502500205A
:100210005025002050270020502100202DE9F04FCC
:10022000C1F80CD0C3689D46BDE8F08F002383F36E
:1002300011882846A047002004F012FCFEE704F0D5
:100240002BFA00DFFEE753EA020C00F069802DE98B
:10025000F04B4FF00006002B1FBFB3FA83F503FAF3
:1002600005F424FA05F65E4012BF1643B2FA82F591
:1002700002FA05F4C5F120051EBF22FA05FC44EA86
:100280000C04203556EA044C4FEA144418BF641C91
:100290004FF000084FF00009904271EB030C39D386
:1002A000002919BFB1FA81F701FA07F6B0FA80F711
:1002B00000FA07F6C7F120071EBF20FA07FC46EA3E
:1002C0000C062037B6FBF4FCA7EB0507103F07F040
:1002D0001F0BCBF120060CFA0BFB2CFA06F644BFE1
:1002E000B3460026202FA4BF5E464FF0000B5BEA0A
:1002F000060C08BF4FF0010B19EB0B09ABFB027C9E
:1003000048EB0608C01B06FB02CC0BFB03CC71EBD1
:100310000C01C1E70B46024641464846BDE8F08B5A
:1003200013B54FF000004FF00001AFF30080BDE8BF
:100330001C40704710B54C1084EA530404D5404269
:10034000C1F1000138BF491E1B4204D55242C3F11E
:10035000000338BF5B1EFFF776FF14F0804F04D018
:100360004042C1F1000138BF491E14F0004F04D0D3
:100370005242C3F1000338BF5B1E10BD0FB47CB501
:100380000C0009AA009001D02044401E084B7B4479
:1003900069460190089800F0DCFA05461CB100207F
:1003A000694600F0E9FA28467CBC5DF814FB0000C1
:1003B000F105000070B5044685690068C10601D5E5
:1003C000302600E02026C00707D070BDD4E9012107
:1003D00030469047206A401C20626D1EF6D570BDE5
:1003E00070B5044685690078C00707D170BDD4E9AF
:1003F000012120209047206A401C20626D1EF6D506
:1004000070BD70B50C460546012A05D028788006D7
:1004100000D5EA69002302E0012305E05B1C93425A
:1004200002D2E05C0028F9D1A869E618C01AA861D8
:10043000286A184428622846FFF7BCFF04E0D5E983
:10044000012114F8010B9047B442F8D32846FFF776
:10045000C7FF70BD2DE9F0410646002410687529DC
:10046000314616A510D0AFF30080002802DA4042D2
:1004700013A507E031688A0701D512A502E04907F4
:1004800004D511A5012401E0AFF3008000210A2268
:1004900006F1240709E0B0FBF2FCB0FBF2F302FB2B
:1004A0001C00303078541846491C0028F3D12346EC
:1004B0002A463046BDE8F04100F0ECB900000000EB
:1004C0002D0000002B00000020000000F0B40D46BD
:1004D0000188090502D5214C7C4402E01F4C7C4474
:1004E0000E34002100F1240608E002F00F07120983
:1004F000E75D42EA03721B097754491C52EA03077D
:10050000F3D102780023120704D5702D06D009B16B
:10051000022311342246F0BC00F0BCB90123103490
:10052000F8E770B504460D4621461068AFF3008029
:10053000024629462046BDE870400023C6E7D21D8A
:1005400022F00703D3E90023C0E70368126843F0F1
:10055000200303600823C3610023B7E77C85000004
:100560002DE9F05F894604464FF0000ADFF874B1C8
:10057000FB44C0F820A02046E1688847002874D0DA
:10058000252806D0D4E901219047206A401C20622A
:10059000F1E700265F462046E168884720280546A7
:1005A00007DB312D05D2781910F8200C08B106436D
:1005B000F1E7B00701D526F00406C4F81CA0002717
:1005C000C4F818A02A2D09D0284601F0FFFB38B343
:1005D00004EB8708303DC8F8185019E059F8041B9F
:1005E000204604EB87029161E1688847012F0546A8
:1005F00018D1E069002820DA26F020061DE0D8F89E
:10060000180000EB800005EB40003038C8F81800F7
:100610002046E1688847054601F0D8FB0028EED166
:10062000012F0AD02E2D08D12046E16888477F1C73
:100630000546022F46F02006C4DBA069002803DA35
:10064000404246F00106A061F00701D026F01006F6
:100650006C2D0BD0682D09D04C2D39D06A2D35D09A
:10066000742D35D07A2D33D016E038E0E1682F466E
:1006700020468847B842054609D16C2F26D04FF452
:100680008060E168064320468847054604E06C2FF9
:100690001AD04FF4807006430DB3A5F1410019281C
:1006A00002D8203546F400664A4629462046266090
:1006B0004E46FFF755FD80B101280BD0F61D26F000
:1006C000070000F1080956E74020E4E78020D8E75A
:1006D0000020D6E706F104094DE7284652E7206AD4
:1006E000BDE8F09F0C850000032A40F2308010F036
:1006F000030C00F0158011F8013BBCF1020F6244BD
:1007000098BF11F801CB00F8013B38BF11F8013B4D
:10071000A2F1040298BF00F801CB38BF00F8013BFA
:1007200011F0030300F02580083AC0F0088051F86A
:10073000043B083A51F804CBA0E80810F5E7121D75
:100740005CBF51F8043B40F8043BAFF30080D20794
:1007500024BF11F8013B11F801CB48BF11F8012B60
:1007600024BF00F8013B00F801CB48BF00F8012B83
:10077000704710B5203AC0F00B80B1E81850203A0D
:10078000A0E81850B1E81850A0E81850BFF4F5AF31
:100790005FEA027C24BFB1E81850A0E8185044BFBB
:1007A00018C918C0BDE810405FEA827C24BF51F828
:1007B000043B40F8043B08BF7047D20728BF31F81C
:1007C000023B48BF11F8012B28BF20F8023B48BF6D
:1007D00000F8012B704702F0FF0343EA032242EACC
:1007E000024200F002B84FF000020429C0F012806B
:1007F00010F0030C00F01B80CCF1040CBCF1020FD4
:1008000018BF00F8012BA8BF20F8022BA1EB0C01A8
:1008100000F00DB85FEAC17C24BF00F8012B00F89E
:10082000012B48BF00F8012B70474FF0000200B5C4
:10083000134694469646203922BFA0E80C50A0E803
:100840000C50B1F12001BFF4F7AF090728BFA0E8B1
:100850000C5048BF0CC05DF804EB890028BF40F87D
:10086000042B08BF704748BF20F8022B11F0804FBF
:1008700018BF00F8012B704770477047704710B5DC
:1008800000F09EF8006810BD10B5044600F098F81E
:10089000046010BD2DE9F0470D4699469246044686
:1008A00000F124080168880604D5E06921F01001F0
:1008B000216000E00120A84201DD471B00E0002785
:1008C000A1697A1902EB0900081AA0612078C00614
:1008D00002D42046FFF76EFD002608E0D4E901218E
:1008E0001AF806009047206A401C761C20624E458C
:1008F000F4DB2078C0060AD52046FFF75BFD06E052
:10090000D4E9012130209047206A401C2062381E23
:10091000A7F10107F4DC07E0D4E9012118F805008C
:100920009047206A401C2062281EA5F10105F3DCD7
:100930002046FFF755FD2078000602D50220BDE8CD
:10094000F0870120FBE7000001694A1C026108787A
:10095000704700B58FB0CDE90131002105910549FF
:100960007944CDE9031011466846FFF7F9FD0FB051
:1009700000BD0000E5FFFFFF0A6802F8010B0A60F6
:100980007047D1E900239A4202D2531C0B601070C9
:10099000704710B5436913B1AFF3008001E0FFF772
:1009A00030FD012010BD127800F124010A700022F0
:1009B0004A700122EDE711684FF0FF32E9E70000CD
:1009C00000487047EC20002010B50446AFF30080CB
:1009D0002046BDE81040FFF7DFBB000001491820AA
:1009E000ABBEFEE7260002007047CA4302607047B4
:1009F00021B1826842F00102826003E0826822F045
:100A0000010282607047000010B50446124884421B
:100A100008D10121401500F01BFB0021601500F0FA
:100A200017FB17E00D48844208D10121001500F0A2
:100A30000FFB0021201500F00BFB0BE0084884425F
:100A400008D10121C80300F003FB00214FF400404E
:100A500000F0FEFA10BD0000002401400028014013
:100A6000003C0140014600208A6802F004020AB1FD
:100A7000012000E0002070470146C86C80B270473A
:100A80000246002013680B400BB1012000E000205B
:100A90007047014600208A6802F008020AB101206E
:100AA00000E000207047000030B50246002000231F
:100AB00050680F4C20400D790C6844EA052420430F
:100AC000506090680B4C2040D1E902542C434D7982
:100AD00044EA450420439060D06A20F470000C7C06
:100AE000641EE4B2234340EA0350D06230BD0000EC
:100AF000FFFEF0FFFDF7F1FFF0B504460D460020C4
:100B00000021092D11DDE068A5F10A0606EB460774
:100B1000072606FA07F18843A5F10A0606EB460602
:100B200003FA06F10843E0600CE0206905EB450795
:100B3000072606FA07F1884305EB450603FA06F196
:100B400008432061072A0FDA606B561E06EB860702
:100B50001F2606FA07F18843561E06EB860605FA9D
:100B600006F10843606322E00D2A0FDA206BD61FDE
:100B700006EB86071F2606FA07F18843D61F06EB09
:100B8000860605FA06F10843206310E0E06AA2F148
:100B90000D0606EB86071F2606FA07F18843A2F129
:100BA0000D0606EB860605FA06F10843E062F0BD85
:100BB000816841F008018160704721B1826842F488
:100BC000A002826003E0826822F4A0028260704783
:100BD000816841F0040181607047000001A004F0C9
:100BE000F7FF00004275734661756C7400000000E9
:100BF00007A00949C968086200BF08A005F0E0FA2B
:100C000004E002F02BFC0A2003F096FFF9E7000055
:100C100063616C6962000000901A00205B43414CE4
:100C20005D2074687265616420656E7465726564C8
:100C30000D0A00009AB021A02249C968086200BFCD
:100C40003BE001A803F00EFB019811909DF81C00F9
:100C50008DF864009DF81D008DF8650006981290CF
:100C6000BDF81400ADF85000BDF81E00ADF85200FC
:100C7000BDF82000ADF85400BDF82200ADF85600D4
:100C8000BDF83600ADF85800BDF83800ADF85A0090
:100C9000BDF83A00ADF85C00099818900F981390D1
:100CA0009DF840008DF8660011A805F053FA03F096
:100CB000EBFA4FF4FA7003F03FFFC2E7636F6D6D1C
:100CC00000000000901A002086B00AA00B49C968F5
:100CD000086200BF0AA005F073FA0AE0684602F055
:100CE000F3FC684602F03DFD012003F025FF03F010
:100CF000D9FAF3E76374726C00000000901A0020C8
:100D00005B4354524C5D2074687265616420656E6B
:100D100074657265640D0A00704700000149C8607F
:100D2000704700000020024030B5044604254FF40F
:100D3000302000F06FF80546042D17D10C480069EB
:100D400040F002000A49086108464461006940F029
:100D5000400008614FF4302000F05CF8054604487C
:100D6000006941F6FD71084001490861284630BD1F
:100D70000020024004200B49C96801F0010109B1BB
:100D800001200EE00749C96801F0040109B1022001
:100D900007E00449C96801F0100109B1032000E02F
:100DA00004207047002002400348006940F08000A2
:100DB00001490861704700000020024070B50446F8
:100DC0000D460426F00200F025F80646042E11D147
:100DD0000948006940F00100074908612580F002D8
:100DE00000F018F806460448006941F6FE71084014
:100DF00001490861304670BD0020024002480349A5
:100E0000486003484860704723016745002002405E
:100E1000AB89EFCD00B502460423FFF7ABFF0346D5
:100E200003E0FFF7A7FF0346521E012B01D1002A62
:100E3000F7D102B90523184600BD2DE9F04102465D
:100E400000250026002000230024002791F803C07D
:100E50000CF00F0591F803C00CF0100CBCF1000F62
:100E600003D091F802C04CEA050591F800C0BCF12E
:100E7000000F31D0146800202BE04FF0010C0CFA69
:100E800000F3B1F800C00CEA03069E4220D18300B3
:100E90004FF00F0C0CFA03F7BC4305FA03FC4CEAC5
:100EA000040491F803C0BCF1280F06D14FF0010CE7
:100EB0000CFA00FCC2F814C00AE091F803C0BCF1BF
:100EC000480F05D14FF0010C0CFA00FCC2F810C01D
:100ED000401C0828D1D31460B1F800C0BCF1FF0F4A
:100EE00034DD546800202EE000F1080C4FF00108BA
:100EF00008FA0CF3B1F800C00CEA03069E4221D1B7
:100F000083004FF00F0C0CFA03F7BC4305FA03FC07
:100F10004CEA040491F803C0BCF1280F05D100F19C
:100F2000080C08FA0CF8C2F8148091F803C0BCF160
:100F3000480F07D100F1080C4FF0010808FA0CF82F
:100F4000C2F81080401C0828CED35460BDE8F08160
:100F50000246002093680B400BB1012000E0002006
:100F600070474161704701617047000001A004F0C3
:100F70002FFE0000486172644661756C74000000C9
:100F80000AA00C49C968086200BF0EE004F01AFF0D
:100F9000044634B103F098FC204604F0E1FE03F06F
:100FA000C0FC012003F0C8FD00BFEFE76B6579735B
:100FB00000000000901A002001A004F009FE0000CB
:100FC0004D656D4D616E6167650000007047000002
:100FD00010B5002807DA0A07140E054A00F00F03BF
:100FE0001B1FD45403E00A07130E024A135410BD0A
:100FF00018ED00E000E400E001460020034A5068DC
:1010000020F4404008435060704700000010024048
:1010100029B1064A12690243044B1A6104E0034AEB
:1010200012698243014B1A617047000000100240B0
:1010300029B1064A92690243044B9A6104E0034ACB
:1010400092698243014B9A61704700000010024090
:1010500029B1064AD2680243044BDA6004E0034A2D
:10106000D2688243014BDA607047000000100240F2
:101070000348406A40F080700149486270470000B0
:101080000010024030B500210022002400232D4D25
:101090006D6805F00C0121B1042905D0082923D180
:1010A00005E0294D056022E0274D05601FE0254D34
:1010B0006D6805F47012234D6D6805F480340225C7
:1010C00005EB92421CB9214D554305600BE01D4DC7
:1010D0006D6805F400351DB11C4D5543056002E0F7
:1010E000194D5543056002E0174D056000BF00BF74
:1010F000144D6D6805F0F0010909154D6B5C05682C
:10110000DD4045600F4D6D6805F4E061090A104D42
:101110006B5C4568DD4085600A4D6D6805F4605183
:10112000C90A0B4D6B5C4568DD40C560054D6D68B7
:1011300005F44041890B074D6B5CC568B5FBF3F5C1
:10114000056130BD0010024000127A0000093D0028
:10115000140000202400002010B5014600220023C6
:1011600000204A11012A02D1094C236806E0022A14
:1011700002D1074C236A01E0054C636A01F01F02AB
:10118000012494401C400CB1012000E0002010BD5F
:101190000010024021B1028842F04002028004E0C7
:1011A00002884FF6BF731A400280704710B504469C
:1011B0001148844208D101218014FFF749FF002122
:1011C000A014FFF745FF16E00C48844208D1012126
:1011D0000014FFF71DFF00212014FFF719FF0AE09C
:1011E0000748844207D10121C013FFF711FF0021F6
:1011F000E013FFF70DFF10BD003001400038004044
:10120000003C00400246002013890B400BB1012036
:1012100000E000207047014688897047818170474F
:1012200010B50022028802F441520B884C882343F7
:101230008C882343CC8823430C8923434C89234344
:101240008C892343CC8923431A430280838B4FF23A
:10125000FF74234083830B8A038210BD0021018029
:1012600041808180C180018141818181C1810721CB
:101270000182704710B5FEF795FF044620342046E2
:10128000FEF793FF00BF00BF002000F087FD00BF06
:1012900000BF10BD10B500F001F810BD0CB5002066
:1012A000019000903348006840F480303149086074
:1012B00000BF3048006800F4003000900198401CE6
:1012C0000190009818B90198B0F5A06FF1D12948A4
:1012D000006800F4003010B10120009001E000200F
:1012E00000900098012843D12348006840F0100086
:1012F000214908600846006820F00300086008469D
:10130000006840F0020008601A48406819494860C7
:101310000846406848600846406840F4806048607D
:101320000846406820F47C1048600846406840F455
:10133000E81048600846006840F08070086000BF10
:101340000C48006800F000700028F9D00948406897
:1013500020F00300074948600846406840F002005A
:10136000486000BF0348406800F00C000828F9D12D
:101370000CBD0000001002400020024010B500BF6C
:1013800000BF00BF00BF00BF302000F0F7FC00BF6F
:1013900000BF00BF03F0ADFA00BF00BF00BF0020D8
:1013A00000F0ECFC00BF00BF00BF00BF00BF00F0BA
:1013B00035FC10BD10B5002100200022214B5B68D8
:1013C00003F00C0121B1042906D0082928D107E037
:1013D0001D4B1E4C236027E01B4B1C4C236023E05D
:1013E000184B5B6803F47010164B5B6803F4803293
:1013F000022303EB904022B9154B4343134C236067
:101400000DE0104B5B6803F4003323B1104B4343F2
:101410000E4C236003E00C4B43430C4C236003E071
:10142000094B0A4C236000BF00BF064B5B68C3F347
:101430000313084CE15C054B1B68CB40034C236055
:1014400010BD00000010024000127A0000000020D1
:1014500000093D000400002010B51348006840F06A
:1014600001001149086008464068104908400E49CB
:101470004860084600680E4908400B490860084665
:10148000006820F4802008600846406820F4FE00D0
:1014900048604FF41F008860FFF7FCFE4FF00060CB
:1014A0000449086010BD0000001002400000FFF871
:1014B000FFFFF6FE08ED00E021B1028842F0800255
:1014C000028004E002884FF67F731A400280704762
:1014D00021B1028842F00102028004E002884FF646
:1014E000FE731A400280704731B1B0F8442042F4D4
:1014F0000042A0F8442005E0B0F84420C2F30E02F8
:10150000A0F844207047000070B50024002200239A
:10151000058C4FF6FE7635400584028C8388048B5B
:101520004FF68F752C40B51E2C400D882C43751E30
:101530002A400D892A434D882A43144DA8420BD0D6
:10154000134DA84208D0134DA84205D0124DA84211
:1015500002D0124DA84213D14FF6F7752A404D899B
:101560002A434FF6FB752A408D882A434FF6FF65C4
:101570002B404FF6FF552B408D892B43CD892B43B4
:1015800083800483CD888586028470BD002C014051
:101590000034014000400140004401400048014047
:1015A0000A460021018B4FF6F7731940114301835E
:1015B0007047000070B5002200230024058C4EF611
:1015C000FF7635400584038C8488828B48F6FF754E
:1015D0002A404FF6FF452A400D884FF6FF7606EA6F
:1015E00005252A434DF6FF752B400D8906EA053582
:1015F0002B434D8806EA05352B430B4DA84202D0FC
:101600000A4DA84208D14BF6FF752C408D894FF644
:10161000FF7606EA85152C4384808283CD88A0F866
:101620004050038470BD0000002C01400034014094
:101630000A460021818B4FF2FF7319404FF6FF736A
:1016400003EA02231943818370470021018041800E
:101650008180C180018141818181C1817047818602
:101660007047A0F840107047002202881D4B984236
:101670000ED01D4B98420BD0B0F1804F08D01B4BC1
:10168000984205D01A4B984202D01A4B984204D186
:101690004FF68F731A404B881A43174B984207D066
:1016A000164B984204D04FF6FF431A40CB881A439A
:1016B00002808B8883850B8803850A4B98420BD068
:1016C000094B984208D00E4B984205D00D4B9842DA
:1016D00002D00D4B984201D10B7A038601238382FD
:1016E00070470000002C014000340140000400401D
:1016F00000080040000C00400010004000140040B2
:101700000040014000440140004801404FF6FF7195
:10171000818000210180C18041800172704721B128
:10172000828942F40052828104E082894DF6FF737F
:101730001A408281704702460020B1F5007F00D137
:1017400000BF13880B400BB1012000E00020704760
:101750002DE9F04786B005460E460024A24600BF9C
:10176000A1460027B08900B100BF2F462C8A4CF655
:10177000FF700440F08804432C82AC894EF6F310CD
:101780000440B08831890843718908430443AC811F
:10179000AC8A4FF6FF400440B0890443AC8201A8F4
:1017A000FFF770FC1F48874202D1DDF810A001E06E
:1017B000DDF80CA0A88900F4004040B10AEBCA0093
:1017C00000EB0A1031684900B0FBF1F807E00AEBC2
:1017D000CA0000EB0A1031688900B0FBF1F8642000
:1017E000B8FBF0F004012009642101FB1089A889ED
:1017F00000F4004040B1322000EBC900B0FBF1F032
:1018000000F00700044308E0322000EB09106421D7
:10181000B0FBF1F000F00F0004432C8106B0BDE8EE
:10182000F087000000380140C1F308028280704751
:101830004FF41651016000218180C18001810C218B
:101840004181002181817047A6B03CA03C49C96814
:10185000086200BF3BA004F0B3FC04F0A9FB02F057
:10186000DDFA3EA004F0ACFC00BF3548C069044678
:10187000012662E004F04EFA074614A801F024FFA6
:10188000052F31D2DFE807F03103070B2C0002F0FF
:1018900003FB01262AE002F0D7FA012626E004A87D
:1018A00002F0E0FC6A4604A914A802F079F90546A2
:1018B000022D07D1684601F020FF2EA004F080FC25
:1018C00001260CE0032D04D130A004F079FC0126A0
:1018D00005E002F051FA32A004F072FC012605E0A6
:1018E00002F0C4F9012601E000BF00BF00BF66B9E5
:1018F00002F0FAFA48B100BF00BF1149C86900BF41
:10190000011B00BF212900D3012696B114A801F0C4
:10191000DBFE04A802F0A6FC1AAA04A914A802F08F
:10192000B1F91AA804F072FB00BF0548C06904466B
:101930000026052003F000F900BF9BE77569000051
:10194000901A00205B55495D2074687265616420BF
:10195000656E74657265640D0A0000005B55495D33
:1019600020646973706C61792072656164790D0A15
:10197000000000005B55495D20636F6D6D616E6412
:10198000207375626D69740D0A0000005B55495D36
:10199000206C6F63616C20616374696F6E0D0A0067
:1019A0005B55495D206D656E7520656E7465720DC1
:1019B0000A00000001A004F00BF9000055736167F4
:1019C000654661756C7400004100080218BF042070
:1019D0000A0E18BF40F001004FF07F4232EA0101C9
:1019E00008BF40F00200012808BF05207047000032
:1019F00003480449086000F58060486070470000B3
:101A0000801C0020D400002010B5144802F026FEEF
:101A10001248103004F0DAF8114A14210F4814303B
:101A200002F025FE0D48243004F0D0F80B48283091
:101A300004F0CCF80A4A1C2108482C3002F017FEAA
:101A400006483C3004F0C2F80448403004F0BEF8C8
:101A50000248443004F0BAF810BD0000A420002071
:101A6000ED44000810B5084808490860081D02F058
:101A700079FD00200549C860002104480161143047
:101A800002F0ECFD10BD0000FF44000880200020A3
:101A900003E000BF00BF00BF00BFFAE7012106F06E
:101AA00018BB0021084606F05DB86FF05E0108071C
:101AB00006F00FBB2DE9F04D0D4614464FF07F4167
:101AC000B1EB440F9EBF4FF0FF312960BDE8F08DB0
:101AD0004FF0004040EA0421C4F3C750783810F0BA
:101AE0001F024A4B4FEA601CC2F120067B44C4F33C
:101AF000C750A0F178004FEA601003EB800053F864
:101B00002C3008BFD0E901C612D0D0F804C09340F1
:101B10002CFA06F73B4387680CFA02FC27FA06F812
:101B2000C06807FA02F2F0404CEA080C42EA0006EC
:101B3000A3FB0132ACFB01C0A6FB016101EB0C066B
:101B40008E4234BF4FF0010C4FF0000CC1186144BD
:101B5000BCF1000F02D0814202D903E0814201D2E0
:101B6000012000E00020104400F120024FEA92180A
:101B70008006CA0C40EA42304F03C5F8008006F0E8
:101B8000CFF88246384606F0E3F86FF0120106F00F
:101B9000A0FA0746304606F0DBF86FF0250106F0A4
:101BA00098FA83463946504605F074FF594605F0C9
:101BB00071FF00F500666FF30B065146304606F0E4
:101BC000E1F9394606F0DEF9594606F0D1F9104937
:101BD00006F0D2F807460F49304606F0CDF83946F0
:101BE00005F058FF07460C49304606F0C5F839465F
:101BF00005F050FF14F0004F08BFBDE8F08DC8F1AC
:101C0000805180F000402960BDE8F08DA46F000095
:101C1000DB0FC92F22AAFD290000C92F70B500BF14
:101C200000BF302000F0BAF800BF00BF10480068C5
:101C300000F4006098B1FEF7B5FA0446203C254652
:101C40004FF08070E8612046FEF7AFFA02F088FDA1
:101C500010B10848A86101E00748A86170BD00BF45
:101C600000BF002000F09AF800BF00BF00BFF5E7FA
:101C700004ED00E03F020008430200082DE9F041B6
:101C8000064600BF00BF002030773446356900BFEC
:101C900000BF2F683946032002F0A0FD00BF00BF3F
:101CA0003D46A868A1688842F3D8256068686060EE
:101CB000606804606C602046BDE8F0812DE9F04169
:101CC000064600BF00BF002030773446356900BFAC
:101CD00000BF2F683946032002F080FD00BF00BF1F
:101CE0003D46A868A1688842F3D2256068686060B4
:101CF000606804606C602046BDE8F08170B50646FF
:101D00000D462C4600BF00BF00BF302000F052F847
:101D100000BF00BF00BF207F052812D005DC48B1FE
:101D200003280AD004281DD111E0072811D00C285F
:101D300018D10DE002F019FE70BD0020616B086043
:101D400011E0606B8168491C816000BF00BF00BF6B
:101D500000BF00BFD4E900010860D4E9001048606A
:101D600000BF00E000BF00BF4FF0FF3060632046BF
:101D7000FFF7A4FF02F0F9FD00BFDDE7C1B281F378
:101D800011887047C1B281F311887047C1B281F3E5
:101D900011887047C1B281F311887047C1B281F3D5
:101DA00011887047C1B281F311887047C1B281F3C5
:101DB00011887047C1B281F311887047C1B281F3B5
:101DC00011887047C1B281F31188704730380A28F2
:101DD00001D20120704700207047000003460A48E6
:101DE00002888088191A084890F90300002800DA50
:101DF000494200E011440029FCDB00E0891A9142CD
:101E0000FCDA88B2704700009200002070B50446EA
:101E1000204600F00FF806460548807800FB06F5DE
:101E20004FF46160B5FBF0F100FB115070BD000094
:101E30009200002070B504462046FFF7CFFF05460C
:101E40004FF46160684303490988B0FBF1F080B248
:101E500070BD00009200002000B97047114902686F
:101E60000A6082888A80098819B94FF480410D4A36
:101E700011800C49897811B901210A4A91700949E8
:101E8000C97811B90121074AD17006498988054AE4
:101E9000128891FBF2F302FB1311024A918000BFFA
:101EA000DBE700009200002010B5044618481949ED
:101EB0000A68026089888180BCB1E07810B1E0785E
:101EC00013498870607810B160781149C870A078A3
:101ED00018B1A0781049087002E001200E4908707E
:101EE000207810B1A0880A4988800948FFF7B4FF1C
:101EF00007488078094988700548808888800448A8
:101F0000C0788871044890F90000C87110BD0000C5
:101F100058000020608300085E0000205817002051
:101F200010B5044604B910BD102203492046FEF73F
:101F3000DBFB00BFF7E70000581700202DE9F04158
:101F400004460D464FF461610022A4FB016305FBCA
:101F5000013104FB02114FF0806200233046FEF78E
:101F6000E9F9BDE8F0812DE9F04104460D4600BFD6
:101F70002046294600F045FD04460D464FF46161B8
:101F80000022A4FB016305FB013104FB02114FF0A9
:101F9000484200233046FEF7CDF980B2BDE8F0811B
:101FA0002DE9F04704461CB900200146BDE8F08742
:101FB0004FF46161206980FB0130A1895D1840F117
:101FC0000006C8210020A5FB012306FB013105FB0B
:101FD00000104FF480734FF0000CA2FB031900FBBC
:101FE000039002FB0C001B02A1FB037900FB039092
:101FF00001FB0C014FF4616263463846FEF79AF923
:10200000D4E72DE9F0410446C82084FB00014FF4D9
:1020100080720023A0FB027C01FB02C100FB0313C2
:10202000110200223846A0FB015C03FB01C107FB43
:1020300002114FF4616200232846FEF77BF9BDE8E8
:10204000F08100002DE9F04704460D4692461E46F9
:10205000671B52460021304600F0EEFC8146002FFF
:1020600009DC0B4800F015FD5246B421484600F04B
:10207000E3FCBDE8F0873946054800F010FD8046D6
:1020800009EB08005246B42100F0D6FCF1E700004D
:102090004417002008B52A482A490A68026089883E
:1020A0008180FFF7D9FE062304220021264800F094
:1020B00017FD022301220021244800F011FD032313
:1020C00002220021224800F00BFD4FF496604342AB
:1020D0000122032100901F4800F0CFFC00201E4980
:1020E0000880174880788870154880888880144850
:1020F000C07888710120C8710020088148818881DA
:10210000C8810021154A11605160154A1060506065
:10211000144A116051601449088014490870144928
:10212000087014490860144908600021134A1160BE
:1021300051601349087001201249087008BD000061
:102140005800002060830008201700202C17002072
:102150003817002044170020581700206000002086
:102160006800002070000020780000207A00002025
:102170007B0000207C0000208000002088000020E0
:10218000900000205E0000202DE9F04F9FB08146B6
:102190000C4692462CB1BAF1000F02D020780028EC
:1021A00044D1062304220021FE4800F099FC0223BA
:1021B00001220021FC4800F093FC032302220021AD
:1021C000FA4800F08DFCFA4800F063FC0020F94961
:1021D0000880088148818881C881F74A1060506072
:1021E0000021F64A11605160F54A11605160F549CD
:1021F0000880F5490870F5490870F5490860F54907
:1022000008600021F44A11605160F4490870AAF88E
:102210000000AAF8020001208AF804008AF80500EC
:1022200000208AF806001FB0BDE8F08F00201C9047
:10223000B4F904001D9000201790A078052856D20C
:10224000DFE800F0031115561900B4F908003C222C
:10225000514200F0F1FB1C90B4F904001D900020E5
:10226000D94908704FE0B4F904001D904BE0B4F96F
:1022700004001D9047E0B9F1000F37D099F816001F
:1022800080B3B9F80C00D9F81010C1EB4112C2EBC1
:10229000012100EB0110E168081A1690122116982E
:1022A00090FBF1F01C90B4F908003C22012100F0F1
:1022B000C3FB0C90B4F908003C22012100F0BCFBE8
:1022C00040420B9001460C9A1C9800F0B5FB1C9004
:1022D00016981E2807DC169810F11E0F03DBB4F9C0
:1022E00006001D9002E0B4F904001D900BE000BF51
:1022F000B4F908003C22514200F09EFB1C90B4F956
:1023000004001D9000BF00BFB048007828B9A6485F
:102310001C9900F0ECFB1C9002E0A34800681C90A4
:10232000AA480078401CA94908700846007805288A
:1023300001D300200870C8211C9880FB01034FF4D2
:1023400080724FF0000CA0FB021E03FB02E200FBB8
:102350000C234FF48030A1FB002E03FB00E001FBB7
:102360000C0C0123002011466246A1FB03CE02FBA8
:1023700003E201FB00204EF660220023CDE90AC0F3
:1023800060460B99FDF7D6FFCDE91A01A078012828
:1023900063D1B9F1000F60D099F8160000285CD025
:1023A0004846FFF7FDFD05460E46844B0CCBAF1AA1
:1023B00066EB0308814960C13846414600F0CEFA19
:1023C0000A900A9817904FF46161E06890FBF1F26F
:1023D00001FB12000C900C98002803DA0C9800F511
:1023E00061600C90B9F80C200C99881A00F0FCFA86
:1023F0000B900B98FFF705FECDE91801DDE91801F8
:10240000FFF79CFD834606209BFBF0F10A9800EB4A
:102410004000A1EB4000724991F900104843099037
:102420004FF482725142099800F006FB1590B9F8FA
:102430001400FFF7EBFC5F4908800A8815995018D3
:1024400000F0C6FA14905F491498088001205E4994
:102450000870574800F01DFBC8E1A07802287DD124
:10246000B9F1000F7AD099F816000028FAD0484642
:10247000FFF796FD05460E46B9F80C00FFF7C1FDC3
:10248000CDE902014D4B0CCBAF1A66EB03084B496B
:1024900060C13846414600F061FA089008981790EC
:1024A0004948007838B9464ADDE90210C2E900100F
:1024B0000120454908704FF46161E06890FBF1F23A
:1024C00001FB12000C900C98002803DA0C9800F520
:1024D00061600C903A4903C9FFF745FD0A900C9AD8
:1024E0000A99501A00F080FA09905021099890FB3F
:1024F000F1F007900322911F079800F09DFA0790D2
:10250000C821079880FB01234FF480714FF0000C25
:10251000A2FB010E03FB01E102FB0C1C4FF4803314
:102520000021024660468C46A2FB031E00FB03E02E
:1025300002FB0C0C012300200A461946A2FB013EB7
:102540000CFB01E102FB00104EF66022CDE90030E9
:102550000023DDE90001FDF7EDFE00E09FE0CDE99D
:1025600004011748D0E90032DDE9040118184A4196
:102570001146CDE9000200F044FA114A03C209985D
:10258000142808DC099810F1140F04DB0C98FFF7ED
:1025900038FD0B4A03C20A4903C9FFF7E4FC0A905D
:1025A00020E00000201700202C1700203817002002
:1025B0004417002058170020600000206800002009
:1025C00070000020780000207A0000207B000020AE
:1025D0007C00002080000020880000209000002067
:1025E0005E000020B9F80C200A99881A00F0FCF966
:1025F0000B900B98142813DC0B9810F1140F0FDBC1
:10260000089801280CDC0898B0F1FF3F08DBB4F90A
:1026100006004FF4E172002100F00EFA1D9008E070
:10262000B4F9040040F28A224FF4E17100F004FA98
:102630001D900B98FFF7E5FCCDE91801DDE91801C5
:10264000FFF77CFC834612209BFBF0F10898A1EB7E
:102650000011079800EB400001EB8000B34991F9AD
:102660000010484306905A225142069800F0E4F9BF
:102670001590B9F81400FFF7C9FBAD4908800A8826
:102680001599501800F0A4F91490AA4914980880DC
:102690000120A9490870A94800F0FBF9A6E0A0783C
:1026A00000287DD0B9F1000F7DD099F816000028E0
:1026B00079D04846FFF774FC05460E469E480078E0
:1026C00030B99F4860C09F4860C001209A49087097
:1026D000A078042805D1E068FFF793FC984A03C26C
:1026E00009E09748D0E90030DDE91A219A184841FD
:1026F0009349C1E90020934A05CA2F1A66EB0208E4
:10270000904860C03846414600F028F917908E493D
:1027100017980968401A8C49096801EBE0008A495A
:102720000860A07803280AD1B4F90630B4F904206F
:10273000084601681C98FFF785FC1D9002E07F4861
:1027400000F0A7F97E4903C9401B61EB0601CDE902
:102750001801DDE91801FFF7F1FB834603209BFB1D
:10276000F0F179480068A1EB4000704991F9001040
:10277000484315904FF416725142159800F05CF9D9
:102780001590B9F81400FFF741FB694908800A88E1
:102790001599501800F01CF914906649149800E03F
:1027A00001E0088022E0002063490870A078012839
:1027B00005D1E068FFF725FC614A03C209E06048E3
:1027C000D0E90030DDE91A219A1848415C49C1E995
:1027D0000020002056490880594903C9FFF7AEFB85
:1027E0001490149800F0F4F852490880A078032857
:1027F0000CD14FF4966200211D9800F01DF901469E
:102800000C90524800F073F91E900BE04FF4966262
:1028100000211D9800F010F901460C904C4800F082
:1028200066F91E901C9800B241490881179800B2C1
:1028300048814548008800B288811E9800B2C8814E
:102840003C48008805F084FA42490B9005F094FA60
:1028500041490C9005F086F91390139803F020FE7F
:102860001290139802F058FA11901E9805F058FA39
:102870000B90129905F080FA0C9005F035FA109043
:102880001E9805F04DFA0B90119905F075FA0C9011
:1028900005F02AFA0F901098002801DB109801E04B
:1028A000109840420E900F98002801DB0F9801E02D
:1028B0000F9840420D904FF47A710E98484340F6BD
:1028C000E441B0FBF1F080B240F2B63200210C904E
:1028D00000F0BDF8AAF800004FF47A710D98484353
:1028E00040F6E441B0FBF1F080B240F2B632002194
:1028F0000C9000F0ACF8AAF802000121109801EB4E
:10290000E07008B1012000E000208AF804000121F5
:102910000F9801EBE07008B1012000E000208AF878
:10292000050001208AF8060000BF7CE45E0000205C
:1029300058170020780000207A000020441700205B
:1029400060000020680000207C0000203817002074
:1029500020170020DA0F49400000E1442DE9F04142
:1029600004460D461748D0E9001009196841154A78
:10297000C2E9001014480078401C1349087008464A
:10298000007814281ADB10464EF660234FF0000C36
:1029900006C8A1FB036802FB038201FB0C214FF078
:1029A00020420F233046FDF7C5FC0849086000218E
:1029B000044A116051600020034908700348006810
:1029C000BDE8F081880000209000002080000020F9
:1029D00001E000F561600028FBDB01E0A0F561602B
:1029E000B0F5616FFADA704701E0A0F56160B0F50B
:1029F000E16FFADC01E000F5616010F5E16FFADBF0
:102A0000704730B500BF04E04FF04844001941F171
:102A1000000100231A46C31A71EB0202F4DB04E042
:102A20004FF04845401B61F100014FF04843C31A85
:102A300071F10002F4DA30BD03468B4201DA084638
:102A40007047934201DD1046FAE71846F8E703465F
:102A50008B4201DA08467047934201DD1046FAE7DF
:102A60001846F8E703468B4201DA0846704793425E
:102A700001DD1046FAE71846F8E730B5039C00B9C7
:102A800030BD0160426000258560C360046100BF05
:102A9000F6E700B970470021816000BFFAE770B522
:102AA00004460D460CB9002070BDD4E9011005FBA9
:102AB0000100A06023691A01E3681901A068FFF70B
:102AC000D1FFA060A068C11700EB11710911226845
:102AD00005FB02163046D4E90312FFF7C3FFE3E714
:102AE00000B9704701604260836000BFF9E70246A9
:102AF0000AB9084670471068884208DAD2E900032C
:102B000018441060106888420CDD11600AE01068FB
:102B1000884207DD93681068C01A10601068884208
:102B200000DA11601068E5E71CB50D4880788DF873
:102B300000000B48C0788DF80100094800798DF835
:102B40000200074840798DF803000548C088ADF8B9
:102B500004006846FFF7A8F903F0A6F81CBD0000C2
:102B60008015002000B5EBB04FF4D6716846FDF734
:102B70005CFE164880788DF810001448C1788DF8F6
:102B8000111001798DF8121041798DF81310C18858
:102B9000ADF814100189ADF816104189ADF8181080
:102BA0004FF4C8720A4907A8FDF79EFD684602F077
:102BB00069FB10B900206BB000BD684602F074FAE2
:102BC00010B102490298C8600120F4E78015002086
:102BD0009015002001460848408902B2002A01DC15
:102BE00008467047914201DD1046FAE7002901DAF4
:102BF0000020F6E70846F4E7801500202DE9F041B3
:102C000004460D461646C4F309084FF4616008FBFC
:102C100000F0870A32462946384600F003F8BDE83E
:102C2000F08100002DE9FF5F0646884614460CB986
:102C3000BDE8FF9F4FF4616096FBF0F100FB116669
:102C4000002E01DA06F56166304605F069F8344970
:102C5000009005F091F88346324904F083FF8146E5
:102C6000484603F01DFC0390484602F055F80290D8
:102C7000404605F06DF80090039905F07DF8834615
:102C800005F032F80746404605F062F800900299D8
:102C900005F072F8834605F027F80546002F01DBA2
:102CA000384600E078428246002D01DB284600E0ED
:102CB000684201904FF47A700AFB00F040F6E4415C
:102CC000B0FBF1F01FFA80FB40F2B632002158460B
:102CD000FFF7BDFE20804FF47A710198484340F61B
:102CE000E441B0FBF1F01FFA80FB40F2B632002164
:102CF0005846FFF7ACFE6080012000EBE77008B19A
:102D0000012000E000202071012000EBE57008B1F7
:102D1000012000E0002060710120A07100BF87E762
:102D2000DA0F49400000E14410B590B004460A486B
:102D300004700020094908700949086009490880A1
:102D4000234609A240216846FDF718FB684603F0B8
:102D500037FA10B010BD000080150020440000209C
:102D600048000020500000205B43414C5D20666914
:102D70006E6973682073746174653D25750D0A0072
:102D800010B5044604B910BD01F097FD034B0FCBFD
:102D900084E80F0001F0BCFD00BFF4E780150020BF
:102DA000014609B9002070474FF46162086980FB51
:102DB000022088891018F6E710B502F0F1F800F04B
:102DC0002DF9FFF7B1FE02A003F0FAF910BD0000E3
:102DD0005B43414C5D20706172616D7320636C6573
:102DE000617265640D0A000000B5EBB0684602F040
:102DF0005BF938B904201A4908701AA003F0E0F909
:102E00006BB000BD9DF81000154988709DF8111039
:102E10001348C1709DF8121001719DF81310417193
:102E2000BDF81410C180BDF816100181BDF818104E
:102E300041814FF4C87207A90F48FDF755FC0849B6
:102E40000298C86000200870FFF76EFE0BA003F028
:102E5000B7F90348C1680FA000F018F900BFCFE729
:102E6000801500205B43414C5D206C6F61642066DF
:102E700061696C65640D0A00901500205B43414C4C
:102E80005D20706172616D73206C6F616465640DAB
:102E90000A0000005B43414C5D206C6F616420734D
:102EA00065713D0000B5EBB000F0B8F8002029498D
:102EB000087029490860294908702949087029497A
:102EC000087029490870684602F0EEF8002839D0E9
:102ED0009DF81000254988709DF811102348C17095
:102EE0009DF8121001719DF813104171BDF8141076
:102EF000C180BDF816100181BDF8181041814FF452
:102F0000C87207A91A48FDF7EFFB18490298C86074
:102F100018A003F055F91548C1681FA000F0B6F8D5
:102F20001248C18821A000F0B1F8104890F90310B0
:102F300024A000F097F80D4890F9041026A000F0A6
:102F400091F802E02AA003F03BF9FFF7EDFD6BB02A
:102F500000BD000044000020480000205200002076
:102F60005300002054000020550000208015002050
:102F7000901500205B43414C5D20706172616D7360
:102F800020726573746F7265642066726F6D20665F
:102F90006C6173680D0A00005B43414C5D207265F3
:102FA00073746F726564207365713D005B43414CBF
:102FB0005D20726573746F726564207A65726F3D0F
:102FC000000000005B43414C5D20726573746F72BA
:102FD0006564206469723D005B43414C5D2072650D
:102FE00073746F7265642070686173653D000000E2
:102FF0005B43414C5D207573696E67206465666153
:10300000756C742063616C6962726174696F6E20A3
:10301000706172616D730D0A0000000010B50F48F9
:103020000021016041608160C16000200B4908708F
:10303000887001210948C17001713221417100215C
:10304000C1804FF4FA7101814FF461714181FF2217
:103050004FF4C8710248FDF7BEFB10BD801500207B
:103060009015002030B599B004460D46234605A2C0
:10307000602101A80095FDF781F901A803F0A0F8EF
:1030800019B030BD2573256C640D0A0030B599B0B8
:1030900004460D46234605A2602101A80095FDF7D0
:1030A0006DF901A803F08CF819B030BD2573256CBB
:1030B000750D0A002DE9F05F04460D4601F0FDFB99
:1030C000804890F8009000207E49087001F020FCB4
:1030D0007D480078012805D0B9F1000F02D02046C4
:1030E00000F086FA78480078012802D00020BDE878
:1030F000F09F14B1A07D00B13DB90420FFF714FE8C
:1031000072A003F05DF80020F1E77748007800280E
:1031100078D0012804D0022822D0032873D187E078
:10312000694801892A460020FFF77CFD6F48006846
:10313000401C6E49086008460068B0F5967F0DD3C4
:103140000220694908700020684908602046FFF79E
:1031500027FE6749086067A003F032F80120C6E740
:103160004FF4484061490968A0FB017001464FF4E3
:103170007A6200233846FDF766F882465248018994
:103180002A465046FFF73AFDCAF30F2B0AE0604883
:103190000088401C5E490880A08A5E495C4A12880B
:1031A00021F812005A480088584503DA5848008828
:1031B000C728ECD34D480068401C4C4908600846BD
:1031C0000068B0F57A6F31D32046FFF7E9FD484932
:1031D0000968461A002E01DB012101E04FF0FF31A2
:1031E0003948C170002E01DB012101E04FF0FF31B1
:1031F00035480171314648A0FFF748FF324890F941
:10320000031001E059E057E048A0FFF72BFF2E48DC
:1032100090F9041049A0FFF725FF032032490870F8
:103220000020324908604AA002F0CAFF01205EE790
:103230004FF448402D490968C1F57A61A0FB01703F
:1032400001464FF47A6200233846FCF7FCFF8246C1
:103250001D4801892A465046FFF7D0FC23480068E4
:10326000401C2249086008460068B0F57A6F21D3F7
:10327000284801881448C180012013498870FFF74D
:1032800053FC0320FFF750FD01F017FB01203749E5
:10329000087001F03DFB36A002F092FF0A48C18899
:1032A0003DA0FFF7F3FE40A002F08AFF0020A871C6
:1032B00001201CE701201AE700BF00BF00BF00206B
:1032C00015E7000052000020801500205B43414CB0
:1032D0005D206661696C656420647572696E672043
:1032E00072756E0D0A0000004400002048000020A6
:1032F0004C0000205B43414C5D2073746167652086
:10330000666F7277617264207265760D0A00000044
:1033100050000020901500205B43414C5D20646507
:103320006C7461206D6563683D0000005B43414C37
:103330005D20656E63206469723D00005B43414C13
:103340005D207068617365207369676E3D000000E1
:103350005B43414C5D2073746167652072657665DF
:10336000727365207265760D0A000000550000201A
:103370005B43414C5D207265766F6C7574696F6E4E
:103380002063616C6962726174696F6E207375632A
:10339000636573730D0A00005B43414C5D207A65E1
:1033A000726F207261773D005B43414C5D20617517
:1033B000746F73617665207175657565640D0A00BB
:1033C00010B501F07AFA01200349087001F0A0FA63
:1033D00002A002F0F5FE10BD540000205B43414CFA
:1033E0005D207265717565737420636C6561720D23
:1033F0000A00000010B501F060FA012003490870CE
:1034000001F086FA02A002F0DBFE10BD530000209E
:103410005B43414C5D2072657175657374206C6F00
:1034200061640D0A0000000010B501F046FA0120A9
:103430000349087001F06CFA02A002F0C1FE10BD51
:10344000520000205B43414C5D20726571756573CD
:10345000742073746172740D0A00000070B501F07D
:103460002CFA224804782248057822480678002061
:103470001E4908701E4908701E49087001F048FA7C
:103480003DB11DA002F09CFEFFF796FC21A002F0CA
:1034900097FE3CB126A002F093FEFFF7A5FC2BA0FF
:1034A00002F08EFE002E20D02FA002F089FE022016
:1034B0003549087072B6FFF755FB38B962B604207B
:1034C0003149087031A002F07BFE0BE062B60320A8
:1034D0002D49087034A002F073FE2B48C16837A054
:1034E000FFF7D4FD3AA002F06BFE70BD5300002040
:1034F00054000020550000205B43414C5D20736563
:10350000727669636520636C6561722062656769C4
:103510006E0D0A005B43414C5D20736572766963F2
:103520006520636C65617220656E640D0A000000A1
:103530005B43414C5D2073657276696365206C6FF7
:10354000616420626567696E0D0A00005B43414C4F
:103550005D2073657276696365206C6F61642065B8
:103560006E640D0A000000005B43414C5D207365F2
:103570007276696365206175746F73617665206228
:103580006567696E0D0A0000801500205B43414CA1
:103590005D206175746F2073617665206661696C6A
:1035A00065640D0A000000005B43414C5D206175BD
:1035B000746F2073617665640D0A00005B43414CB3
:1035C0005D206175746F73617665207365713D0070
:1035D0005B43414C5D20736572766963652061755C
:1035E000746F7361766520656E640D0A00000000DB
:1035F00010B504460CB1A07D30B90420FFF794FB50
:1036000012A002F0DDFD10BD01201A4908701A4910
:1036100008700020194908602046FFF7C1FB1849CF
:103620000860002017490880FF224FF4C87116482F
:10363000FDF7D1F8A08A1449088014A002F0C0FD5B
:10364000A18A1CA0FFF722FD00BFDCE75B43414CD1
:103650005D207374617274206661696C65643A20E0
:10366000656E636F646572206E6F7420726561644D
:10367000790D0A0080150020440000204800002039
:103680004C00002050000020901500205B43414C6E
:103690005D207265766F6C7574696F6E2063616C06
:1036A0006962726174696F6E2073746172746564AB
:1036B0000D0A00005B43414C5D20737461727420FD
:1036C000726177303D00000010B5044604B910BDAA
:1036D00001F0ECF8182204492046FDF74AF801F001
:1036E0000EF900BFF3E700002800002010B50446E3
:1036F0002146042000F008F810BD10B5044621460C
:10370000012000F001F810BD70B505460C4604B963
:1037100070BD01F0CBF8104894E84E004EC0103850
:1037200005750069401C0C490861E0780B49487632
:10373000A0884883E08888832089C883E06808627D
:103740000548006988630448007D81F83C0001F069
:10375000D6F800BFDCE7000028000020E4000020CD
:10376000704730B5B1B004460CB931B030BD04A8D3
:1037700000F078FD16A802F0BBFC16A800F0F7F8E0
:1037800020902099059800F04BFE8DF88400209839
:1037900008B9012000E000208DF885009DF8850023
:1037A00002F09BFA2078C8B900208DF870008DF8DF
:1037B0007100E0788DF87200B4F90400FFF70AFA9E
:1037C000ADF87400B4F90600FFF704FAADF876001E
:1037D0002089ADF87800E0681F9035E06078C8B9BE
:1037E00000208DF870008DF87100E0788DF872007F
:1037F000B4F90400FFF7EEF9ADF87400B4F906006F
:10380000FFF7E8F9ADF876002089ADF87800E068B8
:103810001F9019E001208DF87000A0788DF87100DC
:10382000E0788DF87200B4F90400FFF7D3F9ADF831
:103830007400B4F90600FFF7CDF9ADF876002089E1
:10384000ADF87800E0681F9014A916A8FFF732FCC5
:1038500020B914AA1CA916A8FEF796FC2DA8FEF7FD
:103860005FFB9DF8560038B19DF8850020B102F04D
:1038700030FA08B1012000E000208DF8560014A8AD
:1038800002F0D2FABDF85C00ADF88800BDF858002F
:10389000ADF88A00BDF85000ADF88C002098249057
:1038A0009DF884008DF894009DF872008DF89500C5
:1038B000BDF87400ADF89600BDF87600ADF898003C
:1038C000BDF87800ADF89A001F982790BDF8640005
:1038D000ADF8A000BDF8B400ADF8A200BDF86C00D2
:1038E000ADF8A4001A982A909DF86E0008B1012046
:1038F00000E000208DF8AC00BDF8BE00ADF8AE00D1
:10390000BDF8C000ADF8B000BDF8C200ADF8B2001F
:1039100022A800F0E3FC207838B3607828B3A078C0
:1039200018B3E078042820D19DF86E00E8B1BDF806
:1039300064001A99C1EB4112C2EB012100EB0110A6
:10394000E1680D1A142D0FDC15F1140F0CDB94E84F
:103950000F008DE80F0000208DF801008DF80200A7
:103960006846FFF7C3FE00BF00BF00BFFDE601468B
:1039700009B9012070470022888842F210739842EA
:1039800001D242F00102B1F9000040F2DC5398424A
:1039900004DCB1F900005B42984201DA42F0020215
:1039A0001046E7E77047000022A002F009FC00F093
:1039B00031FD26A002F004FCFFF7F4FF2AA002F07C
:1039C000FFFB02F01DF92FA002F0FAFBFEF762FBED
:1039D00032A002F0F5FBFFF765FA36A002F0F0FB2B
:1039E000FFF7BEFE39A002F0EBFB00F01FFF3EA088
:1039F00002F0E6FB02F0D6F900F0ACFC00F056FD58
:103A000040A002F0DDFB00F041FD48A002F0D8FB31
:103A100000F02CFD4FA002F0D3FB00F057FD57A0A3
:103A200002F0CEFB05E04FF47A7001F085F800F06B
:103A300047FCF8E75B424F4F545D2061707020698E
:103A40006E697420626567696E0D0A005B424F4FB4
:103A5000545D207374617465206D616368696E657F
:103A6000206F6B0D0A0000005B424F4F545D2066D3
:103A700061756C74206D616E61676572206F6B0D8E
:103A80000A0000005B424F4F545D20626F61726418
:103A900020696E6974206F6B0D0A00005B424F4F06
:103AA000545D20616C676F20696E6974206F6B0DC7
:103AB0000A0000005B424F4F545D2063616C6962F5
:103AC00020696E6974206F6B0D0A00005B424F4FD6
:103AD000545D20666173746C6F6F7020696E6974D9
:103AE000206F6B0D0A0000005B424F4F545D206356
:103AF000686962696F7320696E6974206F6B0D0A63
:103B0000000000005B424F4F545D20636F6E747283
:103B10006F6C2074687265616420737461727420C4
:103B20007265717565737465640D0A005B424F4F71
:103B3000545D20636F6D6D207468726561642073DD
:103B400074617274207265717565737465640D0AB1
:103B5000000000005B424F4F545D2063616C69625E
:103B60002074687265616420737461727420726578
:103B7000717565737465640D0A0000005B424F4FF8
:103B8000545D207569207468726561642073746186
:103B90007274207265717565737465640D0A000036
:103BA0002DE9F04105460E46144600F01DF9074682
:103BB0000FB105B114B90020BDE8F08195E80F0000
:103BC00084E80F00387B08284DD2DFE800F04D0470
:103BD000132632404448287808B9012000E000202C
:103BE000207000206070A070304600F0E7F8E060C0
:103BF0000220E1E7287808B90320DDE70320E07020
:103C00000020A070687810B1E878032801D0012066
:103C100000E0002060700220CEE72889401C00B23E
:103C20002081B4F908001E2801DD01202081022036
:103C3000C2E7A888323000B2A080B4F90400B0F521
:103C4000966F02DD4FF49670A0800220B4E7FFF774
:103C5000EBFB0320B0E7FFF7CDFB0320ACE7FFF75A
:103C6000AFFB0320A8E700BF0020A5E70448007CC5
:103C7000012804D90248007C401E0149087470479D
:103C8000A01200202DE9F74F144614B13848007CEB
:103C900008B9BDE8FE8F3648007C401EC7B23448E4
:103CA00050F8276006B9F4E73148153010F807805E
:103CB000001F10F807A030682060AAEB080084F805
:103CC00028002B48007C84F829002948007C012822
:103CD00001D9012000E0002084F82A0084F82B801C
:103CE000307A84F82C0000253EE008EB050000F057
:103CF000FF0B20A105EB4502201D40F822101DA15D
:103D000005EB450200EB82004160002105EB450216
:103D1000201D00EB82000172307A584522DD706868
:103D200000EB0B1905EB4502201DD9F8001040F8F7
:103D300022102B464846DDE9001200F00DF905EB94
:103D40004502211D01EB82014860D9F8080008B145
:103D5000022100E0012105EB4502201D00EB82005D
:103D6000017200BF681CC5B2032DBED300BF90E72F
:103D7000A01200200000000070B500F035F80546E4
:103D80000DB1A86800B970BD0B48007C042800D3B1
:103D9000F9E70948047C0849A86841F82400002193
:103DA000054811300155001D01551538007C401C97
:103DB0000149087400BFE6E7A012002010B50446D0
:103DC0000CB9002010BD204600F001F8FAE70146CA
:103DD00009B900207047888CCA6AC2EB4213C3EB52
:103DE000022200EB0210F5E70B48007C08B9002026
:103DF00070470948007C401EC3B2074850F82310A2
:103E00001130C25C11B1087A904201DC0020EFE76A
:103E1000486800EB0210EBE7A01200200121084ADD
:103E2000117408491160002007E000220449113193
:103E30000A54091D0A54411CC8B20428F5D370471E
:103E4000A01200200083000870B51248007C00B961
:103E500070BD1048007C401EC4B20E4850F824507B
:103E600005B9F5E70B481130005D401C297A8842FE
:103E700008D208481130005D401CC1B2054811301D
:103E8000015503E0002103481130015500F0C4F949
:103E900000BFDDE7A012002070B51248007C00B919
:103EA00070BD1048007C401EC4B20E4850F824502B
:103EB00005B9F5E70B481130005D40B109481130F4
:103EC000005D401EC1B207481130015505E0287A57
:103ED000401EC1B203481130015500F09DF900BFEA
:103EE000DEE70000A012002010B51A48007C08B9D7
:103EF000002010BD1748007C401EC3B2154850F882
:103F0000231009B90020F4E700221DE0486800EB07
:103F10000210407B0B2812D2DFE800F012060708DF
:103F2000090A0B0C0D0E0F0000BF00BF00BF00BF41
:103F300000BF00BF00BF00BF00BF0120D9E700BF26
:103F400000BF00BF501CC2B2087A9042DEDC0020E5
:103F5000CFE70000A01200202DE9F04385B007460E
:103F60000E4614461D460FB1032D03D386A005B09F
:103F7000BDE8F083787B0B287ED2DFE800F0FE06F8
:103F80000D173A4E6A8CACD0E6001EB1307808B1FD
:103F90007EA0ECE77EA0EAE736B1707820B1F07839
:103FA000032801D17BA0E2E77BA0E0E7FEB1B6F9F0
:103FB00008804FF00009B8F1000F06DD404608EB1D
:103FC000D07149103C3191FBF8F905EB4501744A79
:103FD00002EB8100434673A20C21CDF80090FCF760
:103FE000CDF905EB45006E4901EB8000BFE770A0FD
:103FF000BDE786B1B6F9043005EB4501684A02EB2E
:1040000081006CA20C21FCF7B9F905EB450064496D
:1040100001EB8000ABE766A0A9E701A8FEF7B0FEC0
:104020009DF80400012801D164A0A0E79DF80400D8
:10403000022801D163A09AE79DF8060008B163A0A9
:1040400095E79DF80400042801D161A08FE762A0E4
:104050008DE7F4B194F83000D8B1A08C0A21B0FB00
:10406000F1F201FB1208B0FBF1F905EB45014C4AF6
:1040700002EB81004B4600E07EE059A20C21CDF816
:104080000080FCF77BF905EB4500454901EB80001A
:104090006DE755A06BE7E4B194F83000C8B1E08C4F
:1040A0000A21B0FBF1F201FB1208B0FBF1F905EBBC
:1040B00045013B4A02EB81004B4649A20C21CDF859
:1040C0000080FCF75BF905EB4500354901EB80000A
:1040D0004DE745A04BE704B3A0894FF47A71B0FBDC
:1040E000F1F201FB12006421B0FBF1F8A0894FF45A
:1040F0007A71B0FBF1F905EB4501294A02EB810029
:104100004B463BA20C21CDF80080FCF737F905EBBC
:104110004500234901EB800029E738A027E794B147
:1041200094F8300078B105EB45011D4A02EB81009F
:1041300034A20C21E36AFCF721F905EB450018498C
:1041400001EB800013E71AA011E79CB194F830004E
:1041500080B1238D05EB4501114A02EB81002AA2B3
:104160000C21FCF70BF905EB45000D4901EB800034
:10417000FDE602E026A0FAE600BF786808B178689C
:10418000F5E601A0F3E60000000000004F4E00003D
:104190004F46460052554E0053544F500000000009
:1041A000BC120020256C6472256C64730000000052
:1041B0002D2D000025646D4100000000425553592B
:1041C00000000000534156450000000043414C00F0
:1041D0004641494C000000004E43414C00000000A5
:1041E0002533752E257500002D2D2E2D0000000085
:1041F0002532752E25317556000000002D2D2E2DEF
:1042000056000000256C6400253035750000000064
:104210002D2D2D2D2D00000010B5114C247C04B93E
:1042200010BD0F4C247C641EE0B20D4C54F82030BD
:104230001134215C241D225C914201DA0A4605E01A
:10424000D41CE4B28C4201DC8C1EE2B21C7A032C3A
:1042500000D80022024C1534225400BFE0E70000D1
:10426000A012002010B5044604B910BD00F01EFBDA
:10427000402204492046FCF77CFA00F040FB00BFD6
:10428000F3E70000E400002010B500F00FFB044845
:104290008068401C0249886000F031FB10BD0000BE
:1042A000E400002010B500F001FB04484068401C09
:1042B0000249486000F023FB10BD0000E40000202C
:1042C00010B500F0F3FA04480068401C0249086089
:1042D00000F015FB10BD0000E400002010B50446FE
:1042E00004B910BD00F0E2FA20881849888160887E
:1042F000C881A0880882A0684861207B0876607B1E
:104300004876E0894883208A8883608AC883606908
:104310000862208B8884608BC884A08B0885206A03
:10432000C86294F8240081F83000E08C4886208D23
:104330008886608DC8860648006988630448007DC9
:1043400081F83C0000F0DBFA00BFCAE7E40000207F
:104350002800002010B517A001F032FF00204FF018
:10436000E02108611A4800684FF47A71B0FBF1F05F
:10437000401E4FF0E021486100208861401E082166
:10438000002807DA0A07140E124A00F00F031B1F59
:10439000D45403E00A07130E0F4A135400BF0FA0B2
:1043A00001F00EFF07204FF0E021086112A001F09C
:1043B00007FF10BD5B424F4F545D207379737469E2
:1043C000636B2063666720626567696E0D0A000093
:1043D0000000002018ED00E000E400E05B424F4FD9
:1043E000545D207379737469636B2063666720641E
:1043F0006F6E650D0A0000005B424F4F545D2073E5
:1044000079737469636B20737461727465640D0AE7
:1044100000000000002001490870704740000020A3
:10442000024629B10320104B1870184600787047D7
:104430000D48007830B1012808D002280CD003289C
:104440000BD10BE00120084B187008E0052A02D3BD
:104450000220054B187002E001E000BF00BF00BF62
:1044600001480078E3E700004000002008B5002084
:10447000044B02224FF412610090034800F0A4FAAA
:1044800008BD0000F10B00088009002008B50020DD
:10449000044B7F224FF428710090034800F094FAF7
:1044A00008BD0000350C0008E012002008B500200F
:1044B000044B81224FF448710090034800F084FAC5
:1044C00008BD0000C90C00084001002008B500200C
:1044D000044B80224FF4A4610090034800F074FA6A
:1044E00008BD0000491800086004002070B50446AB
:1044F0000D4600222946204600F014F870BD2DE933
:10450000F04104460D46164600F0ECF932462946C5
:10451000204600F007F8074600F01EFA3846BDE8CE
:10452000F0810000F0B503460E46174600BF00BFFD
:104530000B4804684168081B984201D20020F0BD76
:10454000C81AA6F1010C20EA0C05EA1BA24201D30D
:104550008A4201D90020F2E7014842602846EEE78E
:10456000D400002004490968016003494968024AEF
:104570001268891A41607047D400002070B588B075
:1045800004460D46002600BF00BF314840F82640D3
:104590002663A563204601F04FFF00BF24606460DE
:1045A0000020A06000BF04F1280000BF0060406050
:1045B00000BF00BF00BF0020606300BF04F1100017
:1045C00000BF00604060711E816000BF0021C160BB
:1045D00000BF2049C96900220161426100BF00BFDC
:1045E0000020C4F8E40000BF1C221B4901A8FCF70E
:1045F000C0F868680290A8680390079401A904F1C4
:10460000900000F067FAE06004F12801E26802F12E
:10461000240001604A68426042681060486000BF40
:104620000120E168087700BF00BF1C220A491C3145
:1046300001A8FCF79EF8E8680290286903900794A7
:1046400001A904F13C0000F08AFA08B070BD000036
:10465000841A0020901A0020C484000800BF00BF04
:1046600000BF0060406000BF00218160704770B5EE
:1046700005460E461446234604223146284600F0DD
:1046800001F870BD10B500BF00BF00240460416098
:104690008260C36010BD000070B50C4CE568204618
:1046A00000F022FB064601203077E660A86801286A
:1046B00001D100BF00BF2846FDF7E0FA054600BF64
:1046C00000BF29463046FBF7A9FD70BD901A0020B7
:1046D0002DE9F04106460D4DEF6800BF00BF00BF59
:1046E00000BF3E77284600F0FFFA044601202077FD
:1046F000EC60A068012801D100BF00BF00BF00BF6F
:1047000039462046FBF78AFDBDE8F081901A00206B
:1047100070B586B006460C460F48C568B4F1FF3F39
:1047200013D02B460D4A2146684600F063FA304606
:10473000FFF7CEFF00BF009808B1012000E0002085
:1047400010B1684600F03EFA02E03046FFF7C0FFC5
:10475000686B06B070BD0000901A0020FD1C0008B8
:1047600010B50549CA68086883689468A34201D9EE
:10477000012010BD0020FCE7901A002010B504466F
:1047800000BF00BF2046FDF799FA10BD2DE9F041AA
:1047900004460F46104EF56800BF00BF6763A0686F
:1047A000A968884203D82046FDF788FA11E0284618
:1047B000FDF764FA0546A868012801D100BF00BFD3
:1047C00001202077F46000BF00BF29462046FBF798
:1047D00025FDBDE8F0810000901A002070B5054667
:1047E0000C4600BF002D02DD022D09DC08E014B1EB
:1047F00004F0030020B100BF024800F005F800BF3C
:1048000000BF70BD1484000800BF72B600BF054928
:10481000C1F8E40000BF00BF0321034A117000BFCC
:10482000FEE70000901A0020801A002070B586B0C4
:1048300001201B490870002405E000211848001DD4
:1048400040F82410641C002CF7D0154D08350020CA
:104850002860684600F092F8042600BF00BF684652
:1048600000F098F8684600F09DF8761E002EF6D10C
:104870000098286000BF00BF00BF00BFFDF7B8F878
:10488000FDF7F0F8FDF7C0F800BF06490648FFF74E
:1048900075FE02200249087000F04CF806B070BDA9
:1048A000801A0020E0830008901A002010B500BF95
:1048B0003020FDF767FA00BF10BD10B500BF3020F3
:1048C000FDF764FA00BF10BD10B500BF3020FDF742
:1048D00061FA00BF10BD10B500BF3020FDF76EFAC1
:1048E00000BF10BD10B500BF3020FDF76BFA00BF50
:1048F00010BD10B500F096F900BF00BF10BD10B597
:1049000000BF00BF00BF0020FDF73CFA00BF10BD94
:1049100010B500BF00BF00BF0020FDF737FA00BF91
:1049200010BD10B500BF00BF00BF0020FDF732FA78
:1049300000BF10BD10B500BF00BF00BF0020FDF7D5
:1049400031FA00BF10BD10B500BF00BF00BF00208E
:10495000FDF734FA00BF10BD10B500BF00BF00BFA7
:104960000020FDF72FFA00BF10BD10B500BF00BF3B
:104970000020FDF71FFA00BF00BF10BD4FF0FF3150
:104980000160002141608160C160002202614261DA
:104990007047000000BF024949688160704700000D
:1049A000001000E070B5044600BF054840680546A9
:1049B000044829468268204601F036FE70BD00009A
:1049C000001000E0801A00202DE9F04F89B0054664
:1049D000884691461E46DDF848A000BF00BF00BFD4
:1049E00000BF00BF00BF05EB0807AB46A7F16000A2
:1049F000089000BF00BF1C22174901A8FBF7B9FEB1
:104A000002950397CDF810900596CDF818A001A94E
:104A1000089800F05FF8044600BFA4F12400E060AD
:104A2000E0680660E068C0F804A00C48E16808622D
:104A300000BFFFF750FF216901F1280004F12401B4
:104A400000F063F900212046FFF7A0FEFFF77BFF8F
:104A5000204609B0BDE8F08FF48500082D0200085B
:104A600010B50446FFF737FF204600F001F810BDEF
:104A700070B5064600F028F80446666300BF00BF24
:104A800009E000BF00BF00BF00BFA06B0168A163C9
:104A90000546FFF773FE04F138000168814201D03A
:104AA000012100E000210029EBD1A07F28B9E06AB4
:104AB00018B904F1240000F01EF90F20FFF708FEDA
:104AC00000BF00BF70BD00000148C0687047000013
:104AD000901A002070B504460D4600BF00BF00BF0D
:104AE00000BF68686061A868A061E868A0600220F3
:104AF000207700206077A86910B1A869206101E0E3
:104B00000C4820610020E062206304F1380000605E
:104B100000BFE86820650020E064A0640120A07761
:104B20002868206204F13C0000F0ECF800BF00BFF0
:104B3000204670BD901A002010B50446FFF7CBFE4A
:104B4000204600F003F8FFF7FEFE10BD10B5044646
:104B500000BF00BF21460820FFF7DAFD10BD70B589
:104B600004460D462946204600F004F80646FFF7A5
:104B700005FE70BD70B504460D4600BF00BF00BF06
:104B800000BF00BF00BF29462046FFF7A3FF044631
:104B900000BFA0692438E0602869E168086068699E
:104BA000E16848600648E168086200BF216901F1D8
:104BB000280004F1240100F0A8F8204670BD000090
:104BC0002D02000870B50446094D00BF00BF00BFAC
:104BD00000BF20688068A16808442168886020467A
:104BE00000F05EF800202060401EA86070BD00004C
:104BF000A01A00202DE9F04104460D4616461F4636
:104C0000DFF81C8000BF00BF2761E6600020606104
:104C10002A462146404602F02FFFBDE8F081000001
:104C2000A01A002070B51D4CE068401CE0602046D2
:104C30000168814201D0012100E0002161B32068B8
:104C40008068401E2168886022E02568284600F0C0
:104C500027F80020286000BF00BF00BFFDF7A6F8BE
:104C600000BF00BF00BF2846D5E90321904700BF21
:104C700000BF00BF3020FDF799F800BF00BF00BFA4
:104C8000686920B1294620466A6900F010F800BF23
:104C9000206880680028D8D070BD0000A01A0020CD
:104CA000D0E900121160D0E900215160704710B5C1
:104CB0000346186804E000BF00BF8468121B006848
:104CC00084689442F7D300BF8A6008600C68646807
:104CD0004C604C682160416000BF8468A41A846005
:104CE0004FF0FF349C6010BD0146086802680A60FE
:104CF0000A6851607047D0E900121160D0E90021C4
:104D000051607047006040607047086042684A60C8
:104D10004A681160416070472DE9F8430446024635
:104D20004F486946B0EB420F09D94FF0E640B0EB6F
:104D3000420F94BF00204FF0FF30009030E0494B0D
:104D400022F00040834271D94749204603F014F80D
:104D500003F0DEF8804602F0C7FF00F00300009089
:104D60004249404603F008F805464149404603F0F1
:104D700003F806463F49404602F0FEFF07463E491B
:104D8000404602F0F9FF214603F0F2F8394603F0FD
:104D9000F9F8314603F0F6F8294603F0F3F8044633
:104DA0002546009C002C45DB294614F0010F0846DF
:104DB0001CD002F0E1FF0646304902F0DDFF304929
:104DC00003F0D6F8314602F0D7FF2E4902F062FE1A
:104DD000314602F0D1FF294602F0CEFF294602F00B
:104DE00059FE14F0020F1CD0BDE8F88302F0C4FF96
:104DF0000546254902F0C0FF244902F04BFE294632
:104E000002F0BAFF224902F045FE294602F0B4FF43
:104E10004FF07E5102F03EFE14F0020F08BFBDE8D5
:104E2000F88380F00040BDE8F883FFE71046FCF708
:104E300041FEB4E76800B0F17F4F3CBF4FF07E50B9
:104E4000BDE8F88307D14FF00100FBF71DFDBDE879
:104E5000F843FCF726BE2846BDE8F843FCF71EBE23
:104E6000B61F927E490E494683F9223F1A61342CBF
:104E70000020A23300A0FD390000C93F336D4C393A
:104E8000DA82083CA0AA2ABEB93AB2BACA9F2A3D21
:104E9000DDFFFFBE70B5044604B970BD01211348A3
:104EA000FBF78BFE00BF02211048FBF7E9FD00284D
:104EB000F9D00E48FBF7E0FD064602210B48FBF750
:104EC00094FD40F6E440704340F6FF71B0FBF1F50D
:104ED00005EB0510C0F34F000549888008460168BE
:104EE00021608088A08000BFD7E700000024014037
:104EF000B000002000B587B001214FF40170FCF72D
:104F000097F84FF40040FCF777F80120ADF8040063
:104F100002208DF8060000208DF8070001A91D4829
:104F2000FBF78BFF1C48FBF76FFD002002908DF80C
:104F30000C008DF80D004FF46020049000200590C7
:104F400001208DF8180002A91348FBF7ADFD0723D7
:104F5000012200211048FBF7CFFD01210E48FBF78D
:104F600047FD0D48FBF724FE00BF0B48FBF791FD02
:104F70000028FAD10848FBF72BFE00BF0648FBF7D4
:104F800071FD0028FAD1054908804880888007B063
:104F900000BD00000008014000240140B0000020D6
:104FA00010B50AA000F0BCF8FBF728FF3420FBF78F
:104FB000B5FE0C48FBF7B8FE0B48FBF7B5FEFBF758
:104FC000F3FE0AA000F0ACF810BD00005B464C41B7
:104FD00053485D20636C65617220626567696E0D80
:104FE0000A00000000F0000800F800085B464C4191
:104FF00053485D20636C65617220656E640D0A0024
:1050000030B503460C464FF0FF31002210E0985CAB
:105010004140002509E001F0010018B1064880EA8E
:10502000510100E04908681CC5B2082DF3D3521C99
:10503000A242ECD3C84330BD2083B8ED10B5ECB02C
:1050400004464FF4D672214601A8FBF792FB0020DC
:1050500004904FF4D67101A8FFF7D2FF6CB010BDD9
:1050600070B506460D4634460E492068884206D182
:10507000A088012803D1E088B0F5D67F01D00020B8
:1050800070BD2046FFF7DAFFE168884201D00020BA
:10509000F6E72DB14FF4D67221462846FBF769FB9F
:1050A0000120EDE731424C4370B5ADF5567D044625
:1050B0006BA91448FFF7D4FF054669461248FFF76D
:1050C000CFFF06463DB936B910A000F029F8002000
:1050D0000DF5567D70BD26B15DB102996D9888427F
:1050E00007D36CB14FF4D6726BA92046FBF741FB96
:1050F00006E02CB14FF4D67269462046FBF739FB27
:105100000120E5E700F0000800F800085B464C418C
:1051100053485D206C6F6164206E6F6E650D0A00F0
:1051200010B5044600F016FD10B1204600F018FD41
:1051300010BD000070B5A2B004460D46164600F042
:1051400009FD08B922B070BD234606A2802102A83D
:10515000CDE90056FBF712F902A800F001FD00BFEF
:10516000F0E70000257330782530386C58207661E0
:105170006C3D256C750D0A002DE9F04105460E4683
:10518000002229461FA0FFF7D5FFFBF737FE34208A
:10519000FBF7C4FD2846FBF7C7FD0746042F09D0DF
:1051A0003A4629461EA0FFF7C5FFFBF7FDFD00208C
:1051B000BDE8F0810022294620A0FFF7BBFFB046E2
:1051C000002412E0620838F812102819FBF7F6FDE7
:1051D0000746042F08D029193A461EA0FFF7AAFF58
:1051E000FBF7E2FD0020E3E7A41CB4F5D67FE9D38A
:1051F000FBF7DAFD29461DA0B268FFF79BFF0120EF
:10520000D6E700005B464C4153485D2065726173F0
:105210006520626567696E20706167653D0000000A
:105220005B464C4153485D20657261736520666141
:10523000696C20706167653D000000005B464C4171
:1052400053485D206572617365206F6B20706167E4
:10525000653D00005B464C4153485D2070726F67AE
:10526000206661696C20616464723D005B464C415C
:1052700053485D2070726F67206F6B2070616765A7
:105280003D0000002DE9F043EBB005461DB90020BC
:105290006BB0BDE8F0834FF4D67229466846FBF741
:1052A00068FA224800900120ADF804004FF4D6704F
:1052B000ADF80600012002900020FFF7F5FE30B3A4
:1052C0001B4E1C4F00213046FFF7CAFE81460021CD
:1052D0003846FFF7C5FE8046B9F1000F0BD0B8F194
:1052E000000F03D0B068B968884204D3B068401C8E
:1052F0000290104C0AE0B8F1000F04D0B868401CCE
:1053000002900B4C02E001200290094C00E0084C96
:105310006846FFF793FE0390214607A0029AFFF725
:1053200009FF69462046FFF727FFB1E731424C43AA
:1053300000F0000800F800085B464C4153485D202F
:1053400073617665207461726765743D00000000CA
:105350000020014908707047BE0000200148007815
:1053600070470000BE00002001490870704700002F
:10537000BE0000200020014908707047BE000020D8
:105380007047000008B5014601EB8100034A02EBBB
:105390004000D0F80500009008BD0000201A002051
:1053A00008B501210C20FBF743FE02208DF8020016
:1053B00048208DF803000320ADF800006946054839
:1053C000FBF73BFD0220ADF8000069460248FBF701
:1053D00034FD08BD000C01400008014010B5044632
:1053E000064A02EBC4029188044A52F83400FBF7E3
:1053F000AFFD08B9012010BD0020FCE7688300085C
:1054000070B500253DE005EB85001F4901EB400428
:105410002846FFF7E3FF06460021A171E1712172E2
:105420002078B04202D10020607014E06078401C07
:105430006070607805280ED3002060702670667159
:1054400026B1608020710121A17104E00121E17188
:10545000002060802071207888B160884FF6FF714D
:10546000884202D26088401C6080207938B9608808
:10547000B0F5167F03D30120207101212172681C31
:10548000C5B2032DBFDB70BD201A002010200149DA
:1054900008607047100801401020014908607047FB
:1054A000140801402DE9F04104460CB9BDE8F08133
:1054B000032000F0A7F80746042000F0A3F840EA14
:1054C00007218D1015490978A1B1154909886E1A6F
:1054D000B6F5005F05DD13490968491E114A1160E0
:1054E0000BE016F5005F08DA0E490968491C0D4A01
:1054F000116002E00121094A117009490D802580DF
:105500004FF461616943C1F38F31618005490968D6
:1055100061600121217200BFC8E70000D0000020B7
:10552000C8000020CC00002000B587B0012141F266
:105530000400FBF77DFD03208DF81A0010208DF884
:105540001B00ADF8180006A92948FBF776FC1820C7
:105550008DF81B002020ADF8180006A92448FBF7A1
:105560006CFC8020ADF8180006A92148FBF765FC0B
:1055700004208DF81B004020ADF8180006A91C4837
:10558000FBF75BFCFFF782FF1A48FBF70FFE01A851
:10559000FBF764FE0020ADF804004FF48270ADF814
:1055A00006000020ADF808000220ADF80A00012036
:1055B000ADF80C004002ADF80E001820ADF8100058
:1055C0000020ADF812000720ADF8140001A9094829
:1055D000FBF726FE01210748FBF7DCFD002006490A
:1055E0000880064908600649087007B000BD000041
:1055F0000008014000300140C8000020CC0000201D
:10560000D000002070B50446FFF746FF44F080004C
:1056100000F012F8002000F00FF8054600BF8021CE
:105620000448FBF7EFFD0028F9D1FFF72FFF2846CC
:1056300070BD00000030014010B5044600BF0221DB
:105640000A48FBF7DFFD0028F9D021460748FBF7A1
:10565000E5FD00BF01210548FBF7D4FD0028F9D086
:105660000248FBF7D8FDC0B210BD00000030014079
:105670002DE9F04707460E461446384602F026F953
:105680006579E806050E97F822002844C5B2102077
:1056900040EA2511384602F0C4F805F00F013846FB
:1056A00002F0BFF8A07940F0B001384602F0B9F836
:1056B00000BF94F80480D4F800904FEAC860010E4F
:1056C0004A46384602F0B7F8701EC6B2002EF0D136
:1056D000384602F093F80120BDE8F08701B500E0FC
:1056E00000BF0098411E00910028F9D108BD0000BC
:1056F00070B50446074800680749B0FBF1F0451C47
:1057000002E02846FFF7EAFF201EA4F10104F8D1C9
:1057100070BD000000000020C0C62D002DE9F04142
:1057200004460E4615461F46A6F10900072849D231
:10573000DFE800F0040B14481E32420022492046E4
:1057400002F068F90120BDE8F081204602F032F94C
:105750001E49204602F07CF80120F4E70DB91C48F0
:1057600000E01C480146204602F072F80120EAE7FA
:1057700045B91949204602F06BF82068807C84F80E
:10578000220007E01549204602F062F82068C07C3C
:1057900084F822000120D6E7204602F097F8812104
:1057A000204602F03EF82946204602F030F8204616
:1057B00002F024F80120C6E73A4629462046FFF7C2
:1057C00057FFC0E70020BEE798830008B0830008B9
:1057D00080830008858300088A830008918300087D
:1057E0002DE9F04106460D4614461F462C2D29D0C2
:1057F00008DC282D0DD0292D0ED02A2D17D02B2DC9
:1058000032D11EE02D2D21D04C2D23D04D2D2BD16A
:1058100025E000F02FF828E003E04FF47A70FFF75E
:1058200067FF201EA4F10101CCB2F6D11DE002E019
:105830000A20FFF75DFF201EA4F10101CCB2F7D1D1
:1058400013E000BF0220FFF749FF0EE00520FFF73D
:105850004FFF0AE02146402000F02AF805E02146EB
:10586000802000F025F800E000BF00BF0120BDE867
:10587000F081000008B501210820FBF7D9FBC0200A
:10588000ADF8000003208DF8020014208DF803000D
:1058900069460648FBF7D1FA0121402000F008F8DC
:1058A0000121802000F004F808BD0000000C014038
:1058B00011B1034A106002E0014A121D10607047E6
:1058C000100C014070B5044604B970BD1148216840
:1058D000016061684160A07918B1208800F096F8F5
:1058E00000E00020054629460B48FBF7B8FEA079EA
:1058F00018B1608800F08AF800E0002005462946CB
:105900000548FBF7AEFE62792179A07900F08EF8A8
:1059100000BFDAE7B6000020002C014000B589B0D6
:105920000020364908804880012008714871002015
:105930008871012140F60D00FBF77AFB03208DF8FA
:1059400022004FF41060ADF8200018208DF82300DD
:1059500008A92B48FBF771FA4FF47050ADF82000FE
:1059600010208DF8230008A92648FBF766FA0122CB
:105970001146002000F05AF805A8FBF7C7FE0020EA
:10598000ADF81400ADF8160040F65F10ADF8180041
:105990000020ADF81A008DF81C0005A91A48FBF785
:1059A00063FE01A8FBF751FE6020ADF80400012062
:1059B000ADF806000020ADF80A00ADF80C0001A912
:1059C0001148FBF7A1FD01A90F48FBF7F3FD0821E2
:1059D0000D48FBF7E5FD08210B48FBF729FE0121E7
:1059E0000948FBF769FD01210748FBF77DFD01210F
:1059F0000548FBF76DFD09B000BD0000B6000020B2
:105A000000080140000C0140002C01400146B1F5A6
:105A10007A7F02D34FF4166070474FF41660484304
:105A20004FF47A72B0FBF2F080B2F5E770B506463B
:105A30000C461546A6B94FF480612048FBF791FA51
:105A40004FF400611D48FBF78CFA4FF400511B48DE
:105A5000FBF787FA4FF480511848FBF782FA70BDC4
:105A600054B14FF480611548FBF77BFA4FF40061A5
:105A70001248FBF778FA09E04FF480610F48FBF712
:105A800072FA4FF400610D48FBF76BFA55B14FF411
:105A900000510A48FBF765FA4FF480510748FBF7BD
:105AA00062FA09E04FF400510448FBF75CFA4FF446
:105AB00080510248FBF755FA00BFD0E7000C0140C7
:105AC00000B585B0012144F20400FBF7B1FA4FF4B0
:105AD0000070ADF8100003208DF8120018208DF82A
